{
  "_format": "hh-sol-artifact-1",
  "contractName": "Staking",
  "sourceName": "contracts/Staking.sol",
  "abi": [
    {
      "inputs": [
        {
          "internalType": "uint256",
          "name": "minNumParticipants",
          "type": "uint256"
        },
        {
          "internalType": "uint256",
          "name": "maxNumParticipants",
          "type": "uint256"
        }
      ],
      "stateMutability": "nonpayable",
      "type": "constructor"
    },
    {
      "anonymous": false,
      "inputs": [
        {
          "indexed": true,
          "internalType": "address",
          "name": "account",
          "type": "address"
        },
        {
          "indexed": false,
          "internalType": "uint256",
          "name": "newAmount",
          "type": "uint256"
        },
        {
          "indexed": false,
          "internalType": "uint256",
          "name": "slashedAmount",
          "type": "uint256"
        }
      ],
      "name": "Slashed",
      "type": "event"
    },
    {
      "anonymous": false,
      "inputs": [
        {
          "indexed": true,
          "internalType": "address",
          "name": "account",
          "type": "address"
        },
        {
          "indexed": false,
          "internalType": "uint256",
          "name": "amount",
          "type": "uint256"
        }
      ],
      "name": "Staked",
      "type": "event"
    },
    {
      "anonymous": false,
      "inputs": [
        {
          "indexed": true,
          "internalType": "address",
          "name": "account",
          "type": "address"
        },
        {
          "indexed": false,
          "internalType": "uint256",
          "name": "amount",
          "type": "uint256"
        }
      ],
      "name": "Unstaked",
      "type": "event"
    },
    {
      "inputs": [
        {
          "internalType": "uint256",
          "name": "",
          "type": "uint256"
        }
      ],
      "name": "AVAILABLE_NODE_TYPES",
      "outputs": [
        {
          "internalType": "string",
          "name": "",
          "type": "string"
        }
      ],
      "stateMutability": "view",
      "type": "function"
    },
    {
      "inputs": [],
      "name": "DEFAULT_STAKING_THRESHOLD",
      "outputs": [
        {
          "internalType": "uint256",
          "name": "",
          "type": "uint256"
        }
      ],
      "stateMutability": "view",
      "type": "function"
    },
    {
      "inputs": [],
      "name": "GetAvailableNodeTypes",
      "outputs": [
        {
          "internalType": "string[]",
          "name": "",
          "type": "string[]"
        }
      ],
      "stateMutability": "view",
      "type": "function"
    },
    {
      "inputs": [
        {
          "internalType": "address",
          "name": "addr",
          "type": "address"
        }
      ],
      "name": "GetCurrentAccountStakedAmount",
      "outputs": [
        {
          "internalType": "uint256",
          "name": "",
          "type": "uint256"
        }
      ],
      "stateMutability": "view",
      "type": "function"
    },
    {
      "inputs": [],
      "name": "GetCurrentParticipants",
      "outputs": [
        {
          "internalType": "address[]",
          "name": "",
          "type": "address[]"
        }
      ],
      "stateMutability": "view",
      "type": "function"
    },
    {
      "inputs": [],
      "name": "GetCurrentSequencers",
      "outputs": [
        {
          "internalType": "address[]",
          "name": "",
          "type": "address[]"
        }
      ],
      "stateMutability": "view",
      "type": "function"
    },
    {
      "inputs": [],
      "name": "GetCurrentStakedAmount",
      "outputs": [
        {
          "internalType": "uint256",
          "name": "",
          "type": "uint256"
        }
      ],
      "stateMutability": "view",
      "type": "function"
    },
    {
      "inputs": [],
      "name": "GetCurrentStakingThreshold",
      "outputs": [
        {
          "internalType": "uint256",
          "name": "",
          "type": "uint256"
        }
      ],
      "stateMutability": "view",
      "type": "function"
    },
    {
      "inputs": [],
      "name": "GetCurrentValidators",
      "outputs": [
        {
          "internalType": "address[]",
          "name": "",
          "type": "address[]"
        }
      ],
      "stateMutability": "view",
      "type": "function"
    },
    {
      "inputs": [],
      "name": "GetCurrentWatchtowers",
      "outputs": [
        {
          "internalType": "address[]",
          "name": "",
          "type": "address[]"
        }
      ],
      "stateMutability": "view",
      "type": "function"
    },
    {
      "inputs": [],
      "name": "GetMaxNumParticipants",
      "outputs": [
        {
          "internalType": "uint256",
          "name": "",
          "type": "uint256"
        }
      ],
      "stateMutability": "view",
      "type": "function"
    },
    {
      "inputs": [],
      "name": "GetMaxNumSequencers",
      "outputs": [
        {
          "internalType": "uint256",
          "name": "",
          "type": "uint256"
        }
      ],
      "stateMutability": "view",
      "type": "function"
    },
    {
      "inputs": [],
      "name": "GetMaxNumValidators",
      "outputs": [
        {
          "internalType": "uint256",
          "name": "",
          "type": "uint256"
        }
      ],
      "stateMutability": "view",
      "type": "function"
    },
    {
      "inputs": [],
      "name": "GetMaxNumWatchtowers",
      "outputs": [
        {
          "internalType": "uint256",
          "name": "",
          "type": "uint256"
        }
      ],
      "stateMutability": "view",
      "type": "function"
    },
    {
      "inputs": [],
      "name": "GetMinNumParticipants",
      "outputs": [
        {
          "internalType": "uint256",
          "name": "",
          "type": "uint256"
        }
      ],
      "stateMutability": "view",
      "type": "function"
    },
    {
      "inputs": [],
      "name": "GetMinNumSequencers",
      "outputs": [
        {
          "internalType": "uint256",
          "name": "",
          "type": "uint256"
        }
      ],
      "stateMutability": "view",
      "type": "function"
    },
    {
      "inputs": [],
      "name": "GetMinNumValidators",
      "outputs": [
        {
          "internalType": "uint256",
          "name": "",
          "type": "uint256"
        }
      ],
      "stateMutability": "view",
      "type": "function"
    },
    {
      "inputs": [],
      "name": "GetMinNumWatchtowers",
      "outputs": [
        {
          "internalType": "uint256",
          "name": "",
          "type": "uint256"
        }
      ],
      "stateMutability": "view",
      "type": "function"
    },
    {
      "inputs": [
        {
          "internalType": "string",
          "name": "nodeType",
          "type": "string"
        }
      ],
      "name": "GetRandomActiveParticipants",
      "outputs": [
        {
          "internalType": "address[]",
          "name": "",
          "type": "address[]"
        }
      ],
      "stateMutability": "view",
      "type": "function"
    },
    {
      "inputs": [
        {
          "internalType": "address",
          "name": "addr",
          "type": "address"
        }
      ],
      "name": "IsSequencer",
      "outputs": [
        {
          "internalType": "bool",
          "name": "",
          "type": "bool"
        }
      ],
      "stateMutability": "view",
      "type": "function"
    },
    {
      "inputs": [
        {
          "internalType": "address",
          "name": "addr",
          "type": "address"
        }
      ],
      "name": "IsValidator",
      "outputs": [
        {
          "internalType": "bool",
          "name": "",
          "type": "bool"
        }
      ],
      "stateMutability": "view",
      "type": "function"
    },
    {
      "inputs": [
        {
          "internalType": "address",
          "name": "addr",
          "type": "address"
        }
      ],
      "name": "IsWatchtower",
      "outputs": [
        {
          "internalType": "bool",
          "name": "",
          "type": "bool"
        }
      ],
      "stateMutability": "view",
      "type": "function"
    },
    {
      "inputs": [],
      "name": "NODE_SEQUENCER",
      "outputs": [
        {
          "internalType": "string",
          "name": "",
          "type": "string"
        }
      ],
      "stateMutability": "view",
      "type": "function"
    },
    {
      "inputs": [],
      "name": "NODE_VALIDATOR",
      "outputs": [
        {
          "internalType": "string",
          "name": "",
          "type": "string"
        }
      ],
      "stateMutability": "view",
      "type": "function"
    },
    {
      "inputs": [],
      "name": "NODE_WATCHTOWER",
      "outputs": [
        {
          "internalType": "string",
          "name": "",
          "type": "string"
        }
      ],
      "stateMutability": "view",
      "type": "function"
    },
    {
      "inputs": [
        {
          "internalType": "uint256",
          "name": "maximumNumParticipants",
          "type": "uint256"
        }
      ],
      "name": "SetMaxNumParticipants",
      "outputs": [
        {
          "internalType": "uint256",
          "name": "",
          "type": "uint256"
        }
      ],
      "stateMutability": "nonpayable",
      "type": "function"
    },
    {
      "inputs": [
        {
          "internalType": "uint256",
          "name": "maximumNumSequencers",
          "type": "uint256"
        }
      ],
      "name": "SetMaxNumSequencers",
      "outputs": [
        {
          "internalType": "uint256",
          "name": "",
          "type": "uint256"
        }
      ],
      "stateMutability": "nonpayable",
      "type": "function"
    },
    {
      "inputs": [
        {
          "internalType": "uint256",
          "name": "maximumNumValidators",
          "type": "uint256"
        }
      ],
      "name": "SetMaxNumValidators",
      "outputs": [
        {
          "internalType": "uint256",
          "name": "",
          "type": "uint256"
        }
      ],
      "stateMutability": "nonpayable",
      "type": "function"
    },
    {
      "inputs": [
        {
          "internalType": "uint256",
          "name": "maximumNumWatchtowers",
          "type": "uint256"
        }
      ],
      "name": "SetMaxNumWatchtowers",
      "outputs": [
        {
          "internalType": "uint256",
          "name": "",
          "type": "uint256"
        }
      ],
      "stateMutability": "nonpayable",
      "type": "function"
    },
    {
      "inputs": [
        {
          "internalType": "uint256",
          "name": "minimumNumParticipants",
          "type": "uint256"
        }
      ],
      "name": "SetMinNumParticipants",
      "outputs": [
        {
          "internalType": "uint256",
          "name": "",
          "type": "uint256"
        }
      ],
      "stateMutability": "nonpayable",
      "type": "function"
    },
    {
      "inputs": [
        {
          "internalType": "uint256",
          "name": "minimumNumSequencers",
          "type": "uint256"
        }
      ],
      "name": "SetMinNumSequencers",
      "outputs": [
        {
          "internalType": "uint256",
          "name": "",
          "type": "uint256"
        }
      ],
      "stateMutability": "nonpayable",
      "type": "function"
    },
    {
      "inputs": [
        {
          "internalType": "uint256",
          "name": "minimumNumValidators",
          "type": "uint256"
        }
      ],
      "name": "SetMinNumValidators",
      "outputs": [
        {
          "internalType": "uint256",
          "name": "",
          "type": "uint256"
        }
      ],
      "stateMutability": "nonpayable",
      "type": "function"
    },
    {
      "inputs": [
        {
          "internalType": "uint256",
          "name": "minimumNumWatchtowers",
          "type": "uint256"
        }
      ],
      "name": "SetMinNumWatchtowers",
      "outputs": [
        {
          "internalType": "uint256",
          "name": "",
          "type": "uint256"
        }
      ],
      "stateMutability": "nonpayable",
      "type": "function"
    },
    {
      "inputs": [
        {
          "internalType": "uint256",
          "name": "newThreshold",
          "type": "uint256"
        }
      ],
      "name": "SetStakingMinThreshold",
      "outputs": [],
      "stateMutability": "nonpayable",
      "type": "function"
    },
    {
      "inputs": [
        {
          "internalType": "address",
          "name": "",
          "type": "address"
        }
      ],
      "name": "_addressToIsParticipant",
      "outputs": [
        {
          "internalType": "bool",
          "name": "",
          "type": "bool"
        }
      ],
      "stateMutability": "view",
      "type": "function"
    },
    {
      "inputs": [
        {
          "internalType": "address",
          "name": "",
          "type": "address"
        }
      ],
      "name": "_addressToIsSequencer",
      "outputs": [
        {
          "internalType": "bool",
          "name": "",
          "type": "bool"
        }
      ],
      "stateMutability": "view",
      "type": "function"
    },
    {
      "inputs": [
        {
          "internalType": "address",
          "name": "",
          "type": "address"
        }
      ],
      "name": "_addressToIsValidator",
      "outputs": [
        {
          "internalType": "bool",
          "name": "",
          "type": "bool"
        }
      ],
      "stateMutability": "view",
      "type": "function"
    },
    {
      "inputs": [
        {
          "internalType": "address",
          "name": "",
          "type": "address"
        }
      ],
      "name": "_addressToIsWatchtower",
      "outputs": [
        {
          "internalType": "bool",
          "name": "",
          "type": "bool"
        }
      ],
      "stateMutability": "view",
      "type": "function"
    },
    {
      "inputs": [
        {
          "internalType": "address",
          "name": "",
          "type": "address"
        }
      ],
      "name": "_addressToNodeType",
      "outputs": [
        {
          "internalType": "string",
          "name": "",
          "type": "string"
        }
      ],
      "stateMutability": "view",
      "type": "function"
    },
    {
      "inputs": [
        {
          "internalType": "address",
          "name": "",
          "type": "address"
        }
      ],
      "name": "_addressToParticipantIndex",
      "outputs": [
        {
          "internalType": "uint256",
          "name": "",
          "type": "uint256"
        }
      ],
      "stateMutability": "view",
      "type": "function"
    },
    {
      "inputs": [
        {
          "internalType": "address",
          "name": "",
          "type": "address"
        }
      ],
      "name": "_addressToSequencerIndex",
      "outputs": [
        {
          "internalType": "uint256",
          "name": "",
          "type": "uint256"
        }
      ],
      "stateMutability": "view",
      "type": "function"
    },
    {
      "inputs": [
        {
          "internalType": "address",
          "name": "",
          "type": "address"
        }
      ],
      "name": "_addressToStakedAmount",
      "outputs": [
        {
          "internalType": "uint256",
          "name": "",
          "type": "uint256"
        }
      ],
      "stateMutability": "view",
      "type": "function"
    },
    {
      "inputs": [
        {
          "internalType": "address",
          "name": "",
          "type": "address"
        }
      ],
      "name": "_addressToValidatorIndex",
      "outputs": [
        {
          "internalType": "uint256",
          "name": "",
          "type": "uint256"
        }
      ],
      "stateMutability": "view",
      "type": "function"
    },
    {
      "inputs": [
        {
          "internalType": "address",
          "name": "",
          "type": "address"
        }
      ],
      "name": "_addressToWatchtowerIndex",
      "outputs": [
        {
          "internalType": "uint256",
          "name": "",
          "type": "uint256"
        }
      ],
      "stateMutability": "view",
      "type": "function"
    },
    {
      "inputs": [],
      "name": "_maximumNumParticipants",
      "outputs": [
        {
          "internalType": "uint256",
          "name": "",
          "type": "uint256"
        }
      ],
      "stateMutability": "view",
      "type": "function"
    },
    {
      "inputs": [],
      "name": "_maximumNumSequencers",
      "outputs": [
        {
          "internalType": "uint256",
          "name": "",
          "type": "uint256"
        }
      ],
      "stateMutability": "view",
      "type": "function"
    },
    {
      "inputs": [],
      "name": "_maximumNumValidators",
      "outputs": [
        {
          "internalType": "uint256",
          "name": "",
          "type": "uint256"
        }
      ],
      "stateMutability": "view",
      "type": "function"
    },
    {
      "inputs": [],
      "name": "_maximumNumWatchtowers",
      "outputs": [
        {
          "internalType": "uint256",
          "name": "",
          "type": "uint256"
        }
      ],
      "stateMutability": "view",
      "type": "function"
    },
    {
      "inputs": [],
      "name": "_minStakingThreshold",
      "outputs": [
        {
          "internalType": "uint256",
          "name": "",
          "type": "uint256"
        }
      ],
      "stateMutability": "view",
      "type": "function"
    },
    {
      "inputs": [],
      "name": "_minimumNumParticipants",
      "outputs": [
        {
          "internalType": "uint256",
          "name": "",
          "type": "uint256"
        }
      ],
      "stateMutability": "view",
      "type": "function"
    },
    {
      "inputs": [],
      "name": "_minimumNumSequencers",
      "outputs": [
        {
          "internalType": "uint256",
          "name": "",
          "type": "uint256"
        }
      ],
      "stateMutability": "view",
      "type": "function"
    },
    {
      "inputs": [],
      "name": "_minimumNumValidators",
      "outputs": [
        {
          "internalType": "uint256",
          "name": "",
          "type": "uint256"
        }
      ],
      "stateMutability": "view",
      "type": "function"
    },
    {
      "inputs": [],
      "name": "_minimumNumWatchtowers",
      "outputs": [
        {
          "internalType": "uint256",
          "name": "",
          "type": "uint256"
        }
      ],
      "stateMutability": "view",
      "type": "function"
    },
    {
      "inputs": [
        {
          "internalType": "uint256",
          "name": "",
          "type": "uint256"
        }
      ],
      "name": "_participants",
      "outputs": [
        {
          "internalType": "address",
          "name": "",
          "type": "address"
        }
      ],
      "stateMutability": "view",
      "type": "function"
    },
    {
      "inputs": [
        {
          "internalType": "uint256",
          "name": "",
          "type": "uint256"
        }
      ],
      "name": "_sequencers",
      "outputs": [
        {
          "internalType": "address",
          "name": "",
          "type": "address"
        }
      ],
      "stateMutability": "view",
      "type": "function"
    },
    {
      "inputs": [],
      "name": "_stakedAmount",
      "outputs": [
        {
          "internalType": "uint256",
          "name": "",
          "type": "uint256"
        }
      ],
      "stateMutability": "view",
      "type": "function"
    },
    {
      "inputs": [
        {
          "internalType": "uint256",
          "name": "",
          "type": "uint256"
        }
      ],
      "name": "_validators",
      "outputs": [
        {
          "internalType": "address",
          "name": "",
          "type": "address"
        }
      ],
      "stateMutability": "view",
      "type": "function"
    },
    {
      "inputs": [
        {
          "internalType": "uint256",
          "name": "",
          "type": "uint256"
        }
      ],
      "name": "_watchtowers",
      "outputs": [
        {
          "internalType": "address",
          "name": "",
          "type": "address"
        }
      ],
      "stateMutability": "view",
      "type": "function"
    },
    {
      "inputs": [
        {
          "internalType": "uint256",
          "name": "slashAmount",
          "type": "uint256"
        }
      ],
      "name": "slash",
      "outputs": [],
      "stateMutability": "nonpayable",
      "type": "function"
    },
    {
      "inputs": [
        {
          "internalType": "string",
          "name": "nodeType",
          "type": "string"
        }
      ],
      "name": "stake",
      "outputs": [],
      "stateMutability": "payable",
      "type": "function"
    },
    {
      "inputs": [],
      "name": "unstake",
      "outputs": [],
      "stateMutability": "nonpayable",
      "type": "function"
    }
  ],
  "bytecode": "0x608060405260405180606001604052806040518060400160405280600981526020017f73657175656e636572000000000000000000000000000000000000000000000081525081526020016040518060400160405280600a81526020017f7761746368746f7765720000000000000000000000000000000000000000000081525081526020016040518060400160405280600981526020017f76616c696461746f7200000000000000000000000000000000000000000000008152508152506000906003620000d092919062000160565b50348015620000de57600080fd5b5060405162004ed038038062004ed083398181016040528101906200010491906200028d565b808211156200014a576040517f08c379a0000000000000000000000000000000000000000000000000000000008152600401620001419062000381565b60405180910390fd5b81600881905550806009819055505050620006fa565b828054828255906000526020600020908101928215620001ad579160200282015b82811115620001ac5782518290816200019b919062000613565b509160200191906001019062000181565b5b509050620001bc9190620001c0565b5090565b5b80821115620001e45760008181620001da9190620001e8565b50600101620001c1565b5090565b508054620001f6906200040c565b6000825580601f106200020a57506200022b565b601f0160209004906000526020600020908101906200022a91906200022e565b5b50565b5b80821115620002495760008160009055506001016200022f565b5090565b600080fd5b6000819050919050565b620002678162000252565b81146200027357600080fd5b50565b60008151905062000287816200025c565b92915050565b60008060408385031215620002a757620002a66200024d565b5b6000620002b78582860162000276565b9250506020620002ca8582860162000276565b9150509250929050565b600082825260208201905092915050565b7f4d696e207061727469636970616e7473206e756d6265722063616e206e6f742060008201527f62652067726561746572207468616e206d6178206e756d206f6620706172746960208201527f636970616e747300000000000000000000000000000000000000000000000000604082015250565b600062000369604783620002d4565b91506200037682620002e5565b606082019050919050565b600060208201905081810360008301526200039c816200035a565b9050919050565b600081519050919050565b7f4e487b7100000000000000000000000000000000000000000000000000000000600052604160045260246000fd5b7f4e487b7100000000000000000000000000000000000000000000000000000000600052602260045260246000fd5b600060028204905060018216806200042557607f821691505b6020821081036200043b576200043a620003dd565b5b50919050565b60008190508160005260206000209050919050565b60006020601f8301049050919050565b600082821b905092915050565b600060088302620004a57fffffffffffffffffffffffffffffffffffffffffffffffffffffffffffffffff8262000466565b620004b1868362000466565b95508019841693508086168417925050509392505050565b6000819050919050565b6000620004f4620004ee620004e88462000252565b620004c9565b62000252565b9050919050565b6000819050919050565b6200051083620004d3565b620005286200051f82620004fb565b84845462000473565b825550505050565b600090565b6200053f62000530565b6200054c81848462000505565b505050565b5b8181101562000574576200056860008262000535565b60018101905062000552565b5050565b601f821115620005c3576200058d8162000441565b620005988462000456565b81016020851015620005a8578190505b620005c0620005b78562000456565b83018262000551565b50505b505050565b600082821c905092915050565b6000620005e860001984600802620005c8565b1980831691505092915050565b6000620006038383620005d5565b9150826002028217905092915050565b6200061e82620003a3565b67ffffffffffffffff8111156200063a5762000639620003ae565b5b6200064682546200040c565b6200065382828562000578565b600060209050601f8311600181146200068b576000841562000676578287015190505b620006828582620005f5565b865550620006f2565b601f1984166200069b8662000441565b60005b82811015620006c5578489015182556001820191506020850194506020810190506200069e565b86831015620006e55784890151620006e1601f891682620005d5565b8355505b6001600288020188555050505b505050505050565b6147c6806200070a6000396000f3fe6080604052600436106103a25760003560e01c8063a1450126116101e7578063c795c0771161010d578063e028aadf116100a0578063f196f8241161006f578063f196f82414610ed5578063f76a1ee014610f12578063f90ecacc14610f3d578063f9a43d4c14610f7a576103a2565b8063e028aadf14610e05578063e2b5769d14610e42578063e387a7ed14610e7f578063eec9f52e14610eaa576103a2565b8063d3be81a8116100dc578063d3be81a814610d23578063d79f10d214610d4e578063d80ff2b914610d8b578063dea7977414610dc8576103a2565b8063c795c07714610c65578063c8fa5fe914610c90578063d140551714610cbb578063d147c38714610ce6576103a2565b8063bb5a26ff11610185578063c36352e111610154578063c36352e114610b95578063c48c5f3714610bc0578063c6199c1f14610bfd578063c70966fb14610c28576103a2565b8063bb5a26ff14610ad7578063bd9ed0b314610b14578063bfc5aeee14610b3f578063c2ccacdf14610b6a576103a2565b8063b17ca89c116101c1578063b17ca89c146109f5578063b41327ff14610a20578063b61b127f14610a5d578063b8889f0214610a9a576103a2565b8063a145012614610974578063af6da36e1461099f578063aff1ea76146109ca576103a2565b806346f45b8d116102cc5780638d0841481161026a57806399a7c7e41161023957806399a7c7e4146108b65780639a083e82146108e15780639f9f71011461090c578063a0f14bff14610937576103a2565b80638d084148146107e657806390e7c8621461081157806398abb25e1461083c57806398ff822d14610879576103a2565b8063760118b6116102a6578063760118b6146107165780637b339263146107415780637dceceb81461077e578063855598b7146107bb576103a2565b806346f45b8d14610692578063560854f6146106ae5780636edf2481146106eb576103a2565b80631f2743b611610344578063409b9ece11610313578063409b9ece146105c457806340b00753146105ef578063449345521461062c57806345bc4d1014610669576103a2565b80631f2743b61461052e5780632c404e9c146105595780632def6620146105825780633603da8414610599576103a2565b80630fb18ccc116103805780630fb18ccc1461044c57806319908df81461047757806319ae6764146104b45780631cb9bdca146104f1576103a2565b806302b75199146103a7578063065ae171146103e4578063068946e814610421575b600080fd5b3480156103b357600080fd5b506103ce60048036038101906103c991906137b3565b610fb7565b6040516103db91906137f9565b60405180910390f35b3480156103f057600080fd5b5061040b600480360381019061040691906137b3565b610fcf565b604051610418919061382f565b60405180910390f35b34801561042d57600080fd5b50610436610fef565b60405161044391906137f9565b60405180910390f35b34801561045857600080fd5b50610461610ff5565b60405161046e91906137f9565b60405180910390f35b34801561048357600080fd5b5061049e60048036038101906104999190613876565b610ffb565b6040516104ab91906138b2565b60405180910390f35b3480156104c057600080fd5b506104db60048036038101906104d691906137b3565b61103a565b6040516104e8919061395d565b60405180910390f35b3480156104fd57600080fd5b50610518600480360381019061051391906137b3565b6110da565b60405161052591906137f9565b60405180910390f35b34801561053a57600080fd5b506105436110f2565b6040516105509190613a8b565b60405180910390f35b34801561056557600080fd5b50610580600480360381019061057b9190613876565b6111cb565b005b34801561058e57600080fd5b50610597611234565b005b3480156105a557600080fd5b506105ae61131f565b6040516105bb9190613b6b565b60405180910390f35b3480156105d057600080fd5b506105d96113ad565b6040516105e691906137f9565b60405180910390f35b3480156105fb57600080fd5b50610616600480360381019061061191906137b3565b6113bc565b604051610623919061382f565b60405180910390f35b34801561063857600080fd5b50610653600480360381019061064e9190613cc2565b6113dc565b6040516106609190613b6b565b60405180910390f35b34801561067557600080fd5b50610690600480360381019061068b9190613876565b61146c565b005b6106ac60048036038101906106a79190613cc2565b611559565b005b3480156106ba57600080fd5b506106d560048036038101906106d09190613876565b6115c4565b6040516106e291906137f9565b60405180910390f35b3480156106f757600080fd5b506107006115d7565b60405161070d91906137f9565b60405180910390f35b34801561072257600080fd5b5061072b6115e1565b60405161073891906137f9565b60405180910390f35b34801561074d57600080fd5b50610768600480360381019061076391906137b3565b6115eb565b604051610775919061382f565b60405180910390f35b34801561078a57600080fd5b506107a560048036038101906107a091906137b3565b61160b565b6040516107b291906137f9565b60405180910390f35b3480156107c757600080fd5b506107d0611623565b6040516107dd919061395d565b60405180910390f35b3480156107f257600080fd5b506107fb61165c565b60405161080891906137f9565b60405180910390f35b34801561081d57600080fd5b50610826611662565b60405161083391906137f9565b60405180910390f35b34801561084857600080fd5b50610863600480360381019061085e9190613876565b611668565b60405161087091906137f9565b60405180910390f35b34801561088557600080fd5b506108a0600480360381019061089b91906137b3565b61167b565b6040516108ad919061382f565b60405180910390f35b3480156108c257600080fd5b506108cb6116d1565b6040516108d89190613b6b565b60405180910390f35b3480156108ed57600080fd5b506108f661175f565b604051610903919061395d565b60405180910390f35b34801561091857600080fd5b50610921611798565b60405161092e919061395d565b60405180910390f35b34801561094357600080fd5b5061095e600480360381019061095991906137b3565b6117d1565b60405161096b91906137f9565b60405180910390f35b34801561098057600080fd5b506109896117e9565b60405161099691906137f9565b60405180910390f35b3480156109ab57600080fd5b506109b46117ef565b6040516109c191906137f9565b60405180910390f35b3480156109d657600080fd5b506109df6117f5565b6040516109ec91906137f9565b60405180910390f35b348015610a0157600080fd5b50610a0a611801565b604051610a1791906137f9565b60405180910390f35b348015610a2c57600080fd5b50610a476004803603810190610a429190613876565b61180b565b604051610a54919061395d565b60405180910390f35b348015610a6957600080fd5b50610a846004803603810190610a7f9190613876565b6118b7565b604051610a9191906137f9565b60405180910390f35b348015610aa657600080fd5b50610ac16004803603810190610abc91906137b3565b6118ca565b604051610ace91906137f9565b60405180910390f35b348015610ae357600080fd5b50610afe6004803603810190610af991906137b3565b6118e2565b604051610b0b919061382f565b60405180910390f35b348015610b2057600080fd5b50610b29611938565b604051610b3691906137f9565b60405180910390f35b348015610b4b57600080fd5b50610b54611942565b604051610b6191906137f9565b60405180910390f35b348015610b7657600080fd5b50610b7f61194c565b604051610b8c91906137f9565b60405180910390f35b348015610ba157600080fd5b50610baa611956565b604051610bb79190613b6b565b60405180910390f35b348015610bcc57600080fd5b50610be76004803603810190610be29190613876565b6119e4565b604051610bf491906138b2565b60405180910390f35b348015610c0957600080fd5b50610c12611a23565b604051610c1f91906137f9565b60405180910390f35b348015610c3457600080fd5b50610c4f6004803603810190610c4a91906137b3565b611a29565b604051610c5c919061382f565b60405180910390f35b348015610c7157600080fd5b50610c7a611a49565b604051610c8791906137f9565b60405180910390f35b348015610c9c57600080fd5b50610ca5611a4f565b604051610cb291906137f9565b60405180910390f35b348015610cc757600080fd5b50610cd0611a59565b604051610cdd9190613b6b565b60405180910390f35b348015610cf257600080fd5b50610d0d6004803603810190610d089190613876565b611ae7565b604051610d1a91906137f9565b60405180910390f35b348015610d2f57600080fd5b50610d38611afa565b604051610d4591906137f9565b60405180910390f35b348015610d5a57600080fd5b50610d756004803603810190610d7091906137b3565b611b04565b604051610d8291906137f9565b60405180910390f35b348015610d9757600080fd5b50610db26004803603810190610dad9190613876565b611b4d565b604051610dbf91906137f9565b60405180910390f35b348015610dd457600080fd5b50610def6004803603810190610dea9190613876565b611b60565b604051610dfc91906137f9565b60405180910390f35b348015610e1157600080fd5b50610e2c6004803603810190610e279190613876565b611b73565b604051610e3991906137f9565b60405180910390f35b348015610e4e57600080fd5b50610e696004803603810190610e6491906137b3565b611b86565b604051610e76919061382f565b60405180910390f35b348015610e8b57600080fd5b50610e94611bdc565b604051610ea191906137f9565b60405180910390f35b348015610eb657600080fd5b50610ebf611be2565b604051610ecc91906137f9565b60405180910390f35b348015610ee157600080fd5b50610efc6004803603810190610ef79190613876565b611bec565b604051610f0991906138b2565b60405180910390f35b348015610f1e57600080fd5b50610f27611c2b565b604051610f3491906137f9565b60405180910390f35b348015610f4957600080fd5b50610f646004803603810190610f5f9190613876565b611c31565b604051610f7191906138b2565b60405180910390f35b348015610f8657600080fd5b50610fa16004803603810190610f9c9190613876565b611c70565b604051610fae91906137f9565b60405180910390f35b60186020528060005260406000206000915090505481565b60176020528060005260406000206000915054906101000a900460ff1681565b60095481565b600d5481565b6010818154811061100b57600080fd5b906000526020600020016000915054906101000a900473ffffffffffffffffffffffffffffffffffffffff1681565b6006602052806000526040600020600091509050805461105990613d3a565b80601f016020809104026020016040519081016040528092919081815260200182805461108590613d3a565b80156110d25780601f106110a7576101008083540402835291602001916110d2565b820191906000526020600020905b8154815290600101906020018083116110b557829003601f168201915b505050505081565b60126020528060005260406000206000915090505481565b60606000805480602002602001604051908101604052809291908181526020016000905b828210156111c257838290600052602060002001805461113590613d3a565b80601f016020809104026020016040519081016040528092919081815260200182805461116190613d3a565b80156111ae5780601f10611183576101008083540402835291602001916111ae565b820191906000526020600020905b81548152906001019060200180831161119157829003601f168201915b505050505081526020019060010190611116565b50505050905090565b6111ea3373ffffffffffffffffffffffffffffffffffffffff16611c83565b1561122a576040517f08c379a000000000000000000000000000000000000000000000000000000000815260040161122190613db7565b60405180910390fd5b8060018190555050565b6112533373ffffffffffffffffffffffffffffffffffffffff16611c83565b15611293576040517f08c379a000000000000000000000000000000000000000000000000000000000815260040161128a90613db7565b60405180910390fd5b6000600460003373ffffffffffffffffffffffffffffffffffffffff1673ffffffffffffffffffffffffffffffffffffffff1681526020019081526020016000205411611315576040517f08c379a000000000000000000000000000000000000000000000000000000000815260040161130c90613e23565b60405180910390fd5b61131d611ca6565b565b606060138054806020026020016040519081016040528092919081815260200182805480156113a357602002820191906000526020600020905b8160009054906101000a900473ffffffffffffffffffffffffffffffffffffffff1673ffffffffffffffffffffffffffffffffffffffff1681526020019060010190808311611359575b5050505050905090565b60006113b7611e79565b905090565b60146020528060005260406000206000915054906101000a900460ff1681565b6060601080548060200260200160405190810160405280929190818152602001828054801561146057602002820191906000526020600020905b8160009054906101000a900473ffffffffffffffffffffffffffffffffffffffff1673ffffffffffffffffffffffffffffffffffffffff1681526020019060010190808311611416575b50505050509050919050565b61148b3373ffffffffffffffffffffffffffffffffffffffff16611c83565b156114cb576040517f08c379a00000000000000000000000000000000000000000000000000000000081526004016114c290613db7565b60405180910390fd5b6000600460003373ffffffffffffffffffffffffffffffffffffffff1673ffffffffffffffffffffffffffffffffffffffff168152602001908152602001600020541161154d576040517f08c379a000000000000000000000000000000000000000000000000000000000815260040161154490613e23565b60405180910390fd5b61155681611e9e565b50565b6115783373ffffffffffffffffffffffffffffffffffffffff16611c83565b156115b8576040517f08c379a00000000000000000000000000000000000000000000000000000000081526004016115af90613db7565b60405180910390fd5b6115c181612070565b50565b600081600b81905550600b549050919050565b6000600e54905090565b6000600a54905090565b60116020528060005260406000206000915054906101000a900460ff1681565b60046020528060005260406000206000915090505481565b6040518060400160405280600981526020017f73657175656e636572000000000000000000000000000000000000000000000081525081565b600a5481565b600f5481565b6000816008819055506008549050919050565b6000601760008373ffffffffffffffffffffffffffffffffffffffff1673ffffffffffffffffffffffffffffffffffffffff16815260200190815260200160002060009054906101000a900460ff169050919050565b6060601080548060200260200160405190810160405280929190818152602001828054801561175557602002820191906000526020600020905b8160009054906101000a900473ffffffffffffffffffffffffffffffffffffffff1673ffffffffffffffffffffffffffffffffffffffff168152602001906001019080831161170b575b5050505050905090565b6040518060400160405280600981526020017f76616c696461746f72000000000000000000000000000000000000000000000081525081565b6040518060400160405280600a81526020017f7761746368746f7765720000000000000000000000000000000000000000000081525081565b60156020528060005260406000206000915090505481565b60015481565b600e5481565b670de0b6b3a764000081565b6000600f54905090565b6000818154811061181b57600080fd5b90600052602060002001600091509050805461183690613d3a565b80601f016020809104026020016040519081016040528092919081815260200182805461186290613d3a565b80156118af5780601f10611884576101008083540402835291602001916118af565b820191906000526020600020905b81548152906001019060200180831161189257829003601f168201915b505050505081565b600081600a81905550600a549050919050565b60056020528060005260406000206000915090505481565b6000601160008373ffffffffffffffffffffffffffffffffffffffff1673ffffffffffffffffffffffffffffffffffffffff16815260200190815260200160002060009054906101000a900460ff169050919050565b6000600c54905090565b6000600854905090565b6000600d54905090565b606060168054806020026020016040519081016040528092919081815260200182805480156119da57602002820191906000526020600020905b8160009054906101000a900473ffffffffffffffffffffffffffffffffffffffff1673ffffffffffffffffffffffffffffffffffffffff1681526020019060010190808311611990575b5050505050905090565b601381815481106119f457600080fd5b906000526020600020016000915054906101000a900473ffffffffffffffffffffffffffffffffffffffff1681565b60085481565b60036020528060005260406000206000915054906101000a900460ff1681565b600b5481565b6000600954905090565b60606002805480602002602001604051908101604052809291908181526020018280548015611add57602002820191906000526020600020905b8160009054906101000a900473ffffffffffffffffffffffffffffffffffffffff1673ffffffffffffffffffffffffffffffffffffffff1681526020019060010190808311611a93575b5050505050905090565b600081600f81905550600f549050919050565b6000600754905090565b6000600460008373ffffffffffffffffffffffffffffffffffffffff1673ffffffffffffffffffffffffffffffffffffffff168152602001908152602001600020549050919050565b600081600c81905550600c549050919050565b600081600e81905550600e549050919050565b6000816009819055506009549050919050565b6000601460008373ffffffffffffffffffffffffffffffffffffffff1673ffffffffffffffffffffffffffffffffffffffff16815260200190815260200160002060009054906101000a900460ff169050919050565b60075481565b6000600b54905090565b60028181548110611bfc57600080fd5b906000526020600020016000915054906101000a900473ffffffffffffffffffffffffffffffffffffffff1681565b600c5481565b60168181548110611c4157600080fd5b906000526020600020016000915054906101000a900473ffffffffffffffffffffffffffffffffffffffff1681565b600081600d81905550600d549050919050565b6000808273ffffffffffffffffffffffffffffffffffffffff163b119050919050565b611caf33612318565b611cee576040517f08c379a0000000000000000000000000000000000000000000000000000000008152600401611ce590613edb565b60405180910390fd5b6000600460003373ffffffffffffffffffffffffffffffffffffffff1673ffffffffffffffffffffffffffffffffffffffff1681526020019081526020016000205490506000600460003373ffffffffffffffffffffffffffffffffffffffff1673ffffffffffffffffffffffffffffffffffffffff168152602001908152602001600020819055508060076000828254611d899190613f2a565b92505081905550611d993361236e565b611da23361266d565b15611db157611db0336126c3565b5b611dba33612979565b15611dc957611dc8336129cf565b5b611dd233612c85565b15611de157611de033612cdb565b5b3373ffffffffffffffffffffffffffffffffffffffff166108fc829081150290604051600060405180830381858888f19350505050158015611e27573d6000803e3d6000fd5b503373ffffffffffffffffffffffffffffffffffffffff167f0f5bb82176feb1b5e747e28471aa92156a04d9f3ab9f45f28e2d704232b93f7582604051611e6e91906137f9565b60405180910390a250565b6000806001541115611e8f576001549050611e9b565b670de0b6b3a764000090505b90565b6000600460003373ffffffffffffffffffffffffffffffffffffffff1673ffffffffffffffffffffffffffffffffffffffff16815260200190815260200160002054905060008203611f25576040517f08c379a0000000000000000000000000000000000000000000000000000000008152600401611f1c90613fd0565b60405180910390fd5b808210611f67576040517f08c379a0000000000000000000000000000000000000000000000000000000008152600401611f5e90614062565b60405180910390fd5b60008282611f759190613f2a565b905080600460003373ffffffffffffffffffffffffffffffffffffffff1673ffffffffffffffffffffffffffffffffffffffff168152602001908152602001600020819055508060076000828254611fcd9190613f2a565b925050819055503373ffffffffffffffffffffffffffffffffffffffff166108fc849081150290604051600060405180830381858888f1935050505015801561201a573d6000803e3d6000fd5b503373ffffffffffffffffffffffffffffffffffffffff167f45a371af55b0726877a30f464edc14db5879ab096590bacce682cf6c182235968285604051612063929190614082565b60405180910390a2505050565b61207981612f91565b8061208957506120888161302e565b5b806120995750612098816130cb565b5b6120d8576040517f08c379a00000000000000000000000000000000000000000000000000000000081526004016120cf9061411d565b60405180910390fd5b6120e0611e79565b341015612122576040517f08c379a0000000000000000000000000000000000000000000000000000000008152600401612119906141d5565b60405180910390fd5b61212c3382613168565b61216b576040517f08c379a000000000000000000000000000000000000000000000000000000000815260040161216290614267565b60405180910390fd5b61217533826131e1565b6121b4576040517f08c379a00000000000000000000000000000000000000000000000000000000081526004016121ab906142f9565b60405180910390fd5b6121be338261325a565b6121fd576040517f08c379a00000000000000000000000000000000000000000000000000000000081526004016121f49061438b565b60405180910390fd5b346007600082825461220f91906143ab565b9250508190555034600460003373ffffffffffffffffffffffffffffffffffffffff1673ffffffffffffffffffffffffffffffffffffffff168152602001908152602001600020600082825461226591906143ab565b92505081905550612275336132d3565b61227e81612f91565b156122915761228c3361342c565b6122c7565b61229a8161302e565b156122ad576122a833613533565b6122c6565b6122b6816130cb565b156122c5576122c43361363a565b5b5b5b3373ffffffffffffffffffffffffffffffffffffffff167f9e71bc8eea02a63969f509818f2dafb9254532904319f9dbda79b67bd34a5f3d3460405161230d91906137f9565b60405180910390a250565b6000600360008373ffffffffffffffffffffffffffffffffffffffff1673ffffffffffffffffffffffffffffffffffffffff16815260200190815260200160002060009054906101000a900460ff169050919050565b600854600280549050116123b7576040517f08c379a00000000000000000000000000000000000000000000000000000000081526004016123ae90614477565b60405180910390fd5b600280549050600560008373ffffffffffffffffffffffffffffffffffffffff1673ffffffffffffffffffffffffffffffffffffffff168152602001908152602001600020541061243d576040517f08c379a000000000000000000000000000000000000000000000000000000000815260040161243490614509565b60405180910390fd5b6000600560008373ffffffffffffffffffffffffffffffffffffffff1673ffffffffffffffffffffffffffffffffffffffff168152602001908152602001600020549050600060016002805490506124959190613f2a565b9050808214612584576000600282815481106124b4576124b3614529565b5b9060005260206000200160009054906101000a900473ffffffffffffffffffffffffffffffffffffffff16905080600284815481106124f6576124f5614529565b5b9060005260206000200160006101000a81548173ffffffffffffffffffffffffffffffffffffffff021916908373ffffffffffffffffffffffffffffffffffffffff16021790555082600560008373ffffffffffffffffffffffffffffffffffffffff1673ffffffffffffffffffffffffffffffffffffffff16815260200190815260200160002081905550505b6000600360008573ffffffffffffffffffffffffffffffffffffffff1673ffffffffffffffffffffffffffffffffffffffff16815260200190815260200160002060006101000a81548160ff0219169083151502179055506000600560008573ffffffffffffffffffffffffffffffffffffffff1673ffffffffffffffffffffffffffffffffffffffff16815260200190815260200160002081905550600280548061263357612632614558565b5b6001900381819060005260206000200160006101000a81549073ffffffffffffffffffffffffffffffffffffffff02191690559055505050565b6000601160008373ffffffffffffffffffffffffffffffffffffffff1673ffffffffffffffffffffffffffffffffffffffff16815260200190815260200160002060009054906101000a900460ff169050919050565b601080549050601260008373ffffffffffffffffffffffffffffffffffffffff1673ffffffffffffffffffffffffffffffffffffffff1681526020019081526020016000205410612749576040517f08c379a0000000000000000000000000000000000000000000000000000000008152600401612740906145f9565b60405180910390fd5b6000601260008373ffffffffffffffffffffffffffffffffffffffff1673ffffffffffffffffffffffffffffffffffffffff168152602001908152602001600020549050600060016010805490506127a19190613f2a565b9050808214612890576000601082815481106127c0576127bf614529565b5b9060005260206000200160009054906101000a900473ffffffffffffffffffffffffffffffffffffffff169050806010848154811061280257612801614529565b5b9060005260206000200160006101000a81548173ffffffffffffffffffffffffffffffffffffffff021916908373ffffffffffffffffffffffffffffffffffffffff16021790555082601260008373ffffffffffffffffffffffffffffffffffffffff1673ffffffffffffffffffffffffffffffffffffffff16815260200190815260200160002081905550505b6000601160008573ffffffffffffffffffffffffffffffffffffffff1673ffffffffffffffffffffffffffffffffffffffff16815260200190815260200160002060006101000a81548160ff0219169083151502179055506000601260008573ffffffffffffffffffffffffffffffffffffffff1673ffffffffffffffffffffffffffffffffffffffff16815260200190815260200160002081905550601080548061293f5761293e614558565b5b6001900381819060005260206000200160006101000a81549073ffffffffffffffffffffffffffffffffffffffff02191690559055505050565b6000601460008373ffffffffffffffffffffffffffffffffffffffff1673ffffffffffffffffffffffffffffffffffffffff16815260200190815260200160002060009054906101000a900460ff169050919050565b601380549050601560008373ffffffffffffffffffffffffffffffffffffffff1673ffffffffffffffffffffffffffffffffffffffff1681526020019081526020016000205410612a55576040517f08c379a0000000000000000000000000000000000000000000000000000000008152600401612a4c9061468b565b60405180910390fd5b6000601560008373ffffffffffffffffffffffffffffffffffffffff1673ffffffffffffffffffffffffffffffffffffffff16815260200190815260200160002054905060006001601380549050612aad9190613f2a565b9050808214612b9c57600060138281548110612acc57612acb614529565b5b9060005260206000200160009054906101000a900473ffffffffffffffffffffffffffffffffffffffff1690508060138481548110612b0e57612b0d614529565b5b9060005260206000200160006101000a81548173ffffffffffffffffffffffffffffffffffffffff021916908373ffffffffffffffffffffffffffffffffffffffff16021790555082601560008373ffffffffffffffffffffffffffffffffffffffff1673ffffffffffffffffffffffffffffffffffffffff16815260200190815260200160002081905550505b6000601460008573ffffffffffffffffffffffffffffffffffffffff1673ffffffffffffffffffffffffffffffffffffffff16815260200190815260200160002060006101000a81548160ff0219169083151502179055506000601560008573ffffffffffffffffffffffffffffffffffffffff1673ffffffffffffffffffffffffffffffffffffffff168152602001908152602001600020819055506013805480612c4b57612c4a614558565b5b6001900381819060005260206000200160006101000a81549073ffffffffffffffffffffffffffffffffffffffff02191690559055505050565b6000601760008373ffffffffffffffffffffffffffffffffffffffff1673ffffffffffffffffffffffffffffffffffffffff16815260200190815260200160002060009054906101000a900460ff169050919050565b601680549050601860008373ffffffffffffffffffffffffffffffffffffffff1673ffffffffffffffffffffffffffffffffffffffff1681526020019081526020016000205410612d61576040517f08c379a0000000000000000000000000000000000000000000000000000000008152600401612d589061471d565b60405180910390fd5b6000601860008373ffffffffffffffffffffffffffffffffffffffff1673ffffffffffffffffffffffffffffffffffffffff16815260200190815260200160002054905060006001601680549050612db99190613f2a565b9050808214612ea857600060168281548110612dd857612dd7614529565b5b9060005260206000200160009054906101000a900473ffffffffffffffffffffffffffffffffffffffff1690508060168481548110612e1a57612e19614529565b5b9060005260206000200160006101000a81548173ffffffffffffffffffffffffffffffffffffffff021916908373ffffffffffffffffffffffffffffffffffffffff16021790555082601860008373ffffffffffffffffffffffffffffffffffffffff1673ffffffffffffffffffffffffffffffffffffffff16815260200190815260200160002081905550505b6000601760008573ffffffffffffffffffffffffffffffffffffffff1673ffffffffffffffffffffffffffffffffffffffff16815260200190815260200160002060006101000a81548160ff0219169083151502179055506000601860008573ffffffffffffffffffffffffffffffffffffffff1673ffffffffffffffffffffffffffffffffffffffff168152602001908152602001600020819055506016805480612f5757612f56614558565b5b6001900381819060005260206000200160006101000a81549073ffffffffffffffffffffffffffffffffffffffff02191690559055505050565b600081604051602001612fa49190614779565b604051602081830303815290604052805190602001206040518060400160405280600981526020017f73657175656e63657200000000000000000000000000000000000000000000008152506040516020016130009190614779565b60405160208183030381529060405280519060200120036130245760019050613029565b600090505b919050565b6000816040516020016130419190614779565b604051602081830303815290604052805190602001206040518060400160405280600a81526020017f7761746368746f7765720000000000000000000000000000000000000000000081525060405160200161309d9190614779565b60405160208183030381529060405280519060200120036130c157600190506130c6565b600090505b919050565b6000816040516020016130de9190614779565b604051602081830303815290604052805190602001206040518060400160405280600981526020017f76616c696461746f72000000000000000000000000000000000000000000000081525060405160200161313a9190614779565b604051602081830303815290604052805190602001200361315e5760019050613163565b600090505b919050565b600061317382612f91565b80156131c85750601160008473ffffffffffffffffffffffffffffffffffffffff1673ffffffffffffffffffffffffffffffffffffffff16815260200190815260200160002060009054906101000a900460ff165b156131d657600090506131db565b600190505b92915050565b60006131ec8261302e565b80156132415750601460008473ffffffffffffffffffffffffffffffffffffffff1673ffffffffffffffffffffffffffffffffffffffff16815260200190815260200160002060009054906101000a900460ff165b1561324f5760009050613254565b600190505b92915050565b6000613265826130cb565b80156132ba5750601760008473ffffffffffffffffffffffffffffffffffffffff1673ffffffffffffffffffffffffffffffffffffffff16815260200190815260200160002060009054906101000a900460ff165b156132c857600090506132cd565b600190505b92915050565b600360008273ffffffffffffffffffffffffffffffffffffffff1673ffffffffffffffffffffffffffffffffffffffff16815260200190815260200160002060009054906101000a900460ff16613429576001600360008373ffffffffffffffffffffffffffffffffffffffff1673ffffffffffffffffffffffffffffffffffffffff16815260200190815260200160002060006101000a81548160ff021916908315150217905550600280549050600560008373ffffffffffffffffffffffffffffffffffffffff1673ffffffffffffffffffffffffffffffffffffffff168152602001908152602001600020819055506002819080600181540180825580915050600190039060005260206000200160009091909190916101000a81548173ffffffffffffffffffffffffffffffffffffffff021916908373ffffffffffffffffffffffffffffffffffffffff1602179055505b50565b6001601160008373ffffffffffffffffffffffffffffffffffffffff1673ffffffffffffffffffffffffffffffffffffffff16815260200190815260200160002060006101000a81548160ff021916908315150217905550601080549050601260008373ffffffffffffffffffffffffffffffffffffffff1673ffffffffffffffffffffffffffffffffffffffff168152602001908152602001600020819055506010819080600181540180825580915050600190039060005260206000200160009091909190916101000a81548173ffffffffffffffffffffffffffffffffffffffff021916908373ffffffffffffffffffffffffffffffffffffffff16021790555050565b6001601460008373ffffffffffffffffffffffffffffffffffffffff1673ffffffffffffffffffffffffffffffffffffffff16815260200190815260200160002060006101000a81548160ff021916908315150217905550601380549050601560008373ffffffffffffffffffffffffffffffffffffffff1673ffffffffffffffffffffffffffffffffffffffff168152602001908152602001600020819055506013819080600181540180825580915050600190039060005260206000200160009091909190916101000a81548173ffffffffffffffffffffffffffffffffffffffff021916908373ffffffffffffffffffffffffffffffffffffffff16021790555050565b6001601760008373ffffffffffffffffffffffffffffffffffffffff1673ffffffffffffffffffffffffffffffffffffffff16815260200190815260200160002060006101000a81548160ff021916908315150217905550601680549050601860008373ffffffffffffffffffffffffffffffffffffffff1673ffffffffffffffffffffffffffffffffffffffff168152602001908152602001600020819055506016819080600181540180825580915050600190039060005260206000200160009091909190916101000a81548173ffffffffffffffffffffffffffffffffffffffff021916908373ffffffffffffffffffffffffffffffffffffffff16021790555050565b6000604051905090565b600080fd5b600080fd5b600073ffffffffffffffffffffffffffffffffffffffff82169050919050565b600061378082613755565b9050919050565b61379081613775565b811461379b57600080fd5b50565b6000813590506137ad81613787565b92915050565b6000602082840312156137c9576137c861374b565b5b60006137d78482850161379e565b91505092915050565b6000819050919050565b6137f3816137e0565b82525050565b600060208201905061380e60008301846137ea565b92915050565b60008115159050919050565b61382981613814565b82525050565b60006020820190506138446000830184613820565b92915050565b613853816137e0565b811461385e57600080fd5b50565b6000813590506138708161384a565b92915050565b60006020828403121561388c5761388b61374b565b5b600061389a84828501613861565b91505092915050565b6138ac81613775565b82525050565b60006020820190506138c760008301846138a3565b92915050565b600081519050919050565b600082825260208201905092915050565b60005b838110156139075780820151818401526020810190506138ec565b60008484015250505050565b6000601f19601f8301169050919050565b600061392f826138cd565b61393981856138d8565b93506139498185602086016138e9565b61395281613913565b840191505092915050565b600060208201905081810360008301526139778184613924565b905092915050565b600081519050919050565b600082825260208201905092915050565b6000819050602082019050919050565b600082825260208201905092915050565b60006139c7826138cd565b6139d181856139ab565b93506139e18185602086016138e9565b6139ea81613913565b840191505092915050565b6000613a0183836139bc565b905092915050565b6000602082019050919050565b6000613a218261397f565b613a2b818561398a565b935083602082028501613a3d8561399b565b8060005b85811015613a795784840389528151613a5a85826139f5565b9450613a6583613a09565b925060208a01995050600181019050613a41565b50829750879550505050505092915050565b60006020820190508181036000830152613aa58184613a16565b905092915050565b600081519050919050565b600082825260208201905092915050565b6000819050602082019050919050565b613ae281613775565b82525050565b6000613af48383613ad9565b60208301905092915050565b6000602082019050919050565b6000613b1882613aad565b613b228185613ab8565b9350613b2d83613ac9565b8060005b83811015613b5e578151613b458882613ae8565b9750613b5083613b00565b925050600181019050613b31565b5085935050505092915050565b60006020820190508181036000830152613b858184613b0d565b905092915050565b600080fd5b600080fd5b7f4e487b7100000000000000000000000000000000000000000000000000000000600052604160045260246000fd5b613bcf82613913565b810181811067ffffffffffffffff82111715613bee57613bed613b97565b5b80604052505050565b6000613c01613741565b9050613c0d8282613bc6565b919050565b600067ffffffffffffffff821115613c2d57613c2c613b97565b5b613c3682613913565b9050602081019050919050565b82818337600083830152505050565b6000613c65613c6084613c12565b613bf7565b905082815260208101848484011115613c8157613c80613b92565b5b613c8c848285613c43565b509392505050565b600082601f830112613ca957613ca8613b8d565b5b8135613cb9848260208601613c52565b91505092915050565b600060208284031215613cd857613cd761374b565b5b600082013567ffffffffffffffff811115613cf657613cf5613750565b5b613d0284828501613c94565b91505092915050565b7f4e487b7100000000000000000000000000000000000000000000000000000000600052602260045260246000fd5b60006002820490506001821680613d5257607f821691505b602082108103613d6557613d64613d0b565b5b50919050565b7f4f6e6c7920454f412063616e2063616c6c2066756e6374696f6e000000000000600082015250565b6000613da1601a836138d8565b9150613dac82613d6b565b602082019050919050565b60006020820190508181036000830152613dd081613d94565b9050919050565b7f4f6e6c79207374616b65722063616e2063616c6c2066756e6374696f6e000000600082015250565b6000613e0d601d836138d8565b9150613e1882613dd7565b602082019050919050565b60006020820190508181036000830152613e3c81613e00565b9050919050565b7f53656e6465722068617320746f2062652070617274206f66207374616b696e6760008201527f20706f6c6c20696e206f7264657220746f20756e7374616b652069747320736860208201527f6172652e20556e7374616b652072656a65637465642e00000000000000000000604082015250565b6000613ec56056836138d8565b9150613ed082613e43565b606082019050919050565b60006020820190508181036000830152613ef481613eb8565b9050919050565b7f4e487b7100000000000000000000000000000000000000000000000000000000600052601160045260246000fd5b6000613f35826137e0565b9150613f40836137e0565b9250828203905081811115613f5857613f57613efb565b5b92915050565b7f536c61736820616d6f756e74206e6565647320746f2062652070726f7669646560008201527f642e000000000000000000000000000000000000000000000000000000000000602082015250565b6000613fba6022836138d8565b9150613fc582613f5e565b604082019050919050565b60006020820190508181036000830152613fe981613fad565b9050919050565b7f536c61736820616d6f756e742063616e6e6f742062652067726561746572207460008201527f68616e207374616b656420616d6f756e74000000000000000000000000000000602082015250565b600061404c6031836138d8565b915061405782613ff0565b604082019050919050565b6000602082019050818103600083015261407b8161403f565b9050919050565b600060408201905061409760008301856137ea565b6140a460208301846137ea565b9392505050565b7f50726f7669646564206e6f646520747970652068617320746f206d617463682060008201527f617661696c61626c65206e6f6465207479706573000000000000000000000000602082015250565b60006141076034836138d8565b9150614112826140ab565b604082019050919050565b60006020820190508181036000830152614136816140fa565b9050919050565b7f496e737566696369656e74207374616b696e6720616d6f756e742070726f766960008201527f6465642e2048617320746f206265206c6172676572207468616e207374616b6960208201527f6e67206d696e696d756d207468726573686f6c64000000000000000000000000604082015250565b60006141bf6054836138d8565b91506141ca8261413d565b606082019050919050565b600060208201905081810360008301526141ee816141b2565b9050919050565b7f53656e64657220697320616c72656164792073657175656e6365722e2052656a60008201527f656374696e67207374616b6520726571756573742e0000000000000000000000602082015250565b60006142516035836138d8565b915061425c826141f5565b604082019050919050565b6000602082019050818103600083015261428081614244565b9050919050565b7f53656e64657220697320616c7265616479207761746368746f7765722e20526560008201527f6a656374696e67207374616b6520726571756573742e00000000000000000000602082015250565b60006142e36036836138d8565b91506142ee82614287565b604082019050919050565b60006020820190508181036000830152614312816142d6565b9050919050565b7f53656e64657220697320616c72656164792076616c696461746f722e2052656a60008201527f656374696e67207374616b6520726571756573742e0000000000000000000000602082015250565b60006143756035836138d8565b915061438082614319565b604082019050919050565b600060208201905081810360008301526143a481614368565b9050919050565b60006143b6826137e0565b91506143c1836137e0565b92508282019050808211156143d9576143d8613efb565b5b92915050565b7f5374616b696e67207061727469636970616e74732063616e2774206265206c6560008201527f7373207468616e20746865206d696e696d756d2072657175697265642070617260208201527f7469636970616e74206e756d0000000000000000000000000000000000000000604082015250565b6000614461604c836138d8565b915061446c826143df565b606082019050919050565b6000602082019050818103600083015261449081614454565b9050919050565b7f7061727469636970616e7420696e646578206f7574206f662072616e6765206960008201527f6e206d617070696e670000000000000000000000000000000000000000000000602082015250565b60006144f36029836138d8565b91506144fe82614497565b604082019050919050565b60006020820190508181036000830152614522816144e6565b9050919050565b7f4e487b7100000000000000000000000000000000000000000000000000000000600052603260045260246000fd5b7f4e487b7100000000000000000000000000000000000000000000000000000000600052603160045260246000fd5b7f73657175656e63657220696e646578206f7574206f662072616e676520696e2060008201527f6d617070696e6700000000000000000000000000000000000000000000000000602082015250565b60006145e36027836138d8565b91506145ee82614587565b604082019050919050565b60006020820190508181036000830152614612816145d6565b9050919050565b7f7761746368746f77657220696e646578206f7574206f662072616e676520696e60008201527f206d617070696e67000000000000000000000000000000000000000000000000602082015250565b60006146756028836138d8565b915061468082614619565b604082019050919050565b600060208201905081810360008301526146a481614668565b9050919050565b7f76616c696461746f7220696e646578206f7574206f662072616e676520696e2060008201527f6d617070696e6700000000000000000000000000000000000000000000000000602082015250565b60006147076027836138d8565b9150614712826146ab565b604082019050919050565b60006020820190508181036000830152614736816146fa565b9050919050565b600081905092915050565b6000614753826138cd565b61475d818561473d565b935061476d8185602086016138e9565b80840191505092915050565b60006147858284614748565b91508190509291505056fea26469706673582212201d6953aac0b71bdc7f7998dcd4d39bb443f6ff56f898deea774eda83a4a3d18764736f6c63430008110033",
  "linkReferences": {},
  "deployedLinkReferences": {}
}