{
  "_format": "hh-sol-artifact-1",
  "contractName": "Staking",
  "sourceName": "contracts/Staking.sol",
  "abi": [
    {
      "inputs": [
        {
          "internalType": "uint256",
          "name": "minNumParticipants",
          "type": "uint256"
        },
        {
          "internalType": "uint256",
          "name": "maxNumParticipants",
          "type": "uint256"
        }
      ],
      "stateMutability": "nonpayable",
      "type": "constructor"
    },
    {
      "anonymous": false,
      "inputs": [
        {
          "indexed": true,
          "internalType": "address",
          "name": "account",
          "type": "address"
        },
        {
          "indexed": false,
          "internalType": "uint256",
          "name": "newAmount",
          "type": "uint256"
        },
        {
          "indexed": false,
          "internalType": "uint256",
          "name": "slashedAmount",
          "type": "uint256"
        }
      ],
      "name": "Slashed",
      "type": "event"
    },
    {
      "anonymous": false,
      "inputs": [
        {
          "indexed": true,
          "internalType": "address",
          "name": "account",
          "type": "address"
        },
        {
          "indexed": false,
          "internalType": "uint256",
          "name": "amount",
          "type": "uint256"
        }
      ],
      "name": "Staked",
      "type": "event"
    },
    {
      "anonymous": false,
      "inputs": [
        {
          "indexed": true,
          "internalType": "address",
          "name": "account",
          "type": "address"
        },
        {
          "indexed": false,
          "internalType": "uint256",
          "name": "amount",
          "type": "uint256"
        }
      ],
      "name": "Unstaked",
      "type": "event"
    },
    {
      "inputs": [
        {
          "internalType": "uint256",
          "name": "",
          "type": "uint256"
        }
      ],
      "name": "AVAILABLE_NODE_TYPES",
      "outputs": [
        {
          "internalType": "string",
          "name": "",
          "type": "string"
        }
      ],
      "stateMutability": "view",
      "type": "function"
    },
    {
      "inputs": [],
      "name": "DEFAULT_STAKING_THRESHOLD",
      "outputs": [
        {
          "internalType": "uint256",
          "name": "",
          "type": "uint256"
        }
      ],
      "stateMutability": "view",
      "type": "function"
    },
    {
      "inputs": [],
      "name": "GetAvailableNodeTypes",
      "outputs": [
        {
          "internalType": "string[]",
          "name": "",
          "type": "string[]"
        }
      ],
      "stateMutability": "view",
      "type": "function"
    },
    {
      "inputs": [
        {
          "internalType": "address",
          "name": "addr",
          "type": "address"
        }
      ],
      "name": "GetCurrentAccountStakedAmount",
      "outputs": [
        {
          "internalType": "uint256",
          "name": "",
          "type": "uint256"
        }
      ],
      "stateMutability": "view",
      "type": "function"
    },
    {
      "inputs": [],
      "name": "GetCurrentParticipants",
      "outputs": [
        {
          "internalType": "address[]",
          "name": "",
          "type": "address[]"
        }
      ],
      "stateMutability": "view",
      "type": "function"
    },
    {
      "inputs": [],
      "name": "GetCurrentSequencers",
      "outputs": [
        {
          "internalType": "address[]",
          "name": "",
          "type": "address[]"
        }
      ],
      "stateMutability": "view",
      "type": "function"
    },
    {
      "inputs": [],
      "name": "GetCurrentStakedAmount",
      "outputs": [
        {
          "internalType": "uint256",
          "name": "",
          "type": "uint256"
        }
      ],
      "stateMutability": "view",
      "type": "function"
    },
    {
      "inputs": [],
      "name": "GetCurrentStakingThreshold",
      "outputs": [
        {
          "internalType": "uint256",
          "name": "",
          "type": "uint256"
        }
      ],
      "stateMutability": "view",
      "type": "function"
    },
    {
      "inputs": [],
      "name": "GetCurrentValidators",
      "outputs": [
        {
          "internalType": "address[]",
          "name": "",
          "type": "address[]"
        }
      ],
      "stateMutability": "view",
      "type": "function"
    },
    {
      "inputs": [],
      "name": "GetCurrentWatchtowers",
      "outputs": [
        {
          "internalType": "address[]",
          "name": "",
          "type": "address[]"
        }
      ],
      "stateMutability": "view",
      "type": "function"
    },
    {
      "inputs": [],
      "name": "GetMaxNumParticipants",
      "outputs": [
        {
          "internalType": "uint256",
          "name": "",
          "type": "uint256"
        }
      ],
      "stateMutability": "view",
      "type": "function"
    },
    {
      "inputs": [],
      "name": "GetMinNumParticipants",
      "outputs": [
        {
          "internalType": "uint256",
          "name": "",
          "type": "uint256"
        }
      ],
      "stateMutability": "view",
      "type": "function"
    },
    {
      "inputs": [
        {
          "internalType": "address",
          "name": "addr",
          "type": "address"
        }
      ],
      "name": "IsSequencer",
      "outputs": [
        {
          "internalType": "bool",
          "name": "",
          "type": "bool"
        }
      ],
      "stateMutability": "view",
      "type": "function"
    },
    {
      "inputs": [
        {
          "internalType": "address",
          "name": "addr",
          "type": "address"
        }
      ],
      "name": "IsValidator",
      "outputs": [
        {
          "internalType": "bool",
          "name": "",
          "type": "bool"
        }
      ],
      "stateMutability": "view",
      "type": "function"
    },
    {
      "inputs": [
        {
          "internalType": "address",
          "name": "addr",
          "type": "address"
        }
      ],
      "name": "IsWatchtower",
      "outputs": [
        {
          "internalType": "bool",
          "name": "",
          "type": "bool"
        }
      ],
      "stateMutability": "view",
      "type": "function"
    },
    {
      "inputs": [],
      "name": "NODE_SEQUENCER",
      "outputs": [
        {
          "internalType": "string",
          "name": "",
          "type": "string"
        }
      ],
      "stateMutability": "view",
      "type": "function"
    },
    {
      "inputs": [],
      "name": "NODE_VALIDATOR",
      "outputs": [
        {
          "internalType": "string",
          "name": "",
          "type": "string"
        }
      ],
      "stateMutability": "view",
      "type": "function"
    },
    {
      "inputs": [],
      "name": "NODE_WATCHTOWER",
      "outputs": [
        {
          "internalType": "string",
          "name": "",
          "type": "string"
        }
      ],
      "stateMutability": "view",
      "type": "function"
    },
    {
      "inputs": [
        {
          "internalType": "uint256",
          "name": "newThreshold",
          "type": "uint256"
        }
      ],
      "name": "SetStakingMinThreshold",
      "outputs": [],
      "stateMutability": "nonpayable",
      "type": "function"
    },
    {
      "inputs": [
        {
          "internalType": "address",
          "name": "",
          "type": "address"
        }
      ],
      "name": "_addressToIsParticipant",
      "outputs": [
        {
          "internalType": "bool",
          "name": "",
          "type": "bool"
        }
      ],
      "stateMutability": "view",
      "type": "function"
    },
    {
      "inputs": [
        {
          "internalType": "address",
          "name": "",
          "type": "address"
        }
      ],
      "name": "_addressToIsSequencer",
      "outputs": [
        {
          "internalType": "bool",
          "name": "",
          "type": "bool"
        }
      ],
      "stateMutability": "view",
      "type": "function"
    },
    {
      "inputs": [
        {
          "internalType": "address",
          "name": "",
          "type": "address"
        }
      ],
      "name": "_addressToIsValidator",
      "outputs": [
        {
          "internalType": "bool",
          "name": "",
          "type": "bool"
        }
      ],
      "stateMutability": "view",
      "type": "function"
    },
    {
      "inputs": [
        {
          "internalType": "address",
          "name": "",
          "type": "address"
        }
      ],
      "name": "_addressToIsWatchtower",
      "outputs": [
        {
          "internalType": "bool",
          "name": "",
          "type": "bool"
        }
      ],
      "stateMutability": "view",
      "type": "function"
    },
    {
      "inputs": [
        {
          "internalType": "address",
          "name": "",
          "type": "address"
        }
      ],
      "name": "_addressToNodeType",
      "outputs": [
        {
          "internalType": "string",
          "name": "",
          "type": "string"
        }
      ],
      "stateMutability": "view",
      "type": "function"
    },
    {
      "inputs": [
        {
          "internalType": "address",
          "name": "",
          "type": "address"
        }
      ],
      "name": "_addressToParticipantIndex",
      "outputs": [
        {
          "internalType": "uint256",
          "name": "",
          "type": "uint256"
        }
      ],
      "stateMutability": "view",
      "type": "function"
    },
    {
      "inputs": [
        {
          "internalType": "address",
          "name": "",
          "type": "address"
        }
      ],
      "name": "_addressToSequencerIndex",
      "outputs": [
        {
          "internalType": "uint256",
          "name": "",
          "type": "uint256"
        }
      ],
      "stateMutability": "view",
      "type": "function"
    },
    {
      "inputs": [
        {
          "internalType": "address",
          "name": "",
          "type": "address"
        }
      ],
      "name": "_addressToStakedAmount",
      "outputs": [
        {
          "internalType": "uint256",
          "name": "",
          "type": "uint256"
        }
      ],
      "stateMutability": "view",
      "type": "function"
    },
    {
      "inputs": [
        {
          "internalType": "address",
          "name": "",
          "type": "address"
        }
      ],
      "name": "_addressToValidatorIndex",
      "outputs": [
        {
          "internalType": "uint256",
          "name": "",
          "type": "uint256"
        }
      ],
      "stateMutability": "view",
      "type": "function"
    },
    {
      "inputs": [
        {
          "internalType": "address",
          "name": "",
          "type": "address"
        }
      ],
      "name": "_addressToWatchtowerIndex",
      "outputs": [
        {
          "internalType": "uint256",
          "name": "",
          "type": "uint256"
        }
      ],
      "stateMutability": "view",
      "type": "function"
    },
    {
      "inputs": [],
      "name": "_maximumNumParticipants",
      "outputs": [
        {
          "internalType": "uint256",
          "name": "",
          "type": "uint256"
        }
      ],
      "stateMutability": "view",
      "type": "function"
    },
    {
      "inputs": [],
      "name": "_minStakingThreshold",
      "outputs": [
        {
          "internalType": "uint256",
          "name": "",
          "type": "uint256"
        }
      ],
      "stateMutability": "view",
      "type": "function"
    },
    {
      "inputs": [],
      "name": "_minimumNumParticipants",
      "outputs": [
        {
          "internalType": "uint256",
          "name": "",
          "type": "uint256"
        }
      ],
      "stateMutability": "view",
      "type": "function"
    },
    {
      "inputs": [
        {
          "internalType": "uint256",
          "name": "",
          "type": "uint256"
        }
      ],
      "name": "_participants",
      "outputs": [
        {
          "internalType": "address",
          "name": "",
          "type": "address"
        }
      ],
      "stateMutability": "view",
      "type": "function"
    },
    {
      "inputs": [
        {
          "internalType": "uint256",
          "name": "",
          "type": "uint256"
        }
      ],
      "name": "_sequencers",
      "outputs": [
        {
          "internalType": "address",
          "name": "",
          "type": "address"
        }
      ],
      "stateMutability": "view",
      "type": "function"
    },
    {
      "inputs": [],
      "name": "_stakedAmount",
      "outputs": [
        {
          "internalType": "uint256",
          "name": "",
          "type": "uint256"
        }
      ],
      "stateMutability": "view",
      "type": "function"
    },
    {
      "inputs": [
        {
          "internalType": "uint256",
          "name": "",
          "type": "uint256"
        }
      ],
      "name": "_validators",
      "outputs": [
        {
          "internalType": "address",
          "name": "",
          "type": "address"
        }
      ],
      "stateMutability": "view",
      "type": "function"
    },
    {
      "inputs": [
        {
          "internalType": "uint256",
          "name": "",
          "type": "uint256"
        }
      ],
      "name": "_watchtowers",
      "outputs": [
        {
          "internalType": "address",
          "name": "",
          "type": "address"
        }
      ],
      "stateMutability": "view",
      "type": "function"
    },
    {
      "inputs": [
        {
          "internalType": "uint256",
          "name": "slashAmount",
          "type": "uint256"
        }
      ],
      "name": "slash",
      "outputs": [],
      "stateMutability": "nonpayable",
      "type": "function"
    },
    {
      "inputs": [
        {
          "internalType": "string",
          "name": "nodeType",
          "type": "string"
        }
      ],
      "name": "stake",
      "outputs": [],
      "stateMutability": "payable",
      "type": "function"
    },
    {
      "inputs": [],
      "name": "unstake",
      "outputs": [],
      "stateMutability": "nonpayable",
      "type": "function"
    }
  ],
  "bytecode": "0x608060405260405180606001604052806040518060400160405280600981526020017f73657175656e636572000000000000000000000000000000000000000000000081525081526020016040518060400160405280600a81526020017f7761746368746f7765720000000000000000000000000000000000000000000081525081526020016040518060400160405280600981526020017f76616c696461746f7200000000000000000000000000000000000000000000008152508152506000906003620000d092919062000160565b50348015620000de57600080fd5b50604051620045dc380380620045dc83398181016040528101906200010491906200028d565b808211156200014a576040517f08c379a0000000000000000000000000000000000000000000000000000000008152600401620001419062000381565b60405180910390fd5b81600881905550806009819055505050620006fa565b828054828255906000526020600020908101928215620001ad579160200282015b82811115620001ac5782518290816200019b919062000613565b509160200191906001019062000181565b5b509050620001bc9190620001c0565b5090565b5b80821115620001e45760008181620001da9190620001e8565b50600101620001c1565b5090565b508054620001f6906200040c565b6000825580601f106200020a57506200022b565b601f0160209004906000526020600020908101906200022a91906200022e565b5b50565b5b80821115620002495760008160009055506001016200022f565b5090565b600080fd5b6000819050919050565b620002678162000252565b81146200027357600080fd5b50565b60008151905062000287816200025c565b92915050565b60008060408385031215620002a757620002a66200024d565b5b6000620002b78582860162000276565b9250506020620002ca8582860162000276565b9150509250929050565b600082825260208201905092915050565b7f4d696e207061727469636970616e7473206e756d6265722063616e206e6f742060008201527f62652067726561746572207468616e206d6178206e756d206f6620706172746960208201527f636970616e747300000000000000000000000000000000000000000000000000604082015250565b600062000369604783620002d4565b91506200037682620002e5565b606082019050919050565b600060208201905081810360008301526200039c816200035a565b9050919050565b600081519050919050565b7f4e487b7100000000000000000000000000000000000000000000000000000000600052604160045260246000fd5b7f4e487b7100000000000000000000000000000000000000000000000000000000600052602260045260246000fd5b600060028204905060018216806200042557607f821691505b6020821081036200043b576200043a620003dd565b5b50919050565b60008190508160005260206000209050919050565b60006020601f8301049050919050565b600082821b905092915050565b600060088302620004a57fffffffffffffffffffffffffffffffffffffffffffffffffffffffffffffffff8262000466565b620004b1868362000466565b95508019841693508086168417925050509392505050565b6000819050919050565b6000620004f4620004ee620004e88462000252565b620004c9565b62000252565b9050919050565b6000819050919050565b6200051083620004d3565b620005286200051f82620004fb565b84845462000473565b825550505050565b600090565b6200053f62000530565b6200054c81848462000505565b505050565b5b8181101562000574576200056860008262000535565b60018101905062000552565b5050565b601f821115620005c3576200058d8162000441565b620005988462000456565b81016020851015620005a8578190505b620005c0620005b78562000456565b83018262000551565b50505b505050565b600082821c905092915050565b6000620005e860001984600802620005c8565b1980831691505092915050565b6000620006038383620005d5565b9150826002028217905092915050565b6200061e82620003a3565b67ffffffffffffffff8111156200063a5762000639620003ae565b5b6200064682546200040c565b6200065382828562000578565b600060209050601f8311600181146200068b576000841562000676578287015190505b620006828582620005f5565b865550620006f2565b601f1984166200069b8662000441565b60005b82811015620006c5578489015182556001820191506020850194506020810190506200069e565b86831015620006e55784890151620006e1601f891682620005d5565b8355505b6001600288020188555050505b505050505050565b613ed2806200070a6000396000f3fe60806040526004361061023b5760003560e01c80639f9f71011161012e578063c6199c1f116100ab578063d79f10d21161006f578063d79f10d214610908578063e2b5769d14610945578063e387a7ed14610982578063f196f824146109ad578063f90ecacc146109ea5761023b565b8063c6199c1f1461081f578063c70966fb1461084a578063c8fa5fe914610887578063d1405517146108b2578063d3be81a8146108dd5761023b565b8063b8889f02116100f2578063b8889f0214610712578063bb5a26ff1461074f578063bfc5aeee1461078c578063c36352e1146107b7578063c48c5f37146107e25761023b565b80639f9f710114610617578063a0f14bff14610642578063a14501261461067f578063aff1ea76146106aa578063b41327ff146106d55761023b565b8063409b9ece116101bc5780637dceceb8116101805780637dceceb81461051c578063855598b71461055957806398ff822d1461058457806399a7c7e4146105c15780639a083e82146105ec5761023b565b8063409b9ece1461043257806340b007531461045d57806345bc4d101461049a57806346f45b8d146104c35780637b339263146104df5761023b565b80631cb9bdca116102035780631cb9bdca1461035f5780631f2743b61461039c5780632c404e9c146103c75780632def6620146103f05780633603da84146104075761023b565b806302b7519914610240578063065ae1711461027d578063068946e8146102ba57806319908df8146102e557806319ae676414610322575b600080fd5b34801561024c57600080fd5b506102676004803603810190610262919061309b565b610a27565b60405161027491906130e1565b60405180910390f35b34801561028957600080fd5b506102a4600480360381019061029f919061309b565b610a3f565b6040516102b19190613117565b60405180910390f35b3480156102c657600080fd5b506102cf610a5f565b6040516102dc91906130e1565b60405180910390f35b3480156102f157600080fd5b5061030c6004803603810190610307919061315e565b610a65565b604051610319919061319a565b60405180910390f35b34801561032e57600080fd5b506103496004803603810190610344919061309b565b610aa4565b6040516103569190613245565b60405180910390f35b34801561036b57600080fd5b506103866004803603810190610381919061309b565b610b44565b60405161039391906130e1565b60405180910390f35b3480156103a857600080fd5b506103b1610b5c565b6040516103be9190613373565b60405180910390f35b3480156103d357600080fd5b506103ee60048036038101906103e9919061315e565b610c35565b005b3480156103fc57600080fd5b50610405610c9e565b005b34801561041357600080fd5b5061041c610d89565b6040516104299190613453565b60405180910390f35b34801561043e57600080fd5b50610447610e17565b60405161045491906130e1565b60405180910390f35b34801561046957600080fd5b50610484600480360381019061047f919061309b565b610e26565b6040516104919190613117565b60405180910390f35b3480156104a657600080fd5b506104c160048036038101906104bc919061315e565b610e46565b005b6104dd60048036038101906104d891906135aa565b610f33565b005b3480156104eb57600080fd5b506105066004803603810190610501919061309b565b610f9e565b6040516105139190613117565b60405180910390f35b34801561052857600080fd5b50610543600480360381019061053e919061309b565b610fbe565b60405161055091906130e1565b60405180910390f35b34801561056557600080fd5b5061056e610fd6565b60405161057b9190613245565b60405180910390f35b34801561059057600080fd5b506105ab60048036038101906105a6919061309b565b61100f565b6040516105b89190613117565b60405180910390f35b3480156105cd57600080fd5b506105d6611065565b6040516105e39190613453565b60405180910390f35b3480156105f857600080fd5b506106016110f3565b60405161060e9190613245565b60405180910390f35b34801561062357600080fd5b5061062c61112c565b6040516106399190613245565b60405180910390f35b34801561064e57600080fd5b506106696004803603810190610664919061309b565b611165565b60405161067691906130e1565b60405180910390f35b34801561068b57600080fd5b5061069461117d565b6040516106a191906130e1565b60405180910390f35b3480156106b657600080fd5b506106bf611183565b6040516106cc91906130e1565b60405180910390f35b3480156106e157600080fd5b506106fc60048036038101906106f7919061315e565b61118f565b6040516107099190613245565b60405180910390f35b34801561071e57600080fd5b506107396004803603810190610734919061309b565b61123b565b60405161074691906130e1565b60405180910390f35b34801561075b57600080fd5b506107766004803603810190610771919061309b565b611253565b6040516107839190613117565b60405180910390f35b34801561079857600080fd5b506107a16112a9565b6040516107ae91906130e1565b60405180910390f35b3480156107c357600080fd5b506107cc6112b3565b6040516107d99190613453565b60405180910390f35b3480156107ee57600080fd5b506108096004803603810190610804919061315e565b611341565b604051610816919061319a565b60405180910390f35b34801561082b57600080fd5b50610834611380565b60405161084191906130e1565b60405180910390f35b34801561085657600080fd5b50610871600480360381019061086c919061309b565b611386565b60405161087e9190613117565b60405180910390f35b34801561089357600080fd5b5061089c6113a6565b6040516108a991906130e1565b60405180910390f35b3480156108be57600080fd5b506108c76113b0565b6040516108d49190613453565b60405180910390f35b3480156108e957600080fd5b506108f261143e565b6040516108ff91906130e1565b60405180910390f35b34801561091457600080fd5b5061092f600480360381019061092a919061309b565b611448565b60405161093c91906130e1565b60405180910390f35b34801561095157600080fd5b5061096c6004803603810190610967919061309b565b611491565b6040516109799190613117565b60405180910390f35b34801561098e57600080fd5b506109976114e7565b6040516109a491906130e1565b60405180910390f35b3480156109b957600080fd5b506109d460048036038101906109cf919061315e565b6114ed565b6040516109e1919061319a565b60405180910390f35b3480156109f657600080fd5b50610a116004803603810190610a0c919061315e565b61152c565b604051610a1e919061319a565b60405180910390f35b60126020528060005260406000206000915090505481565b60116020528060005260406000206000915054906101000a900460ff1681565b60095481565b600a8181548110610a7557600080fd5b906000526020600020016000915054906101000a900473ffffffffffffffffffffffffffffffffffffffff1681565b60066020528060005260406000206000915090508054610ac390613622565b80601f0160208091040260200160405190810160405280929190818152602001828054610aef90613622565b8015610b3c5780601f10610b1157610100808354040283529160200191610b3c565b820191906000526020600020905b815481529060010190602001808311610b1f57829003601f168201915b505050505081565b600c6020528060005260406000206000915090505481565b60606000805480602002602001604051908101604052809291908181526020016000905b82821015610c2c578382906000526020600020018054610b9f90613622565b80601f0160208091040260200160405190810160405280929190818152602001828054610bcb90613622565b8015610c185780601f10610bed57610100808354040283529160200191610c18565b820191906000526020600020905b815481529060010190602001808311610bfb57829003601f168201915b505050505081526020019060010190610b80565b50505050905090565b610c543373ffffffffffffffffffffffffffffffffffffffff1661156b565b15610c94576040517f08c379a0000000000000000000000000000000000000000000000000000000008152600401610c8b9061369f565b60405180910390fd5b8060018190555050565b610cbd3373ffffffffffffffffffffffffffffffffffffffff1661156b565b15610cfd576040517f08c379a0000000000000000000000000000000000000000000000000000000008152600401610cf49061369f565b60405180910390fd5b6000600460003373ffffffffffffffffffffffffffffffffffffffff1673ffffffffffffffffffffffffffffffffffffffff1681526020019081526020016000205411610d7f576040517f08c379a0000000000000000000000000000000000000000000000000000000008152600401610d769061370b565b60405180910390fd5b610d8761158e565b565b6060600d805480602002602001604051908101604052809291908181526020018280548015610e0d57602002820191906000526020600020905b8160009054906101000a900473ffffffffffffffffffffffffffffffffffffffff1673ffffffffffffffffffffffffffffffffffffffff1681526020019060010190808311610dc3575b5050505050905090565b6000610e21611761565b905090565b600e6020528060005260406000206000915054906101000a900460ff1681565b610e653373ffffffffffffffffffffffffffffffffffffffff1661156b565b15610ea5576040517f08c379a0000000000000000000000000000000000000000000000000000000008152600401610e9c9061369f565b60405180910390fd5b6000600460003373ffffffffffffffffffffffffffffffffffffffff1673ffffffffffffffffffffffffffffffffffffffff1681526020019081526020016000205411610f27576040517f08c379a0000000000000000000000000000000000000000000000000000000008152600401610f1e9061370b565b60405180910390fd5b610f3081611786565b50565b610f523373ffffffffffffffffffffffffffffffffffffffff1661156b565b15610f92576040517f08c379a0000000000000000000000000000000000000000000000000000000008152600401610f899061369f565b60405180910390fd5b610f9b81611958565b50565b600b6020528060005260406000206000915054906101000a900460ff1681565b60046020528060005260406000206000915090505481565b6040518060400160405280600981526020017f73657175656e636572000000000000000000000000000000000000000000000081525081565b6000601160008373ffffffffffffffffffffffffffffffffffffffff1673ffffffffffffffffffffffffffffffffffffffff16815260200190815260200160002060009054906101000a900460ff169050919050565b6060600a8054806020026020016040519081016040528092919081815260200182805480156110e957602002820191906000526020600020905b8160009054906101000a900473ffffffffffffffffffffffffffffffffffffffff1673ffffffffffffffffffffffffffffffffffffffff168152602001906001019080831161109f575b5050505050905090565b6040518060400160405280600981526020017f76616c696461746f72000000000000000000000000000000000000000000000081525081565b6040518060400160405280600a81526020017f7761746368746f7765720000000000000000000000000000000000000000000081525081565b600f6020528060005260406000206000915090505481565b60015481565b670de0b6b3a764000081565b6000818154811061119f57600080fd5b9060005260206000200160009150905080546111ba90613622565b80601f01602080910402602001604051908101604052809291908181526020018280546111e690613622565b80156112335780601f1061120857610100808354040283529160200191611233565b820191906000526020600020905b81548152906001019060200180831161121657829003601f168201915b505050505081565b60056020528060005260406000206000915090505481565b6000600b60008373ffffffffffffffffffffffffffffffffffffffff1673ffffffffffffffffffffffffffffffffffffffff16815260200190815260200160002060009054906101000a900460ff169050919050565b6000600854905090565b6060601080548060200260200160405190810160405280929190818152602001828054801561133757602002820191906000526020600020905b8160009054906101000a900473ffffffffffffffffffffffffffffffffffffffff1673ffffffffffffffffffffffffffffffffffffffff16815260200190600101908083116112ed575b5050505050905090565b600d818154811061135157600080fd5b906000526020600020016000915054906101000a900473ffffffffffffffffffffffffffffffffffffffff1681565b60085481565b60036020528060005260406000206000915054906101000a900460ff1681565b6000600954905090565b6060600280548060200260200160405190810160405280929190818152602001828054801561143457602002820191906000526020600020905b8160009054906101000a900473ffffffffffffffffffffffffffffffffffffffff1673ffffffffffffffffffffffffffffffffffffffff16815260200190600101908083116113ea575b5050505050905090565b6000600754905090565b6000600460008373ffffffffffffffffffffffffffffffffffffffff1673ffffffffffffffffffffffffffffffffffffffff168152602001908152602001600020549050919050565b6000600e60008373ffffffffffffffffffffffffffffffffffffffff1673ffffffffffffffffffffffffffffffffffffffff16815260200190815260200160002060009054906101000a900460ff169050919050565b60075481565b600281815481106114fd57600080fd5b906000526020600020016000915054906101000a900473ffffffffffffffffffffffffffffffffffffffff1681565b6010818154811061153c57600080fd5b906000526020600020016000915054906101000a900473ffffffffffffffffffffffffffffffffffffffff1681565b6000808273ffffffffffffffffffffffffffffffffffffffff163b119050919050565b61159733611c00565b6115d6576040517f08c379a00000000000000000000000000000000000000000000000000000000081526004016115cd906137c3565b60405180910390fd5b6000600460003373ffffffffffffffffffffffffffffffffffffffff1673ffffffffffffffffffffffffffffffffffffffff1681526020019081526020016000205490506000600460003373ffffffffffffffffffffffffffffffffffffffff1673ffffffffffffffffffffffffffffffffffffffff1681526020019081526020016000208190555080600760008282546116719190613812565b9250508190555061168133611c56565b61168a33611f55565b156116995761169833611fab565b5b6116a233612261565b156116b1576116b0336122b7565b5b6116ba3361256d565b156116c9576116c8336125c3565b5b3373ffffffffffffffffffffffffffffffffffffffff166108fc829081150290604051600060405180830381858888f1935050505015801561170f573d6000803e3d6000fd5b503373ffffffffffffffffffffffffffffffffffffffff167f0f5bb82176feb1b5e747e28471aa92156a04d9f3ab9f45f28e2d704232b93f758260405161175691906130e1565b60405180910390a250565b6000806001541115611777576001549050611783565b670de0b6b3a764000090505b90565b6000600460003373ffffffffffffffffffffffffffffffffffffffff1673ffffffffffffffffffffffffffffffffffffffff1681526020019081526020016000205490506000820361180d576040517f08c379a0000000000000000000000000000000000000000000000000000000008152600401611804906138b8565b60405180910390fd5b80821061184f576040517f08c379a00000000000000000000000000000000000000000000000000000000081526004016118469061394a565b60405180910390fd5b6000828261185d9190613812565b905080600460003373ffffffffffffffffffffffffffffffffffffffff1673ffffffffffffffffffffffffffffffffffffffff1681526020019081526020016000208190555080600760008282546118b59190613812565b925050819055503373ffffffffffffffffffffffffffffffffffffffff166108fc849081150290604051600060405180830381858888f19350505050158015611902573d6000803e3d6000fd5b503373ffffffffffffffffffffffffffffffffffffffff167f45a371af55b0726877a30f464edc14db5879ab096590bacce682cf6c18223596828560405161194b92919061396a565b60405180910390a2505050565b61196181612879565b80611971575061197081612916565b5b806119815750611980816129b3565b5b6119c0576040517f08c379a00000000000000000000000000000000000000000000000000000000081526004016119b790613a05565b60405180910390fd5b6119c8611761565b341015611a0a576040517f08c379a0000000000000000000000000000000000000000000000000000000008152600401611a0190613abd565b60405180910390fd5b611a143382612a50565b611a53576040517f08c379a0000000000000000000000000000000000000000000000000000000008152600401611a4a90613b4f565b60405180910390fd5b611a5d3382612ac9565b611a9c576040517f08c379a0000000000000000000000000000000000000000000000000000000008152600401611a9390613be1565b60405180910390fd5b611aa63382612b42565b611ae5576040517f08c379a0000000000000000000000000000000000000000000000000000000008152600401611adc90613c73565b60405180910390fd5b3460076000828254611af79190613c93565b9250508190555034600460003373ffffffffffffffffffffffffffffffffffffffff1673ffffffffffffffffffffffffffffffffffffffff1681526020019081526020016000206000828254611b4d9190613c93565b92505081905550611b5d33612bbb565b611b6681612879565b15611b7957611b7433612d14565b611baf565b611b8281612916565b15611b9557611b9033612e1b565b611bae565b611b9e816129b3565b15611bad57611bac33612f22565b5b5b5b3373ffffffffffffffffffffffffffffffffffffffff167f9e71bc8eea02a63969f509818f2dafb9254532904319f9dbda79b67bd34a5f3d34604051611bf591906130e1565b60405180910390a250565b6000600360008373ffffffffffffffffffffffffffffffffffffffff1673ffffffffffffffffffffffffffffffffffffffff16815260200190815260200160002060009054906101000a900460ff169050919050565b60085460028054905011611c9f576040517f08c379a0000000000000000000000000000000000000000000000000000000008152600401611c9690613d5f565b60405180910390fd5b600280549050600560008373ffffffffffffffffffffffffffffffffffffffff1673ffffffffffffffffffffffffffffffffffffffff1681526020019081526020016000205410611d25576040517f08c379a0000000000000000000000000000000000000000000000000000000008152600401611d1c90613dcb565b60405180910390fd5b6000600560008373ffffffffffffffffffffffffffffffffffffffff1673ffffffffffffffffffffffffffffffffffffffff16815260200190815260200160002054905060006001600280549050611d7d9190613812565b9050808214611e6c57600060028281548110611d9c57611d9b613deb565b5b9060005260206000200160009054906101000a900473ffffffffffffffffffffffffffffffffffffffff1690508060028481548110611dde57611ddd613deb565b5b9060005260206000200160006101000a81548173ffffffffffffffffffffffffffffffffffffffff021916908373ffffffffffffffffffffffffffffffffffffffff16021790555082600560008373ffffffffffffffffffffffffffffffffffffffff1673ffffffffffffffffffffffffffffffffffffffff16815260200190815260200160002081905550505b6000600360008573ffffffffffffffffffffffffffffffffffffffff1673ffffffffffffffffffffffffffffffffffffffff16815260200190815260200160002060006101000a81548160ff0219169083151502179055506000600560008573ffffffffffffffffffffffffffffffffffffffff1673ffffffffffffffffffffffffffffffffffffffff168152602001908152602001600020819055506002805480611f1b57611f1a613e1a565b5b6001900381819060005260206000200160006101000a81549073ffffffffffffffffffffffffffffffffffffffff02191690559055505050565b6000600b60008373ffffffffffffffffffffffffffffffffffffffff1673ffffffffffffffffffffffffffffffffffffffff16815260200190815260200160002060009054906101000a900460ff169050919050565b600a80549050600c60008373ffffffffffffffffffffffffffffffffffffffff1673ffffffffffffffffffffffffffffffffffffffff1681526020019081526020016000205410612031576040517f08c379a000000000000000000000000000000000000000000000000000000000815260040161202890613dcb565b60405180910390fd5b6000600c60008373ffffffffffffffffffffffffffffffffffffffff1673ffffffffffffffffffffffffffffffffffffffff16815260200190815260200160002054905060006001600a805490506120899190613812565b9050808214612178576000600a82815481106120a8576120a7613deb565b5b9060005260206000200160009054906101000a900473ffffffffffffffffffffffffffffffffffffffff16905080600a84815481106120ea576120e9613deb565b5b9060005260206000200160006101000a81548173ffffffffffffffffffffffffffffffffffffffff021916908373ffffffffffffffffffffffffffffffffffffffff16021790555082600c60008373ffffffffffffffffffffffffffffffffffffffff1673ffffffffffffffffffffffffffffffffffffffff16815260200190815260200160002081905550505b6000600b60008573ffffffffffffffffffffffffffffffffffffffff1673ffffffffffffffffffffffffffffffffffffffff16815260200190815260200160002060006101000a81548160ff0219169083151502179055506000600c60008573ffffffffffffffffffffffffffffffffffffffff1673ffffffffffffffffffffffffffffffffffffffff16815260200190815260200160002081905550600a80548061222757612226613e1a565b5b6001900381819060005260206000200160006101000a81549073ffffffffffffffffffffffffffffffffffffffff02191690559055505050565b6000600e60008373ffffffffffffffffffffffffffffffffffffffff1673ffffffffffffffffffffffffffffffffffffffff16815260200190815260200160002060009054906101000a900460ff169050919050565b600d80549050600f60008373ffffffffffffffffffffffffffffffffffffffff1673ffffffffffffffffffffffffffffffffffffffff168152602001908152602001600020541061233d576040517f08c379a000000000000000000000000000000000000000000000000000000000815260040161233490613dcb565b60405180910390fd5b6000600f60008373ffffffffffffffffffffffffffffffffffffffff1673ffffffffffffffffffffffffffffffffffffffff16815260200190815260200160002054905060006001600d805490506123959190613812565b9050808214612484576000600d82815481106123b4576123b3613deb565b5b9060005260206000200160009054906101000a900473ffffffffffffffffffffffffffffffffffffffff16905080600d84815481106123f6576123f5613deb565b5b9060005260206000200160006101000a81548173ffffffffffffffffffffffffffffffffffffffff021916908373ffffffffffffffffffffffffffffffffffffffff16021790555082600f60008373ffffffffffffffffffffffffffffffffffffffff1673ffffffffffffffffffffffffffffffffffffffff16815260200190815260200160002081905550505b6000600e60008573ffffffffffffffffffffffffffffffffffffffff1673ffffffffffffffffffffffffffffffffffffffff16815260200190815260200160002060006101000a81548160ff0219169083151502179055506000600f60008573ffffffffffffffffffffffffffffffffffffffff1673ffffffffffffffffffffffffffffffffffffffff16815260200190815260200160002081905550600d80548061253357612532613e1a565b5b6001900381819060005260206000200160006101000a81549073ffffffffffffffffffffffffffffffffffffffff02191690559055505050565b6000601160008373ffffffffffffffffffffffffffffffffffffffff1673ffffffffffffffffffffffffffffffffffffffff16815260200190815260200160002060009054906101000a900460ff169050919050565b601080549050601260008373ffffffffffffffffffffffffffffffffffffffff1673ffffffffffffffffffffffffffffffffffffffff1681526020019081526020016000205410612649576040517f08c379a000000000000000000000000000000000000000000000000000000000815260040161264090613dcb565b60405180910390fd5b6000601260008373ffffffffffffffffffffffffffffffffffffffff1673ffffffffffffffffffffffffffffffffffffffff168152602001908152602001600020549050600060016010805490506126a19190613812565b9050808214612790576000601082815481106126c0576126bf613deb565b5b9060005260206000200160009054906101000a900473ffffffffffffffffffffffffffffffffffffffff169050806010848154811061270257612701613deb565b5b9060005260206000200160006101000a81548173ffffffffffffffffffffffffffffffffffffffff021916908373ffffffffffffffffffffffffffffffffffffffff16021790555082601260008373ffffffffffffffffffffffffffffffffffffffff1673ffffffffffffffffffffffffffffffffffffffff16815260200190815260200160002081905550505b6000601160008573ffffffffffffffffffffffffffffffffffffffff1673ffffffffffffffffffffffffffffffffffffffff16815260200190815260200160002060006101000a81548160ff0219169083151502179055506000601260008573ffffffffffffffffffffffffffffffffffffffff1673ffffffffffffffffffffffffffffffffffffffff16815260200190815260200160002081905550601080548061283f5761283e613e1a565b5b6001900381819060005260206000200160006101000a81549073ffffffffffffffffffffffffffffffffffffffff02191690559055505050565b60008160405160200161288c9190613e85565b604051602081830303815290604052805190602001206040518060400160405280600981526020017f73657175656e63657200000000000000000000000000000000000000000000008152506040516020016128e89190613e85565b604051602081830303815290604052805190602001200361290c5760019050612911565b600090505b919050565b6000816040516020016129299190613e85565b604051602081830303815290604052805190602001206040518060400160405280600a81526020017f7761746368746f776572000000000000000000000000000000000000000000008152506040516020016129859190613e85565b60405160208183030381529060405280519060200120036129a957600190506129ae565b600090505b919050565b6000816040516020016129c69190613e85565b604051602081830303815290604052805190602001206040518060400160405280600981526020017f76616c696461746f720000000000000000000000000000000000000000000000815250604051602001612a229190613e85565b6040516020818303038152906040528051906020012003612a465760019050612a4b565b600090505b919050565b6000612a5b82612879565b8015612ab05750600b60008473ffffffffffffffffffffffffffffffffffffffff1673ffffffffffffffffffffffffffffffffffffffff16815260200190815260200160002060009054906101000a900460ff165b15612abe5760009050612ac3565b600190505b92915050565b6000612ad482612916565b8015612b295750600e60008473ffffffffffffffffffffffffffffffffffffffff1673ffffffffffffffffffffffffffffffffffffffff16815260200190815260200160002060009054906101000a900460ff165b15612b375760009050612b3c565b600190505b92915050565b6000612b4d826129b3565b8015612ba25750601160008473ffffffffffffffffffffffffffffffffffffffff1673ffffffffffffffffffffffffffffffffffffffff16815260200190815260200160002060009054906101000a900460ff165b15612bb05760009050612bb5565b600190505b92915050565b600360008273ffffffffffffffffffffffffffffffffffffffff1673ffffffffffffffffffffffffffffffffffffffff16815260200190815260200160002060009054906101000a900460ff16612d11576001600360008373ffffffffffffffffffffffffffffffffffffffff1673ffffffffffffffffffffffffffffffffffffffff16815260200190815260200160002060006101000a81548160ff021916908315150217905550600280549050600560008373ffffffffffffffffffffffffffffffffffffffff1673ffffffffffffffffffffffffffffffffffffffff168152602001908152602001600020819055506002819080600181540180825580915050600190039060005260206000200160009091909190916101000a81548173ffffffffffffffffffffffffffffffffffffffff021916908373ffffffffffffffffffffffffffffffffffffffff1602179055505b50565b6001600b60008373ffffffffffffffffffffffffffffffffffffffff1673ffffffffffffffffffffffffffffffffffffffff16815260200190815260200160002060006101000a81548160ff021916908315150217905550600a80549050600c60008373ffffffffffffffffffffffffffffffffffffffff1673ffffffffffffffffffffffffffffffffffffffff16815260200190815260200160002081905550600a819080600181540180825580915050600190039060005260206000200160009091909190916101000a81548173ffffffffffffffffffffffffffffffffffffffff021916908373ffffffffffffffffffffffffffffffffffffffff16021790555050565b6001600e60008373ffffffffffffffffffffffffffffffffffffffff1673ffffffffffffffffffffffffffffffffffffffff16815260200190815260200160002060006101000a81548160ff021916908315150217905550600d80549050600f60008373ffffffffffffffffffffffffffffffffffffffff1673ffffffffffffffffffffffffffffffffffffffff16815260200190815260200160002081905550600d819080600181540180825580915050600190039060005260206000200160009091909190916101000a81548173ffffffffffffffffffffffffffffffffffffffff021916908373ffffffffffffffffffffffffffffffffffffffff16021790555050565b6001601160008373ffffffffffffffffffffffffffffffffffffffff1673ffffffffffffffffffffffffffffffffffffffff16815260200190815260200160002060006101000a81548160ff021916908315150217905550601080549050601260008373ffffffffffffffffffffffffffffffffffffffff1673ffffffffffffffffffffffffffffffffffffffff168152602001908152602001600020819055506010819080600181540180825580915050600190039060005260206000200160009091909190916101000a81548173ffffffffffffffffffffffffffffffffffffffff021916908373ffffffffffffffffffffffffffffffffffffffff16021790555050565b6000604051905090565b600080fd5b600080fd5b600073ffffffffffffffffffffffffffffffffffffffff82169050919050565b60006130688261303d565b9050919050565b6130788161305d565b811461308357600080fd5b50565b6000813590506130958161306f565b92915050565b6000602082840312156130b1576130b0613033565b5b60006130bf84828501613086565b91505092915050565b6000819050919050565b6130db816130c8565b82525050565b60006020820190506130f660008301846130d2565b92915050565b60008115159050919050565b613111816130fc565b82525050565b600060208201905061312c6000830184613108565b92915050565b61313b816130c8565b811461314657600080fd5b50565b60008135905061315881613132565b92915050565b60006020828403121561317457613173613033565b5b600061318284828501613149565b91505092915050565b6131948161305d565b82525050565b60006020820190506131af600083018461318b565b92915050565b600081519050919050565b600082825260208201905092915050565b60005b838110156131ef5780820151818401526020810190506131d4565b60008484015250505050565b6000601f19601f8301169050919050565b6000613217826131b5565b61322181856131c0565b93506132318185602086016131d1565b61323a816131fb565b840191505092915050565b6000602082019050818103600083015261325f818461320c565b905092915050565b600081519050919050565b600082825260208201905092915050565b6000819050602082019050919050565b600082825260208201905092915050565b60006132af826131b5565b6132b98185613293565b93506132c98185602086016131d1565b6132d2816131fb565b840191505092915050565b60006132e983836132a4565b905092915050565b6000602082019050919050565b600061330982613267565b6133138185613272565b93508360208202850161332585613283565b8060005b85811015613361578484038952815161334285826132dd565b945061334d836132f1565b925060208a01995050600181019050613329565b50829750879550505050505092915050565b6000602082019050818103600083015261338d81846132fe565b905092915050565b600081519050919050565b600082825260208201905092915050565b6000819050602082019050919050565b6133ca8161305d565b82525050565b60006133dc83836133c1565b60208301905092915050565b6000602082019050919050565b600061340082613395565b61340a81856133a0565b9350613415836133b1565b8060005b8381101561344657815161342d88826133d0565b9750613438836133e8565b925050600181019050613419565b5085935050505092915050565b6000602082019050818103600083015261346d81846133f5565b905092915050565b600080fd5b600080fd5b7f4e487b7100000000000000000000000000000000000000000000000000000000600052604160045260246000fd5b6134b7826131fb565b810181811067ffffffffffffffff821117156134d6576134d561347f565b5b80604052505050565b60006134e9613029565b90506134f582826134ae565b919050565b600067ffffffffffffffff8211156135155761351461347f565b5b61351e826131fb565b9050602081019050919050565b82818337600083830152505050565b600061354d613548846134fa565b6134df565b9050828152602081018484840111156135695761356861347a565b5b61357484828561352b565b509392505050565b600082601f83011261359157613590613475565b5b81356135a184826020860161353a565b91505092915050565b6000602082840312156135c0576135bf613033565b5b600082013567ffffffffffffffff8111156135de576135dd613038565b5b6135ea8482850161357c565b91505092915050565b7f4e487b7100000000000000000000000000000000000000000000000000000000600052602260045260246000fd5b6000600282049050600182168061363a57607f821691505b60208210810361364d5761364c6135f3565b5b50919050565b7f4f6e6c7920454f412063616e2063616c6c2066756e6374696f6e000000000000600082015250565b6000613689601a836131c0565b915061369482613653565b602082019050919050565b600060208201905081810360008301526136b88161367c565b9050919050565b7f4f6e6c79207374616b65722063616e2063616c6c2066756e6374696f6e000000600082015250565b60006136f5601d836131c0565b9150613700826136bf565b602082019050919050565b60006020820190508181036000830152613724816136e8565b9050919050565b7f53656e6465722068617320746f2062652070617274206f66207374616b696e6760008201527f20706f6c6c20696e206f7264657220746f20756e7374616b652069747320736860208201527f6172652e20556e7374616b652072656a65637465642e00000000000000000000604082015250565b60006137ad6056836131c0565b91506137b88261372b565b606082019050919050565b600060208201905081810360008301526137dc816137a0565b9050919050565b7f4e487b7100000000000000000000000000000000000000000000000000000000600052601160045260246000fd5b600061381d826130c8565b9150613828836130c8565b92508282039050818111156138405761383f6137e3565b5b92915050565b7f536c61736820616d6f756e74206e6565647320746f2062652070726f7669646560008201527f642e000000000000000000000000000000000000000000000000000000000000602082015250565b60006138a26022836131c0565b91506138ad82613846565b604082019050919050565b600060208201905081810360008301526138d181613895565b9050919050565b7f536c61736820616d6f756e742063616e6e6f742062652067726561746572207460008201527f68616e207374616b656420616d6f756e74000000000000000000000000000000602082015250565b60006139346031836131c0565b915061393f826138d8565b604082019050919050565b6000602082019050818103600083015261396381613927565b9050919050565b600060408201905061397f60008301856130d2565b61398c60208301846130d2565b9392505050565b7f50726f7669646564206e6f646520747970652068617320746f206d617463682060008201527f617661696c61626c65206e6f6465207479706573000000000000000000000000602082015250565b60006139ef6034836131c0565b91506139fa82613993565b604082019050919050565b60006020820190508181036000830152613a1e816139e2565b9050919050565b7f496e737566696369656e74207374616b696e6720616d6f756e742070726f766960008201527f6465642e2048617320746f206265206c6172676572207468616e207374616b6960208201527f6e67206d696e696d756d207468726573686f6c64000000000000000000000000604082015250565b6000613aa76054836131c0565b9150613ab282613a25565b606082019050919050565b60006020820190508181036000830152613ad681613a9a565b9050919050565b7f53656e64657220697320616c72656164792073657175656e6365722e2052656a60008201527f656374696e67207374616b6520726571756573742e0000000000000000000000602082015250565b6000613b396035836131c0565b9150613b4482613add565b604082019050919050565b60006020820190508181036000830152613b6881613b2c565b9050919050565b7f53656e64657220697320616c7265616479207761746368746f7765722e20526560008201527f6a656374696e67207374616b6520726571756573742e00000000000000000000602082015250565b6000613bcb6036836131c0565b9150613bd682613b6f565b604082019050919050565b60006020820190508181036000830152613bfa81613bbe565b9050919050565b7f53656e64657220697320616c72656164792076616c696461746f722e2052656a60008201527f656374696e67207374616b6520726571756573742e0000000000000000000000602082015250565b6000613c5d6035836131c0565b9150613c6882613c01565b604082019050919050565b60006020820190508181036000830152613c8c81613c50565b9050919050565b6000613c9e826130c8565b9150613ca9836130c8565b9250828201905080821115613cc157613cc06137e3565b5b92915050565b7f5374616b696e67207061727469636970616e74732063616e2774206265206c6560008201527f7373207468616e20746865206d696e696d756d2072657175697265642070617260208201527f7469636970616e74206e756d0000000000000000000000000000000000000000604082015250565b6000613d49604c836131c0565b9150613d5482613cc7565b606082019050919050565b60006020820190508181036000830152613d7881613d3c565b9050919050565b7f696e646578206f7574206f662072616e67650000000000000000000000000000600082015250565b6000613db56012836131c0565b9150613dc082613d7f565b602082019050919050565b60006020820190508181036000830152613de481613da8565b9050919050565b7f4e487b7100000000000000000000000000000000000000000000000000000000600052603260045260246000fd5b7f4e487b7100000000000000000000000000000000000000000000000000000000600052603160045260246000fd5b600081905092915050565b6000613e5f826131b5565b613e698185613e49565b9350613e798185602086016131d1565b80840191505092915050565b6000613e918284613e54565b91508190509291505056fea2646970667358221220900ed5291066a0699d8de0af2da3d29a11c808495d0ba2c307318a2830db5bf464736f6c63430008110033",
  "linkReferences": {},
  "deployedLinkReferences": {}
}