{
  "_format": "hh-sol-artifact-1",
  "contractName": "Staking",
  "sourceName": "contracts/Staking.sol",
  "abi": [
    {
      "inputs": [
        {
          "internalType": "uint256",
          "name": "minNumParticipants",
          "type": "uint256"
        },
        {
          "internalType": "uint256",
          "name": "maxNumParticipants",
          "type": "uint256"
        }
      ],
      "stateMutability": "nonpayable",
      "type": "constructor"
    },
    {
      "anonymous": false,
      "inputs": [
        {
          "indexed": true,
          "internalType": "address",
          "name": "account",
          "type": "address"
        }
      ],
      "name": "DisputeResolutionBegan",
      "type": "event"
    },
    {
      "anonymous": false,
      "inputs": [
        {
          "indexed": true,
          "internalType": "address",
          "name": "account",
          "type": "address"
        }
      ],
      "name": "DisputeResolutionEnded",
      "type": "event"
    },
    {
      "anonymous": false,
      "inputs": [
        {
          "indexed": true,
          "internalType": "address",
          "name": "account",
          "type": "address"
        },
        {
          "indexed": false,
          "internalType": "uint256",
          "name": "newAmount",
          "type": "uint256"
        },
        {
          "indexed": false,
          "internalType": "uint256",
          "name": "slashedAmount",
          "type": "uint256"
        }
      ],
      "name": "Slashed",
      "type": "event"
    },
    {
      "anonymous": false,
      "inputs": [
        {
          "indexed": true,
          "internalType": "address",
          "name": "account",
          "type": "address"
        },
        {
          "indexed": false,
          "internalType": "uint256",
          "name": "amount",
          "type": "uint256"
        }
      ],
      "name": "Staked",
      "type": "event"
    },
    {
      "anonymous": false,
      "inputs": [
        {
          "indexed": true,
          "internalType": "address",
          "name": "account",
          "type": "address"
        },
        {
          "indexed": false,
          "internalType": "uint256",
          "name": "amount",
          "type": "uint256"
        }
      ],
      "name": "Unstaked",
      "type": "event"
    },
    {
      "inputs": [
        {
          "internalType": "uint256",
          "name": "",
          "type": "uint256"
        }
      ],
      "name": "AVAILABLE_NODE_TYPES",
      "outputs": [
        {
          "internalType": "string",
          "name": "",
          "type": "string"
        }
      ],
      "stateMutability": "view",
      "type": "function"
    },
    {
      "inputs": [
        {
          "internalType": "address",
          "name": "sequencerAddr",
          "type": "address"
        }
      ],
      "name": "BeginDisputeResolution",
      "outputs": [],
      "stateMutability": "nonpayable",
      "type": "function"
    },
    {
      "inputs": [],
      "name": "DEFAULT_MIN_SLASH_PERCENTAGE",
      "outputs": [
        {
          "internalType": "uint256",
          "name": "",
          "type": "uint256"
        }
      ],
      "stateMutability": "view",
      "type": "function"
    },
    {
      "inputs": [],
      "name": "DEFAULT_STAKING_THRESHOLD",
      "outputs": [
        {
          "internalType": "uint256",
          "name": "",
          "type": "uint256"
        }
      ],
      "stateMutability": "view",
      "type": "function"
    },
    {
      "inputs": [
        {
          "internalType": "address",
          "name": "sequencerAddr",
          "type": "address"
        }
      ],
      "name": "EndDisputeResolution",
      "outputs": [],
      "stateMutability": "nonpayable",
      "type": "function"
    },
    {
      "inputs": [],
      "name": "GetAvailableNodeTypes",
      "outputs": [
        {
          "internalType": "string[]",
          "name": "",
          "type": "string[]"
        }
      ],
      "stateMutability": "view",
      "type": "function"
    },
    {
      "inputs": [
        {
          "internalType": "address",
          "name": "addr",
          "type": "address"
        }
      ],
      "name": "GetCurrentAccountStakedAmount",
      "outputs": [
        {
          "internalType": "uint256",
          "name": "",
          "type": "uint256"
        }
      ],
      "stateMutability": "view",
      "type": "function"
    },
    {
      "inputs": [],
      "name": "GetCurrentParticipants",
      "outputs": [
        {
          "internalType": "address[]",
          "name": "",
          "type": "address[]"
        }
      ],
      "stateMutability": "view",
      "type": "function"
    },
    {
      "inputs": [],
      "name": "GetCurrentSequencers",
      "outputs": [
        {
          "internalType": "address[]",
          "name": "",
          "type": "address[]"
        }
      ],
      "stateMutability": "view",
      "type": "function"
    },
    {
      "inputs": [],
      "name": "GetCurrentSequencersInProbation",
      "outputs": [
        {
          "internalType": "address[]",
          "name": "",
          "type": "address[]"
        }
      ],
      "stateMutability": "view",
      "type": "function"
    },
    {
      "inputs": [],
      "name": "GetCurrentStakedAmount",
      "outputs": [
        {
          "internalType": "uint256",
          "name": "",
          "type": "uint256"
        }
      ],
      "stateMutability": "view",
      "type": "function"
    },
    {
      "inputs": [],
      "name": "GetCurrentStakingThreshold",
      "outputs": [
        {
          "internalType": "uint256",
          "name": "",
          "type": "uint256"
        }
      ],
      "stateMutability": "view",
      "type": "function"
    },
    {
      "inputs": [],
      "name": "GetCurrentValidators",
      "outputs": [
        {
          "internalType": "address[]",
          "name": "",
          "type": "address[]"
        }
      ],
      "stateMutability": "view",
      "type": "function"
    },
    {
      "inputs": [],
      "name": "GetCurrentWatchtowers",
      "outputs": [
        {
          "internalType": "address[]",
          "name": "",
          "type": "address[]"
        }
      ],
      "stateMutability": "view",
      "type": "function"
    },
    {
      "inputs": [
        {
          "internalType": "address",
          "name": "sequencerAddr",
          "type": "address"
        }
      ],
      "name": "GetIsSequencerInProbation",
      "outputs": [
        {
          "internalType": "bool",
          "name": "",
          "type": "bool"
        }
      ],
      "stateMutability": "view",
      "type": "function"
    },
    {
      "inputs": [],
      "name": "GetMaxNumParticipants",
      "outputs": [
        {
          "internalType": "uint256",
          "name": "",
          "type": "uint256"
        }
      ],
      "stateMutability": "view",
      "type": "function"
    },
    {
      "inputs": [],
      "name": "GetMaxNumSequencers",
      "outputs": [
        {
          "internalType": "uint256",
          "name": "",
          "type": "uint256"
        }
      ],
      "stateMutability": "view",
      "type": "function"
    },
    {
      "inputs": [],
      "name": "GetMaxNumValidators",
      "outputs": [
        {
          "internalType": "uint256",
          "name": "",
          "type": "uint256"
        }
      ],
      "stateMutability": "view",
      "type": "function"
    },
    {
      "inputs": [],
      "name": "GetMaxNumWatchtowers",
      "outputs": [
        {
          "internalType": "uint256",
          "name": "",
          "type": "uint256"
        }
      ],
      "stateMutability": "view",
      "type": "function"
    },
    {
      "inputs": [],
      "name": "GetMinNumParticipants",
      "outputs": [
        {
          "internalType": "uint256",
          "name": "",
          "type": "uint256"
        }
      ],
      "stateMutability": "view",
      "type": "function"
    },
    {
      "inputs": [],
      "name": "GetMinNumSequencers",
      "outputs": [
        {
          "internalType": "uint256",
          "name": "",
          "type": "uint256"
        }
      ],
      "stateMutability": "view",
      "type": "function"
    },
    {
      "inputs": [],
      "name": "GetMinNumValidators",
      "outputs": [
        {
          "internalType": "uint256",
          "name": "",
          "type": "uint256"
        }
      ],
      "stateMutability": "view",
      "type": "function"
    },
    {
      "inputs": [],
      "name": "GetMinNumWatchtowers",
      "outputs": [
        {
          "internalType": "uint256",
          "name": "",
          "type": "uint256"
        }
      ],
      "stateMutability": "view",
      "type": "function"
    },
    {
      "inputs": [],
      "name": "GetSlashPercentage",
      "outputs": [
        {
          "internalType": "uint256",
          "name": "",
          "type": "uint256"
        }
      ],
      "stateMutability": "view",
      "type": "function"
    },
    {
      "inputs": [
        {
          "internalType": "address",
          "name": "addr",
          "type": "address"
        }
      ],
      "name": "IsSequencer",
      "outputs": [
        {
          "internalType": "bool",
          "name": "",
          "type": "bool"
        }
      ],
      "stateMutability": "view",
      "type": "function"
    },
    {
      "inputs": [
        {
          "internalType": "address",
          "name": "addr",
          "type": "address"
        }
      ],
      "name": "IsValidator",
      "outputs": [
        {
          "internalType": "bool",
          "name": "",
          "type": "bool"
        }
      ],
      "stateMutability": "view",
      "type": "function"
    },
    {
      "inputs": [
        {
          "internalType": "address",
          "name": "addr",
          "type": "address"
        }
      ],
      "name": "IsWatchtower",
      "outputs": [
        {
          "internalType": "bool",
          "name": "",
          "type": "bool"
        }
      ],
      "stateMutability": "view",
      "type": "function"
    },
    {
      "inputs": [],
      "name": "NODE_SEQUENCER",
      "outputs": [
        {
          "internalType": "string",
          "name": "",
          "type": "string"
        }
      ],
      "stateMutability": "view",
      "type": "function"
    },
    {
      "inputs": [],
      "name": "NODE_VALIDATOR",
      "outputs": [
        {
          "internalType": "string",
          "name": "",
          "type": "string"
        }
      ],
      "stateMutability": "view",
      "type": "function"
    },
    {
      "inputs": [],
      "name": "NODE_WATCHTOWER",
      "outputs": [
        {
          "internalType": "string",
          "name": "",
          "type": "string"
        }
      ],
      "stateMutability": "view",
      "type": "function"
    },
    {
      "inputs": [
        {
          "internalType": "uint256",
          "name": "maximumNumParticipants",
          "type": "uint256"
        }
      ],
      "name": "SetMaxNumParticipants",
      "outputs": [
        {
          "internalType": "uint256",
          "name": "",
          "type": "uint256"
        }
      ],
      "stateMutability": "nonpayable",
      "type": "function"
    },
    {
      "inputs": [
        {
          "internalType": "uint256",
          "name": "maximumNumSequencers",
          "type": "uint256"
        }
      ],
      "name": "SetMaxNumSequencers",
      "outputs": [
        {
          "internalType": "uint256",
          "name": "",
          "type": "uint256"
        }
      ],
      "stateMutability": "nonpayable",
      "type": "function"
    },
    {
      "inputs": [
        {
          "internalType": "uint256",
          "name": "maximumNumValidators",
          "type": "uint256"
        }
      ],
      "name": "SetMaxNumValidators",
      "outputs": [
        {
          "internalType": "uint256",
          "name": "",
          "type": "uint256"
        }
      ],
      "stateMutability": "nonpayable",
      "type": "function"
    },
    {
      "inputs": [
        {
          "internalType": "uint256",
          "name": "maximumNumWatchtowers",
          "type": "uint256"
        }
      ],
      "name": "SetMaxNumWatchtowers",
      "outputs": [
        {
          "internalType": "uint256",
          "name": "",
          "type": "uint256"
        }
      ],
      "stateMutability": "nonpayable",
      "type": "function"
    },
    {
      "inputs": [
        {
          "internalType": "uint256",
          "name": "minimumNumParticipants",
          "type": "uint256"
        }
      ],
      "name": "SetMinNumParticipants",
      "outputs": [
        {
          "internalType": "uint256",
          "name": "",
          "type": "uint256"
        }
      ],
      "stateMutability": "nonpayable",
      "type": "function"
    },
    {
      "inputs": [
        {
          "internalType": "uint256",
          "name": "minimumNumSequencers",
          "type": "uint256"
        }
      ],
      "name": "SetMinNumSequencers",
      "outputs": [
        {
          "internalType": "uint256",
          "name": "",
          "type": "uint256"
        }
      ],
      "stateMutability": "nonpayable",
      "type": "function"
    },
    {
      "inputs": [
        {
          "internalType": "uint256",
          "name": "minimumNumValidators",
          "type": "uint256"
        }
      ],
      "name": "SetMinNumValidators",
      "outputs": [
        {
          "internalType": "uint256",
          "name": "",
          "type": "uint256"
        }
      ],
      "stateMutability": "nonpayable",
      "type": "function"
    },
    {
      "inputs": [
        {
          "internalType": "uint256",
          "name": "minimumNumWatchtowers",
          "type": "uint256"
        }
      ],
      "name": "SetMinNumWatchtowers",
      "outputs": [
        {
          "internalType": "uint256",
          "name": "",
          "type": "uint256"
        }
      ],
      "stateMutability": "nonpayable",
      "type": "function"
    },
    {
      "inputs": [
        {
          "internalType": "uint256",
          "name": "newPercentage",
          "type": "uint256"
        }
      ],
      "name": "SetSlashPercentage",
      "outputs": [],
      "stateMutability": "nonpayable",
      "type": "function"
    },
    {
      "inputs": [
        {
          "internalType": "uint256",
          "name": "newThreshold",
          "type": "uint256"
        }
      ],
      "name": "SetStakingMinThreshold",
      "outputs": [],
      "stateMutability": "nonpayable",
      "type": "function"
    },
    {
      "inputs": [
        {
          "internalType": "address",
          "name": "",
          "type": "address"
        }
      ],
      "name": "_addressToIsParticipant",
      "outputs": [
        {
          "internalType": "bool",
          "name": "",
          "type": "bool"
        }
      ],
      "stateMutability": "view",
      "type": "function"
    },
    {
      "inputs": [
        {
          "internalType": "address",
          "name": "",
          "type": "address"
        }
      ],
      "name": "_addressToIsSequencer",
      "outputs": [
        {
          "internalType": "bool",
          "name": "",
          "type": "bool"
        }
      ],
      "stateMutability": "view",
      "type": "function"
    },
    {
      "inputs": [
        {
          "internalType": "address",
          "name": "",
          "type": "address"
        }
      ],
      "name": "_addressToIsSequencerInProbationAddr",
      "outputs": [
        {
          "internalType": "bool",
          "name": "",
          "type": "bool"
        }
      ],
      "stateMutability": "view",
      "type": "function"
    },
    {
      "inputs": [
        {
          "internalType": "address",
          "name": "",
          "type": "address"
        }
      ],
      "name": "_addressToIsValidator",
      "outputs": [
        {
          "internalType": "bool",
          "name": "",
          "type": "bool"
        }
      ],
      "stateMutability": "view",
      "type": "function"
    },
    {
      "inputs": [
        {
          "internalType": "address",
          "name": "",
          "type": "address"
        }
      ],
      "name": "_addressToIsWatchtower",
      "outputs": [
        {
          "internalType": "bool",
          "name": "",
          "type": "bool"
        }
      ],
      "stateMutability": "view",
      "type": "function"
    },
    {
      "inputs": [
        {
          "internalType": "address",
          "name": "",
          "type": "address"
        }
      ],
      "name": "_addressToNodeType",
      "outputs": [
        {
          "internalType": "string",
          "name": "",
          "type": "string"
        }
      ],
      "stateMutability": "view",
      "type": "function"
    },
    {
      "inputs": [
        {
          "internalType": "address",
          "name": "",
          "type": "address"
        }
      ],
      "name": "_addressToParticipantIndex",
      "outputs": [
        {
          "internalType": "uint256",
          "name": "",
          "type": "uint256"
        }
      ],
      "stateMutability": "view",
      "type": "function"
    },
    {
      "inputs": [
        {
          "internalType": "address",
          "name": "",
          "type": "address"
        }
      ],
      "name": "_addressToSequencerInProbationIndex",
      "outputs": [
        {
          "internalType": "uint256",
          "name": "",
          "type": "uint256"
        }
      ],
      "stateMutability": "view",
      "type": "function"
    },
    {
      "inputs": [
        {
          "internalType": "address",
          "name": "",
          "type": "address"
        }
      ],
      "name": "_addressToSequencerIndex",
      "outputs": [
        {
          "internalType": "uint256",
          "name": "",
          "type": "uint256"
        }
      ],
      "stateMutability": "view",
      "type": "function"
    },
    {
      "inputs": [
        {
          "internalType": "address",
          "name": "",
          "type": "address"
        }
      ],
      "name": "_addressToStakedAmount",
      "outputs": [
        {
          "internalType": "uint256",
          "name": "",
          "type": "uint256"
        }
      ],
      "stateMutability": "view",
      "type": "function"
    },
    {
      "inputs": [
        {
          "internalType": "address",
          "name": "",
          "type": "address"
        }
      ],
      "name": "_addressToValidatorIndex",
      "outputs": [
        {
          "internalType": "uint256",
          "name": "",
          "type": "uint256"
        }
      ],
      "stateMutability": "view",
      "type": "function"
    },
    {
      "inputs": [
        {
          "internalType": "address",
          "name": "",
          "type": "address"
        }
      ],
      "name": "_addressToWatchtowerIndex",
      "outputs": [
        {
          "internalType": "uint256",
          "name": "",
          "type": "uint256"
        }
      ],
      "stateMutability": "view",
      "type": "function"
    },
    {
      "inputs": [],
      "name": "_maximumNumParticipants",
      "outputs": [
        {
          "internalType": "uint256",
          "name": "",
          "type": "uint256"
        }
      ],
      "stateMutability": "view",
      "type": "function"
    },
    {
      "inputs": [],
      "name": "_maximumNumSequencers",
      "outputs": [
        {
          "internalType": "uint256",
          "name": "",
          "type": "uint256"
        }
      ],
      "stateMutability": "view",
      "type": "function"
    },
    {
      "inputs": [],
      "name": "_maximumNumValidators",
      "outputs": [
        {
          "internalType": "uint256",
          "name": "",
          "type": "uint256"
        }
      ],
      "stateMutability": "view",
      "type": "function"
    },
    {
      "inputs": [],
      "name": "_maximumNumWatchtowers",
      "outputs": [
        {
          "internalType": "uint256",
          "name": "",
          "type": "uint256"
        }
      ],
      "stateMutability": "view",
      "type": "function"
    },
    {
      "inputs": [],
      "name": "_minStakingThreshold",
      "outputs": [
        {
          "internalType": "uint256",
          "name": "",
          "type": "uint256"
        }
      ],
      "stateMutability": "view",
      "type": "function"
    },
    {
      "inputs": [],
      "name": "_minimumNumParticipants",
      "outputs": [
        {
          "internalType": "uint256",
          "name": "",
          "type": "uint256"
        }
      ],
      "stateMutability": "view",
      "type": "function"
    },
    {
      "inputs": [],
      "name": "_minimumNumSequencers",
      "outputs": [
        {
          "internalType": "uint256",
          "name": "",
          "type": "uint256"
        }
      ],
      "stateMutability": "view",
      "type": "function"
    },
    {
      "inputs": [],
      "name": "_minimumNumValidators",
      "outputs": [
        {
          "internalType": "uint256",
          "name": "",
          "type": "uint256"
        }
      ],
      "stateMutability": "view",
      "type": "function"
    },
    {
      "inputs": [],
      "name": "_minimumNumWatchtowers",
      "outputs": [
        {
          "internalType": "uint256",
          "name": "",
          "type": "uint256"
        }
      ],
      "stateMutability": "view",
      "type": "function"
    },
    {
      "inputs": [
        {
          "internalType": "uint256",
          "name": "",
          "type": "uint256"
        }
      ],
      "name": "_participants",
      "outputs": [
        {
          "internalType": "address",
          "name": "",
          "type": "address"
        }
      ],
      "stateMutability": "view",
      "type": "function"
    },
    {
      "inputs": [
        {
          "internalType": "uint256",
          "name": "",
          "type": "uint256"
        }
      ],
      "name": "_sequencers",
      "outputs": [
        {
          "internalType": "address",
          "name": "",
          "type": "address"
        }
      ],
      "stateMutability": "view",
      "type": "function"
    },
    {
      "inputs": [
        {
          "internalType": "uint256",
          "name": "",
          "type": "uint256"
        }
      ],
      "name": "_sequencers_in_probation",
      "outputs": [
        {
          "internalType": "address",
          "name": "",
          "type": "address"
        }
      ],
      "stateMutability": "view",
      "type": "function"
    },
    {
      "inputs": [],
      "name": "_slashPercentage",
      "outputs": [
        {
          "internalType": "uint256",
          "name": "",
          "type": "uint256"
        }
      ],
      "stateMutability": "view",
      "type": "function"
    },
    {
      "inputs": [],
      "name": "_stakedAmount",
      "outputs": [
        {
          "internalType": "uint256",
          "name": "",
          "type": "uint256"
        }
      ],
      "stateMutability": "view",
      "type": "function"
    },
    {
      "inputs": [
        {
          "internalType": "uint256",
          "name": "",
          "type": "uint256"
        }
      ],
      "name": "_validators",
      "outputs": [
        {
          "internalType": "address",
          "name": "",
          "type": "address"
        }
      ],
      "stateMutability": "view",
      "type": "function"
    },
    {
      "inputs": [
        {
          "internalType": "uint256",
          "name": "",
          "type": "uint256"
        }
      ],
      "name": "_watchtowers",
      "outputs": [
        {
          "internalType": "address",
          "name": "",
          "type": "address"
        }
      ],
      "stateMutability": "view",
      "type": "function"
    },
    {
      "inputs": [
        {
          "internalType": "address",
          "name": "slashAddr",
          "type": "address"
        },
        {
          "internalType": "uint256",
          "name": "slashAmount",
          "type": "uint256"
        }
      ],
      "name": "slash",
      "outputs": [],
      "stateMutability": "nonpayable",
      "type": "function"
    },
    {
      "inputs": [
        {
          "internalType": "string",
          "name": "nodeType",
          "type": "string"
        }
      ],
      "name": "stake",
      "outputs": [],
      "stateMutability": "payable",
      "type": "function"
    },
    {
      "inputs": [],
      "name": "unstake",
      "outputs": [],
      "stateMutability": "nonpayable",
      "type": "function"
    }
  ],
  "bytecode": "0x608060405260405180606001604052806040518060400160405280600981526020017f73657175656e636572000000000000000000000000000000000000000000000081525081526020016040518060400160405280600a81526020017f7761746368746f7765720000000000000000000000000000000000000000000081525081526020016040518060400160405280600981526020017f76616c696461746f7200000000000000000000000000000000000000000000008152508152506000906003620000d092919062000160565b50348015620000de57600080fd5b50604051620058243803806200582483398181016040528101906200010491906200028d565b808211156200014a576040517f08c379a0000000000000000000000000000000000000000000000000000000008152600401620001419062000381565b60405180910390fd5b8160098190555080600a819055505050620006fa565b828054828255906000526020600020908101928215620001ad579160200282015b82811115620001ac5782518290816200019b919062000613565b509160200191906001019062000181565b5b509050620001bc9190620001c0565b5090565b5b80821115620001e45760008181620001da9190620001e8565b50600101620001c1565b5090565b508054620001f6906200040c565b6000825580601f106200020a57506200022b565b601f0160209004906000526020600020908101906200022a91906200022e565b5b50565b5b80821115620002495760008160009055506001016200022f565b5090565b600080fd5b6000819050919050565b620002678162000252565b81146200027357600080fd5b50565b60008151905062000287816200025c565b92915050565b60008060408385031215620002a757620002a66200024d565b5b6000620002b78582860162000276565b9250506020620002ca8582860162000276565b9150509250929050565b600082825260208201905092915050565b7f4d696e207061727469636970616e7473206e756d6265722063616e206e6f742060008201527f62652067726561746572207468616e206d6178206e756d206f6620706172746960208201527f636970616e747300000000000000000000000000000000000000000000000000604082015250565b600062000369604783620002d4565b91506200037682620002e5565b606082019050919050565b600060208201905081810360008301526200039c816200035a565b9050919050565b600081519050919050565b7f4e487b7100000000000000000000000000000000000000000000000000000000600052604160045260246000fd5b7f4e487b7100000000000000000000000000000000000000000000000000000000600052602260045260246000fd5b600060028204905060018216806200042557607f821691505b6020821081036200043b576200043a620003dd565b5b50919050565b60008190508160005260206000209050919050565b60006020601f8301049050919050565b600082821b905092915050565b600060088302620004a57fffffffffffffffffffffffffffffffffffffffffffffffffffffffffffffffff8262000466565b620004b1868362000466565b95508019841693508086168417925050509392505050565b6000819050919050565b6000620004f4620004ee620004e88462000252565b620004c9565b62000252565b9050919050565b6000819050919050565b6200051083620004d3565b620005286200051f82620004fb565b84845462000473565b825550505050565b600090565b6200053f62000530565b6200054c81848462000505565b505050565b5b8181101562000574576200056860008262000535565b60018101905062000552565b5050565b601f821115620005c3576200058d8162000441565b620005988462000456565b81016020851015620005a8578190505b620005c0620005b78562000456565b83018262000551565b50505b505050565b600082821c905092915050565b6000620005e860001984600802620005c8565b1980831691505092915050565b6000620006038383620005d5565b9150826002028217905092915050565b6200061e82620003a3565b67ffffffffffffffff8111156200063a5762000639620003ae565b5b6200064682546200040c565b6200065382828562000578565b600060209050601f8311600181146200068b576000841562000676578287015190505b620006828582620005f5565b865550620006f2565b601f1984166200069b8662000441565b60005b82811015620006c5578489015182556001820191506020850194506020810190506200069e565b86831015620006e55784890151620006e1601f891682620005d5565b8355505b6001600288020188555050505b505050505050565b61511a806200070a6000396000f3fe6080604052600436106104105760003560e01c8063a0f14bff1161021e578063c795c07711610123578063e028aadf116100ab578063eec9f52e1161007a578063eec9f52e146110f6578063f196f82414611121578063f76a1ee01461115e578063f90ecacc14611189578063f9a43d4c146111c657610410565b8063e028aadf14611028578063e2b5769d14611065578063e387a7ed146110a2578063ebe4ad6f146110cd57610410565b8063d3be81a8116100f2578063d3be81a814610f1b578063d551832f14610f46578063d79f10d214610f71578063d80ff2b914610fae578063dea7977414610feb57610410565b8063c795c07714610e5d578063c8fa5fe914610e88578063d140551714610eb3578063d147c38714610ede57610410565b8063bb5a26ff116101a6578063c36352e111610175578063c36352e114610d62578063c402d43c14610d8d578063c48c5f3714610db8578063c6199c1f14610df5578063c70966fb14610e2057610410565b8063bb5a26ff14610ca4578063bd9ed0b314610ce1578063bfc5aeee14610d0c578063c2ccacdf14610d3757610410565b8063aff1ea76116101ed578063aff1ea7614610b97578063b17ca89c14610bc2578063b41327ff14610bed578063b61b127f14610c2a578063b8889f0214610c6757610410565b8063a0f14bff14610ac7578063a145012614610b04578063a17e8b3d14610b2f578063af6da36e14610b6c57610410565b806346f45b8d116103245780637dceceb8116102ac57806398abb25e1161027b57806398abb25e146109cc57806398ff822d14610a0957806399a7c7e414610a465780639a083e8214610a715780639f9f710114610a9c57610410565b80637dceceb81461090e578063855598b71461094b5780638d0841481461097657806390e7c862146109a157610410565b8063584060bb116102f3578063584060bb146108155780636b2f7635146108525780636edf24811461087b578063760118b6146108a65780637b339263146108d157610410565b806346f45b8d146107665780635118469414610782578063560854f6146107ad57806357a87ffd146107ea57610410565b80631cb9bdca116103a75780632def6620116103765780632def6620146106935780633603da84146106aa578063409b9ece146106d557806340b007531461070057806342ca58d51461073d57610410565b80631cb9bdca146105c55780631efcf4d1146106025780631f2743b61461063f5780632c404e9c1461066a57610410565b80630e533c8e116103e35780630e533c8e146104e35780630fb18ccc1461052057806319908df81461054b57806319ae67641461058857610410565b806302b751991461041557806302fb4d8514610452578063065ae1711461047b578063068946e8146104b8575b600080fd5b34801561042157600080fd5b5061043c60048036038101906104379190614035565b611203565b604051610449919061407b565b60405180910390f35b34801561045e57600080fd5b50610479600480360381019061047491906140c2565b61121b565b005b34801561048757600080fd5b506104a2600480360381019061049d9190614035565b61130a565b6040516104af919061411d565b60405180910390f35b3480156104c457600080fd5b506104cd61132a565b6040516104da919061407b565b60405180910390f35b3480156104ef57600080fd5b5061050a60048036038101906105059190614035565b611330565b604051610517919061407b565b60405180910390f35b34801561052c57600080fd5b50610535611348565b604051610542919061407b565b60405180910390f35b34801561055757600080fd5b50610572600480360381019061056d9190614138565b61134e565b60405161057f9190614174565b60405180910390f35b34801561059457600080fd5b506105af60048036038101906105aa9190614035565b61138d565b6040516105bc919061421f565b60405180910390f35b3480156105d157600080fd5b506105ec60048036038101906105e79190614035565b61142d565b6040516105f9919061407b565b60405180910390f35b34801561060e57600080fd5b5061062960048036038101906106249190614035565b611445565b604051610636919061411d565b60405180910390f35b34801561064b57600080fd5b50610654611465565b604051610661919061434d565b60405180910390f35b34801561067657600080fd5b50610691600480360381019061068c9190614138565b61153e565b005b34801561069f57600080fd5b506106a86115a7565b005b3480156106b657600080fd5b506106bf611692565b6040516106cc919061442d565b60405180910390f35b3480156106e157600080fd5b506106ea611720565b6040516106f7919061407b565b60405180910390f35b34801561070c57600080fd5b5061072760048036038101906107229190614035565b61172f565b604051610734919061411d565b60405180910390f35b34801561074957600080fd5b50610764600480360381019061075f9190614138565b61174f565b005b610780600480360381019061077b9190614584565b6117b8565b005b34801561078e57600080fd5b50610797611823565b6040516107a4919061407b565b60405180910390f35b3480156107b957600080fd5b506107d460048036038101906107cf9190614138565b611828565b6040516107e1919061407b565b60405180910390f35b3480156107f657600080fd5b506107ff61183b565b60405161080c919061407b565b60405180910390f35b34801561082157600080fd5b5061083c60048036038101906108379190614138565b61184a565b6040516108499190614174565b60405180910390f35b34801561085e57600080fd5b5061087960048036038101906108749190614035565b611889565b005b34801561088757600080fd5b506108906118d8565b60405161089d919061407b565b60405180910390f35b3480156108b257600080fd5b506108bb6118e2565b6040516108c8919061407b565b60405180910390f35b3480156108dd57600080fd5b506108f860048036038101906108f39190614035565b6118ec565b604051610905919061411d565b60405180910390f35b34801561091a57600080fd5b5061093560048036038101906109309190614035565b61190c565b604051610942919061407b565b60405180910390f35b34801561095757600080fd5b50610960611924565b60405161096d919061421f565b60405180910390f35b34801561098257600080fd5b5061098b61195d565b604051610998919061407b565b60405180910390f35b3480156109ad57600080fd5b506109b6611963565b6040516109c3919061407b565b60405180910390f35b3480156109d857600080fd5b506109f360048036038101906109ee9190614138565b611969565b604051610a00919061407b565b60405180910390f35b348015610a1557600080fd5b50610a306004803603810190610a2b9190614035565b61197c565b604051610a3d919061411d565b60405180910390f35b348015610a5257600080fd5b50610a5b6119d2565b604051610a68919061442d565b60405180910390f35b348015610a7d57600080fd5b50610a86611a60565b604051610a93919061421f565b60405180910390f35b348015610aa857600080fd5b50610ab1611a99565b604051610abe919061421f565b60405180910390f35b348015610ad357600080fd5b50610aee6004803603810190610ae99190614035565b611ad2565b604051610afb919061407b565b60405180910390f35b348015610b1057600080fd5b50610b19611aea565b604051610b26919061407b565b60405180910390f35b348015610b3b57600080fd5b50610b566004803603810190610b519190614035565b611af0565b604051610b63919061411d565b60405180910390f35b348015610b7857600080fd5b50610b81611b02565b604051610b8e919061407b565b60405180910390f35b348015610ba357600080fd5b50610bac611b08565b604051610bb9919061407b565b60405180910390f35b348015610bce57600080fd5b50610bd7611b14565b604051610be4919061407b565b60405180910390f35b348015610bf957600080fd5b50610c146004803603810190610c0f9190614138565b611b1e565b604051610c21919061421f565b60405180910390f35b348015610c3657600080fd5b50610c516004803603810190610c4c9190614138565b611bca565b604051610c5e919061407b565b60405180910390f35b348015610c7357600080fd5b50610c8e6004803603810190610c899190614035565b611bdd565b604051610c9b919061407b565b60405180910390f35b348015610cb057600080fd5b50610ccb6004803603810190610cc69190614035565b611bf5565b604051610cd8919061411d565b60405180910390f35b348015610ced57600080fd5b50610cf6611c4b565b604051610d03919061407b565b60405180910390f35b348015610d1857600080fd5b50610d21611c55565b604051610d2e919061407b565b60405180910390f35b348015610d4357600080fd5b50610d4c611c5f565b604051610d59919061407b565b60405180910390f35b348015610d6e57600080fd5b50610d77611c69565b604051610d84919061442d565b60405180910390f35b348015610d9957600080fd5b50610da2611cf7565b604051610daf919061442d565b60405180910390f35b348015610dc457600080fd5b50610ddf6004803603810190610dda9190614138565b611d85565b604051610dec9190614174565b60405180910390f35b348015610e0157600080fd5b50610e0a611dc4565b604051610e17919061407b565b60405180910390f35b348015610e2c57600080fd5b50610e476004803603810190610e429190614035565b611dca565b604051610e54919061411d565b60405180910390f35b348015610e6957600080fd5b50610e72611dea565b604051610e7f919061407b565b60405180910390f35b348015610e9457600080fd5b50610e9d611df0565b604051610eaa919061407b565b60405180910390f35b348015610ebf57600080fd5b50610ec8611dfa565b604051610ed5919061442d565b60405180910390f35b348015610eea57600080fd5b50610f056004803603810190610f009190614138565b611e88565b604051610f12919061407b565b60405180910390f35b348015610f2757600080fd5b50610f30611e9b565b604051610f3d919061407b565b60405180910390f35b348015610f5257600080fd5b50610f5b611ea5565b604051610f68919061407b565b60405180910390f35b348015610f7d57600080fd5b50610f986004803603810190610f939190614035565b611eab565b604051610fa5919061407b565b60405180910390f35b348015610fba57600080fd5b50610fd56004803603810190610fd09190614138565b611ef4565b604051610fe2919061407b565b60405180910390f35b348015610ff757600080fd5b50611012600480360381019061100d9190614138565b611f07565b60405161101f919061407b565b60405180910390f35b34801561103457600080fd5b5061104f600480360381019061104a9190614138565b611f1a565b60405161105c919061407b565b60405180910390f35b34801561107157600080fd5b5061108c60048036038101906110879190614035565b611f2d565b604051611099919061411d565b60405180910390f35b3480156110ae57600080fd5b506110b7611f83565b6040516110c4919061407b565b60405180910390f35b3480156110d957600080fd5b506110f460048036038101906110ef9190614035565b611f89565b005b34801561110257600080fd5b5061110b611fd8565b604051611118919061407b565b60405180910390f35b34801561112d57600080fd5b5061114860048036038101906111439190614138565b611fe2565b6040516111559190614174565b60405180910390f35b34801561116a57600080fd5b50611173612021565b604051611180919061407b565b60405180910390f35b34801561119557600080fd5b506111b060048036038101906111ab9190614138565b612027565b6040516111bd9190614174565b60405180910390f35b3480156111d257600080fd5b506111ed60048036038101906111e89190614138565b612066565b6040516111fa919061407b565b60405180910390f35b601c6020528060005260406000206000915090505481565b61123a3373ffffffffffffffffffffffffffffffffffffffff16612079565b1561127a576040517f08c379a000000000000000000000000000000000000000000000000000000000815260040161127190614619565b60405180910390fd5b6000600560003373ffffffffffffffffffffffffffffffffffffffff1673ffffffffffffffffffffffffffffffffffffffff16815260200190815260200160002054116112fc576040517f08c379a00000000000000000000000000000000000000000000000000000000081526004016112f390614685565b60405180910390fd5b611306828261209c565b5050565b601b6020528060005260406000206000915054906101000a900460ff1681565b600a5481565b60166020528060005260406000206000915090505481565b600e5481565b6011818154811061135e57600080fd5b906000526020600020016000915054906101000a900473ffffffffffffffffffffffffffffffffffffffff1681565b600760205280600052604060002060009150905080546113ac906146d4565b80601f01602080910402602001604051908101604052809291908181526020018280546113d8906146d4565b80156114255780601f106113fa57610100808354040283529160200191611425565b820191906000526020600020905b81548152906001019060200180831161140857829003601f168201915b505050505081565b60136020528060005260406000206000915090505481565b60156020528060005260406000206000915054906101000a900460ff1681565b60606000805480602002602001604051908101604052809291908181526020016000905b828210156115355783829060005260206000200180546114a8906146d4565b80601f01602080910402602001604051908101604052809291908181526020018280546114d4906146d4565b80156115215780601f106114f657610100808354040283529160200191611521565b820191906000526020600020905b81548152906001019060200180831161150457829003601f168201915b505050505081526020019060010190611489565b50505050905090565b61155d3373ffffffffffffffffffffffffffffffffffffffff16612079565b1561159d576040517f08c379a000000000000000000000000000000000000000000000000000000000815260040161159490614619565b60405180910390fd5b8060018190555050565b6115c63373ffffffffffffffffffffffffffffffffffffffff16612079565b15611606576040517f08c379a00000000000000000000000000000000000000000000000000000000081526004016115fd90614619565b60405180910390fd5b6000600560003373ffffffffffffffffffffffffffffffffffffffff1673ffffffffffffffffffffffffffffffffffffffff1681526020019081526020016000205411611688576040517f08c379a000000000000000000000000000000000000000000000000000000000815260040161167f90614685565b60405180910390fd5b6116906122ca565b565b6060601780548060200260200160405190810160405280929190818152602001828054801561171657602002820191906000526020600020905b8160009054906101000a900473ffffffffffffffffffffffffffffffffffffffff1673ffffffffffffffffffffffffffffffffffffffff16815260200190600101908083116116cc575b5050505050905090565b600061172a61249d565b905090565b60186020528060005260406000206000915054906101000a900460ff1681565b61176e3373ffffffffffffffffffffffffffffffffffffffff16612079565b156117ae576040517f08c379a00000000000000000000000000000000000000000000000000000000081526004016117a590614619565b60405180910390fd5b8060028190555050565b6117d73373ffffffffffffffffffffffffffffffffffffffff16612079565b15611817576040517f08c379a000000000000000000000000000000000000000000000000000000000815260040161180e90614619565b60405180910390fd5b611820816124c2565b50565b600181565b600081600c81905550600c549050919050565b600061184561276a565b905090565b6014818154811061185a57600080fd5b906000526020600020016000915054906101000a900473ffffffffffffffffffffffffffffffffffffffff1681565b61189281612787565b8073ffffffffffffffffffffffffffffffffffffffff167f14ebe573ff6e00d7293f5d831eb94cade703155cd0910eb5316a7b2f17b14c3560405160405180910390a250565b6000600f54905090565b6000600b54905090565b60126020528060005260406000206000915054906101000a900460ff1681565b60056020528060005260406000206000915090505481565b6040518060400160405280600981526020017f73657175656e636572000000000000000000000000000000000000000000000081525081565b600b5481565b60105481565b6000816009819055506009549050919050565b6000601b60008373ffffffffffffffffffffffffffffffffffffffff1673ffffffffffffffffffffffffffffffffffffffff16815260200190815260200160002060009054906101000a900460ff169050919050565b60606011805480602002602001604051908101604052809291908181526020018280548015611a5657602002820191906000526020600020905b8160009054906101000a900473ffffffffffffffffffffffffffffffffffffffff1673ffffffffffffffffffffffffffffffffffffffff1681526020019060010190808311611a0c575b5050505050905090565b6040518060400160405280600981526020017f76616c696461746f72000000000000000000000000000000000000000000000081525081565b6040518060400160405280600a81526020017f7761746368746f7765720000000000000000000000000000000000000000000081525081565b60196020528060005260406000206000915090505481565b60015481565b6000611afb8261288e565b9050919050565b600f5481565b670de0b6b3a764000081565b6000601054905090565b60008181548110611b2e57600080fd5b906000526020600020016000915090508054611b49906146d4565b80601f0160208091040260200160405190810160405280929190818152602001828054611b75906146d4565b8015611bc25780601f10611b9757610100808354040283529160200191611bc2565b820191906000526020600020905b815481529060010190602001808311611ba557829003601f168201915b505050505081565b600081600b81905550600b549050919050565b60066020528060005260406000206000915090505481565b6000601260008373ffffffffffffffffffffffffffffffffffffffff1673ffffffffffffffffffffffffffffffffffffffff16815260200190815260200160002060009054906101000a900460ff169050919050565b6000600d54905090565b6000600954905090565b6000600e54905090565b6060601a805480602002602001604051908101604052809291908181526020018280548015611ced57602002820191906000526020600020905b8160009054906101000a900473ffffffffffffffffffffffffffffffffffffffff1673ffffffffffffffffffffffffffffffffffffffff1681526020019060010190808311611ca3575b5050505050905090565b60606014805480602002602001604051908101604052809291908181526020018280548015611d7b57602002820191906000526020600020905b8160009054906101000a900473ffffffffffffffffffffffffffffffffffffffff1673ffffffffffffffffffffffffffffffffffffffff1681526020019060010190808311611d31575b5050505050905090565b60178181548110611d9557600080fd5b906000526020600020016000915054906101000a900473ffffffffffffffffffffffffffffffffffffffff1681565b60095481565b60046020528060005260406000206000915054906101000a900460ff1681565b600c5481565b6000600a54905090565b60606003805480602002602001604051908101604052809291908181526020018280548015611e7e57602002820191906000526020600020905b8160009054906101000a900473ffffffffffffffffffffffffffffffffffffffff1673ffffffffffffffffffffffffffffffffffffffff1681526020019060010190808311611e34575b5050505050905090565b6000816010819055506010549050919050565b6000600854905090565b60025481565b6000600560008373ffffffffffffffffffffffffffffffffffffffff1673ffffffffffffffffffffffffffffffffffffffff168152602001908152602001600020549050919050565b600081600d81905550600d549050919050565b600081600f81905550600f549050919050565b600081600a81905550600a549050919050565b6000601860008373ffffffffffffffffffffffffffffffffffffffff1673ffffffffffffffffffffffffffffffffffffffff16815260200190815260200160002060009054906101000a900460ff169050919050565b60085481565b611f92816128e4565b8073ffffffffffffffffffffffffffffffffffffffff167f7da9849dcad1bb34324464458a33a9d0820286dedf66ec9c6669e730118d1c0660405160405180910390a250565b6000600c54905090565b60038181548110611ff257600080fd5b906000526020600020016000915054906101000a900473ffffffffffffffffffffffffffffffffffffffff1681565b600d5481565b601a818154811061203757600080fd5b906000526020600020016000915054906101000a900473ffffffffffffffffffffffffffffffffffffffff1681565b600081600e81905550600e549050919050565b6000808273ffffffffffffffffffffffffffffffffffffffff163b119050919050565b6000600560003373ffffffffffffffffffffffffffffffffffffffff1673ffffffffffffffffffffffffffffffffffffffff16815260200190815260200160002054905060008203612123576040517f08c379a000000000000000000000000000000000000000000000000000000000815260040161211a90614777565b60405180910390fd5b808210612165576040517f08c379a000000000000000000000000000000000000000000000000000000000815260040161215c90614809565b60405180910390fd5b600082826121739190614858565b905080600560003373ffffffffffffffffffffffffffffffffffffffff1673ffffffffffffffffffffffffffffffffffffffff1681526020019081526020016000208190555080600860008282546121cb9190614858565b925050819055503373ffffffffffffffffffffffffffffffffffffffff166108fc849081150290604051600060405180830381858888f19350505050158015612218573d6000803e3d6000fd5b503373ffffffffffffffffffffffffffffffffffffffff167f45a371af55b0726877a30f464edc14db5879ab096590bacce682cf6c18223596828560405161226192919061488c565b60405180910390a26122728461288e565b156122c457612280846128e4565b8373ffffffffffffffffffffffffffffffffffffffff167f7da9849dcad1bb34324464458a33a9d0820286dedf66ec9c6669e730118d1c0660405160405180910390a25b50505050565b6122d333612b9a565b612312576040517f08c379a00000000000000000000000000000000000000000000000000000000081526004016123099061494d565b60405180910390fd5b6000600560003373ffffffffffffffffffffffffffffffffffffffff1673ffffffffffffffffffffffffffffffffffffffff1681526020019081526020016000205490506000600560003373ffffffffffffffffffffffffffffffffffffffff1673ffffffffffffffffffffffffffffffffffffffff1681526020019081526020016000208190555080600860008282546123ad9190614858565b925050819055506123bd33612bf0565b6123c633612eef565b156123d5576123d433612f45565b5b6123de336131fb565b156123ed576123ec33613251565b5b6123f633613507565b15612405576124043361355d565b5b3373ffffffffffffffffffffffffffffffffffffffff166108fc829081150290604051600060405180830381858888f1935050505015801561244b573d6000803e3d6000fd5b503373ffffffffffffffffffffffffffffffffffffffff167f0f5bb82176feb1b5e747e28471aa92156a04d9f3ab9f45f28e2d704232b93f7582604051612492919061407b565b60405180910390a250565b60008060015411156124b35760015490506124bf565b670de0b6b3a764000090505b90565b6124cb81613813565b806124db57506124da816138b0565b5b806124eb57506124ea8161394d565b5b61252a576040517f08c379a0000000000000000000000000000000000000000000000000000000008152600401612521906149df565b60405180910390fd5b61253261249d565b341015612574576040517f08c379a000000000000000000000000000000000000000000000000000000000815260040161256b90614a97565b60405180910390fd5b61257e33826139ea565b6125bd576040517f08c379a00000000000000000000000000000000000000000000000000000000081526004016125b490614b29565b60405180910390fd5b6125c73382613a63565b612606576040517f08c379a00000000000000000000000000000000000000000000000000000000081526004016125fd90614bbb565b60405180910390fd5b6126103382613adc565b61264f576040517f08c379a000000000000000000000000000000000000000000000000000000000815260040161264690614c4d565b60405180910390fd5b34600860008282546126619190614c6d565b9250508190555034600560003373ffffffffffffffffffffffffffffffffffffffff1673ffffffffffffffffffffffffffffffffffffffff16815260200190815260200160002060008282546126b79190614c6d565b925050819055506126c733613b55565b6126d081613813565b156126e3576126de33613cae565b612719565b6126ec816138b0565b156126ff576126fa33613db5565b612718565b6127088161394d565b156127175761271633613ebc565b5b5b5b3373ffffffffffffffffffffffffffffffffffffffff167f9e71bc8eea02a63969f509818f2dafb9254532904319f9dbda79b67bd34a5f3d3460405161275f919061407b565b60405180910390a250565b6000806002541161277e5760019050612784565b60025490505b90565b6001601560008373ffffffffffffffffffffffffffffffffffffffff1673ffffffffffffffffffffffffffffffffffffffff16815260200190815260200160002060006101000a81548160ff021916908315150217905550601480549050601660008373ffffffffffffffffffffffffffffffffffffffff1673ffffffffffffffffffffffffffffffffffffffff168152602001908152602001600020819055506014819080600181540180825580915050600190039060005260206000200160009091909190916101000a81548173ffffffffffffffffffffffffffffffffffffffff021916908373ffffffffffffffffffffffffffffffffffffffff16021790555050565b6000601560008373ffffffffffffffffffffffffffffffffffffffff1673ffffffffffffffffffffffffffffffffffffffff16815260200190815260200160002060009054906101000a900460ff169050919050565b601480549050601660008373ffffffffffffffffffffffffffffffffffffffff1673ffffffffffffffffffffffffffffffffffffffff168152602001908152602001600020541061296a576040517f08c379a000000000000000000000000000000000000000000000000000000000815260040161296190614d13565b60405180910390fd5b6000601660008373ffffffffffffffffffffffffffffffffffffffff1673ffffffffffffffffffffffffffffffffffffffff168152602001908152602001600020549050600060016014805490506129c29190614858565b9050808214612ab1576000601482815481106129e1576129e0614d33565b5b9060005260206000200160009054906101000a900473ffffffffffffffffffffffffffffffffffffffff1690508060148481548110612a2357612a22614d33565b5b9060005260206000200160006101000a81548173ffffffffffffffffffffffffffffffffffffffff021916908373ffffffffffffffffffffffffffffffffffffffff16021790555082601660008373ffffffffffffffffffffffffffffffffffffffff1673ffffffffffffffffffffffffffffffffffffffff16815260200190815260200160002081905550505b6000601560008573ffffffffffffffffffffffffffffffffffffffff1673ffffffffffffffffffffffffffffffffffffffff16815260200190815260200160002060006101000a81548160ff0219169083151502179055506000601660008573ffffffffffffffffffffffffffffffffffffffff1673ffffffffffffffffffffffffffffffffffffffff168152602001908152602001600020819055506014805480612b6057612b5f614d62565b5b6001900381819060005260206000200160006101000a81549073ffffffffffffffffffffffffffffffffffffffff02191690559055505050565b6000600460008373ffffffffffffffffffffffffffffffffffffffff1673ffffffffffffffffffffffffffffffffffffffff16815260200190815260200160002060009054906101000a900460ff169050919050565b60095460038054905011612c39576040517f08c379a0000000000000000000000000000000000000000000000000000000008152600401612c3090614e29565b60405180910390fd5b600380549050600660008373ffffffffffffffffffffffffffffffffffffffff1673ffffffffffffffffffffffffffffffffffffffff1681526020019081526020016000205410612cbf576040517f08c379a0000000000000000000000000000000000000000000000000000000008152600401612cb690614ebb565b60405180910390fd5b6000600660008373ffffffffffffffffffffffffffffffffffffffff1673ffffffffffffffffffffffffffffffffffffffff16815260200190815260200160002054905060006001600380549050612d179190614858565b9050808214612e0657600060038281548110612d3657612d35614d33565b5b9060005260206000200160009054906101000a900473ffffffffffffffffffffffffffffffffffffffff1690508060038481548110612d7857612d77614d33565b5b9060005260206000200160006101000a81548173ffffffffffffffffffffffffffffffffffffffff021916908373ffffffffffffffffffffffffffffffffffffffff16021790555082600660008373ffffffffffffffffffffffffffffffffffffffff1673ffffffffffffffffffffffffffffffffffffffff16815260200190815260200160002081905550505b6000600460008573ffffffffffffffffffffffffffffffffffffffff1673ffffffffffffffffffffffffffffffffffffffff16815260200190815260200160002060006101000a81548160ff0219169083151502179055506000600660008573ffffffffffffffffffffffffffffffffffffffff1673ffffffffffffffffffffffffffffffffffffffff168152602001908152602001600020819055506003805480612eb557612eb4614d62565b5b6001900381819060005260206000200160006101000a81549073ffffffffffffffffffffffffffffffffffffffff02191690559055505050565b6000601260008373ffffffffffffffffffffffffffffffffffffffff1673ffffffffffffffffffffffffffffffffffffffff16815260200190815260200160002060009054906101000a900460ff169050919050565b601180549050601360008373ffffffffffffffffffffffffffffffffffffffff1673ffffffffffffffffffffffffffffffffffffffff1681526020019081526020016000205410612fcb576040517f08c379a0000000000000000000000000000000000000000000000000000000008152600401612fc290614f4d565b60405180910390fd5b6000601360008373ffffffffffffffffffffffffffffffffffffffff1673ffffffffffffffffffffffffffffffffffffffff168152602001908152602001600020549050600060016011805490506130239190614858565b90508082146131125760006011828154811061304257613041614d33565b5b9060005260206000200160009054906101000a900473ffffffffffffffffffffffffffffffffffffffff169050806011848154811061308457613083614d33565b5b9060005260206000200160006101000a81548173ffffffffffffffffffffffffffffffffffffffff021916908373ffffffffffffffffffffffffffffffffffffffff16021790555082601360008373ffffffffffffffffffffffffffffffffffffffff1673ffffffffffffffffffffffffffffffffffffffff16815260200190815260200160002081905550505b6000601260008573ffffffffffffffffffffffffffffffffffffffff1673ffffffffffffffffffffffffffffffffffffffff16815260200190815260200160002060006101000a81548160ff0219169083151502179055506000601360008573ffffffffffffffffffffffffffffffffffffffff1673ffffffffffffffffffffffffffffffffffffffff1681526020019081526020016000208190555060118054806131c1576131c0614d62565b5b6001900381819060005260206000200160006101000a81549073ffffffffffffffffffffffffffffffffffffffff02191690559055505050565b6000601860008373ffffffffffffffffffffffffffffffffffffffff1673ffffffffffffffffffffffffffffffffffffffff16815260200190815260200160002060009054906101000a900460ff169050919050565b601780549050601960008373ffffffffffffffffffffffffffffffffffffffff1673ffffffffffffffffffffffffffffffffffffffff16815260200190815260200160002054106132d7576040517f08c379a00000000000000000000000000000000000000000000000000000000081526004016132ce90614fdf565b60405180910390fd5b6000601960008373ffffffffffffffffffffffffffffffffffffffff1673ffffffffffffffffffffffffffffffffffffffff1681526020019081526020016000205490506000600160178054905061332f9190614858565b905080821461341e5760006017828154811061334e5761334d614d33565b5b9060005260206000200160009054906101000a900473ffffffffffffffffffffffffffffffffffffffff16905080601784815481106133905761338f614d33565b5b9060005260206000200160006101000a81548173ffffffffffffffffffffffffffffffffffffffff021916908373ffffffffffffffffffffffffffffffffffffffff16021790555082601960008373ffffffffffffffffffffffffffffffffffffffff1673ffffffffffffffffffffffffffffffffffffffff16815260200190815260200160002081905550505b6000601860008573ffffffffffffffffffffffffffffffffffffffff1673ffffffffffffffffffffffffffffffffffffffff16815260200190815260200160002060006101000a81548160ff0219169083151502179055506000601960008573ffffffffffffffffffffffffffffffffffffffff1673ffffffffffffffffffffffffffffffffffffffff1681526020019081526020016000208190555060178054806134cd576134cc614d62565b5b6001900381819060005260206000200160006101000a81549073ffffffffffffffffffffffffffffffffffffffff02191690559055505050565b6000601b60008373ffffffffffffffffffffffffffffffffffffffff1673ffffffffffffffffffffffffffffffffffffffff16815260200190815260200160002060009054906101000a900460ff169050919050565b601a80549050601c60008373ffffffffffffffffffffffffffffffffffffffff1673ffffffffffffffffffffffffffffffffffffffff16815260200190815260200160002054106135e3576040517f08c379a00000000000000000000000000000000000000000000000000000000081526004016135da90615071565b60405180910390fd5b6000601c60008373ffffffffffffffffffffffffffffffffffffffff1673ffffffffffffffffffffffffffffffffffffffff16815260200190815260200160002054905060006001601a8054905061363b9190614858565b905080821461372a576000601a828154811061365a57613659614d33565b5b9060005260206000200160009054906101000a900473ffffffffffffffffffffffffffffffffffffffff16905080601a848154811061369c5761369b614d33565b5b9060005260206000200160006101000a81548173ffffffffffffffffffffffffffffffffffffffff021916908373ffffffffffffffffffffffffffffffffffffffff16021790555082601c60008373ffffffffffffffffffffffffffffffffffffffff1673ffffffffffffffffffffffffffffffffffffffff16815260200190815260200160002081905550505b6000601b60008573ffffffffffffffffffffffffffffffffffffffff1673ffffffffffffffffffffffffffffffffffffffff16815260200190815260200160002060006101000a81548160ff0219169083151502179055506000601c60008573ffffffffffffffffffffffffffffffffffffffff1673ffffffffffffffffffffffffffffffffffffffff16815260200190815260200160002081905550601a8054806137d9576137d8614d62565b5b6001900381819060005260206000200160006101000a81549073ffffffffffffffffffffffffffffffffffffffff02191690559055505050565b60008160405160200161382691906150cd565b604051602081830303815290604052805190602001206040518060400160405280600981526020017f73657175656e636572000000000000000000000000000000000000000000000081525060405160200161388291906150cd565b60405160208183030381529060405280519060200120036138a657600190506138ab565b600090505b919050565b6000816040516020016138c391906150cd565b604051602081830303815290604052805190602001206040518060400160405280600a81526020017f7761746368746f7765720000000000000000000000000000000000000000000081525060405160200161391f91906150cd565b60405160208183030381529060405280519060200120036139435760019050613948565b600090505b919050565b60008160405160200161396091906150cd565b604051602081830303815290604052805190602001206040518060400160405280600981526020017f76616c696461746f7200000000000000000000000000000000000000000000008152506040516020016139bc91906150cd565b60405160208183030381529060405280519060200120036139e057600190506139e5565b600090505b919050565b60006139f582613813565b8015613a4a5750601260008473ffffffffffffffffffffffffffffffffffffffff1673ffffffffffffffffffffffffffffffffffffffff16815260200190815260200160002060009054906101000a900460ff165b15613a585760009050613a5d565b600190505b92915050565b6000613a6e826138b0565b8015613ac35750601860008473ffffffffffffffffffffffffffffffffffffffff1673ffffffffffffffffffffffffffffffffffffffff16815260200190815260200160002060009054906101000a900460ff165b15613ad15760009050613ad6565b600190505b92915050565b6000613ae78261394d565b8015613b3c5750601b60008473ffffffffffffffffffffffffffffffffffffffff1673ffffffffffffffffffffffffffffffffffffffff16815260200190815260200160002060009054906101000a900460ff165b15613b4a5760009050613b4f565b600190505b92915050565b600460008273ffffffffffffffffffffffffffffffffffffffff1673ffffffffffffffffffffffffffffffffffffffff16815260200190815260200160002060009054906101000a900460ff16613cab576001600460008373ffffffffffffffffffffffffffffffffffffffff1673ffffffffffffffffffffffffffffffffffffffff16815260200190815260200160002060006101000a81548160ff021916908315150217905550600380549050600660008373ffffffffffffffffffffffffffffffffffffffff1673ffffffffffffffffffffffffffffffffffffffff168152602001908152602001600020819055506003819080600181540180825580915050600190039060005260206000200160009091909190916101000a81548173ffffffffffffffffffffffffffffffffffffffff021916908373ffffffffffffffffffffffffffffffffffffffff1602179055505b50565b6001601260008373ffffffffffffffffffffffffffffffffffffffff1673ffffffffffffffffffffffffffffffffffffffff16815260200190815260200160002060006101000a81548160ff021916908315150217905550601180549050601360008373ffffffffffffffffffffffffffffffffffffffff1673ffffffffffffffffffffffffffffffffffffffff168152602001908152602001600020819055506011819080600181540180825580915050600190039060005260206000200160009091909190916101000a81548173ffffffffffffffffffffffffffffffffffffffff021916908373ffffffffffffffffffffffffffffffffffffffff16021790555050565b6001601860008373ffffffffffffffffffffffffffffffffffffffff1673ffffffffffffffffffffffffffffffffffffffff16815260200190815260200160002060006101000a81548160ff021916908315150217905550601780549050601960008373ffffffffffffffffffffffffffffffffffffffff1673ffffffffffffffffffffffffffffffffffffffff168152602001908152602001600020819055506017819080600181540180825580915050600190039060005260206000200160009091909190916101000a81548173ffffffffffffffffffffffffffffffffffffffff021916908373ffffffffffffffffffffffffffffffffffffffff16021790555050565b6001601b60008373ffffffffffffffffffffffffffffffffffffffff1673ffffffffffffffffffffffffffffffffffffffff16815260200190815260200160002060006101000a81548160ff021916908315150217905550601a80549050601c60008373ffffffffffffffffffffffffffffffffffffffff1673ffffffffffffffffffffffffffffffffffffffff16815260200190815260200160002081905550601a819080600181540180825580915050600190039060005260206000200160009091909190916101000a81548173ffffffffffffffffffffffffffffffffffffffff021916908373ffffffffffffffffffffffffffffffffffffffff16021790555050565b6000604051905090565b600080fd5b600080fd5b600073ffffffffffffffffffffffffffffffffffffffff82169050919050565b600061400282613fd7565b9050919050565b61401281613ff7565b811461401d57600080fd5b50565b60008135905061402f81614009565b92915050565b60006020828403121561404b5761404a613fcd565b5b600061405984828501614020565b91505092915050565b6000819050919050565b61407581614062565b82525050565b6000602082019050614090600083018461406c565b92915050565b61409f81614062565b81146140aa57600080fd5b50565b6000813590506140bc81614096565b92915050565b600080604083850312156140d9576140d8613fcd565b5b60006140e785828601614020565b92505060206140f8858286016140ad565b9150509250929050565b60008115159050919050565b61411781614102565b82525050565b6000602082019050614132600083018461410e565b92915050565b60006020828403121561414e5761414d613fcd565b5b600061415c848285016140ad565b91505092915050565b61416e81613ff7565b82525050565b60006020820190506141896000830184614165565b92915050565b600081519050919050565b600082825260208201905092915050565b60005b838110156141c95780820151818401526020810190506141ae565b60008484015250505050565b6000601f19601f8301169050919050565b60006141f18261418f565b6141fb818561419a565b935061420b8185602086016141ab565b614214816141d5565b840191505092915050565b6000602082019050818103600083015261423981846141e6565b905092915050565b600081519050919050565b600082825260208201905092915050565b6000819050602082019050919050565b600082825260208201905092915050565b60006142898261418f565b614293818561426d565b93506142a38185602086016141ab565b6142ac816141d5565b840191505092915050565b60006142c3838361427e565b905092915050565b6000602082019050919050565b60006142e382614241565b6142ed818561424c565b9350836020820285016142ff8561425d565b8060005b8581101561433b578484038952815161431c85826142b7565b9450614327836142cb565b925060208a01995050600181019050614303565b50829750879550505050505092915050565b6000602082019050818103600083015261436781846142d8565b905092915050565b600081519050919050565b600082825260208201905092915050565b6000819050602082019050919050565b6143a481613ff7565b82525050565b60006143b6838361439b565b60208301905092915050565b6000602082019050919050565b60006143da8261436f565b6143e4818561437a565b93506143ef8361438b565b8060005b8381101561442057815161440788826143aa565b9750614412836143c2565b9250506001810190506143f3565b5085935050505092915050565b6000602082019050818103600083015261444781846143cf565b905092915050565b600080fd5b600080fd5b7f4e487b7100000000000000000000000000000000000000000000000000000000600052604160045260246000fd5b614491826141d5565b810181811067ffffffffffffffff821117156144b0576144af614459565b5b80604052505050565b60006144c3613fc3565b90506144cf8282614488565b919050565b600067ffffffffffffffff8211156144ef576144ee614459565b5b6144f8826141d5565b9050602081019050919050565b82818337600083830152505050565b6000614527614522846144d4565b6144b9565b90508281526020810184848401111561454357614542614454565b5b61454e848285614505565b509392505050565b600082601f83011261456b5761456a61444f565b5b813561457b848260208601614514565b91505092915050565b60006020828403121561459a57614599613fcd565b5b600082013567ffffffffffffffff8111156145b8576145b7613fd2565b5b6145c484828501614556565b91505092915050565b7f4f6e6c7920454f412063616e2063616c6c2066756e6374696f6e000000000000600082015250565b6000614603601a8361419a565b915061460e826145cd565b602082019050919050565b60006020820190508181036000830152614632816145f6565b9050919050565b7f4f6e6c79207374616b65722063616e2063616c6c2066756e6374696f6e000000600082015250565b600061466f601d8361419a565b915061467a82614639565b602082019050919050565b6000602082019050818103600083015261469e81614662565b9050919050565b7f4e487b7100000000000000000000000000000000000000000000000000000000600052602260045260246000fd5b600060028204905060018216806146ec57607f821691505b6020821081036146ff576146fe6146a5565b5b50919050565b7f536c61736820616d6f756e74206e6565647320746f2062652070726f7669646560008201527f642e000000000000000000000000000000000000000000000000000000000000602082015250565b600061476160228361419a565b915061476c82614705565b604082019050919050565b6000602082019050818103600083015261479081614754565b9050919050565b7f536c61736820616d6f756e742063616e6e6f742062652067726561746572207460008201527f68616e207374616b656420616d6f756e74000000000000000000000000000000602082015250565b60006147f360318361419a565b91506147fe82614797565b604082019050919050565b60006020820190508181036000830152614822816147e6565b9050919050565b7f4e487b7100000000000000000000000000000000000000000000000000000000600052601160045260246000fd5b600061486382614062565b915061486e83614062565b925082820390508181111561488657614885614829565b5b92915050565b60006040820190506148a1600083018561406c565b6148ae602083018461406c565b9392505050565b7f53656e6465722068617320746f2062652070617274206f66207374616b696e6760008201527f20706f6c6c20696e206f7264657220746f20756e7374616b652069747320736860208201527f6172652e20556e7374616b652072656a65637465642e00000000000000000000604082015250565b600061493760568361419a565b9150614942826148b5565b606082019050919050565b600060208201905081810360008301526149668161492a565b9050919050565b7f50726f7669646564206e6f646520747970652068617320746f206d617463682060008201527f617661696c61626c65206e6f6465207479706573000000000000000000000000602082015250565b60006149c960348361419a565b91506149d48261496d565b604082019050919050565b600060208201905081810360008301526149f8816149bc565b9050919050565b7f496e737566696369656e74207374616b696e6720616d6f756e742070726f766960008201527f6465642e2048617320746f206265206c6172676572207468616e207374616b6960208201527f6e67206d696e696d756d207468726573686f6c64000000000000000000000000604082015250565b6000614a8160548361419a565b9150614a8c826149ff565b606082019050919050565b60006020820190508181036000830152614ab081614a74565b9050919050565b7f53656e64657220697320616c72656164792073657175656e6365722e2052656a60008201527f656374696e67207374616b6520726571756573742e0000000000000000000000602082015250565b6000614b1360358361419a565b9150614b1e82614ab7565b604082019050919050565b60006020820190508181036000830152614b4281614b06565b9050919050565b7f53656e64657220697320616c7265616479207761746368746f7765722e20526560008201527f6a656374696e67207374616b6520726571756573742e00000000000000000000602082015250565b6000614ba560368361419a565b9150614bb082614b49565b604082019050919050565b60006020820190508181036000830152614bd481614b98565b9050919050565b7f53656e64657220697320616c72656164792076616c696461746f722e2052656a60008201527f656374696e67207374616b6520726571756573742e0000000000000000000000602082015250565b6000614c3760358361419a565b9150614c4282614bdb565b604082019050919050565b60006020820190508181036000830152614c6681614c2a565b9050919050565b6000614c7882614062565b9150614c8383614062565b9250828201905080821115614c9b57614c9a614829565b5b92915050565b7f6d616c6963696f7573207061727469636970616e7420696e646578206f75742060008201527f6f662072616e676520696e206d617070696e6700000000000000000000000000602082015250565b6000614cfd60338361419a565b9150614d0882614ca1565b604082019050919050565b60006020820190508181036000830152614d2c81614cf0565b9050919050565b7f4e487b7100000000000000000000000000000000000000000000000000000000600052603260045260246000fd5b7f4e487b7100000000000000000000000000000000000000000000000000000000600052603160045260246000fd5b7f5374616b696e67207061727469636970616e74732063616e2774206265206c6560008201527f7373207468616e20746865206d696e696d756d2072657175697265642070617260208201527f7469636970616e74206e756d0000000000000000000000000000000000000000604082015250565b6000614e13604c8361419a565b9150614e1e82614d91565b606082019050919050565b60006020820190508181036000830152614e4281614e06565b9050919050565b7f7061727469636970616e7420696e646578206f7574206f662072616e6765206960008201527f6e206d617070696e670000000000000000000000000000000000000000000000602082015250565b6000614ea560298361419a565b9150614eb082614e49565b604082019050919050565b60006020820190508181036000830152614ed481614e98565b9050919050565b7f73657175656e63657220696e646578206f7574206f662072616e676520696e2060008201527f6d617070696e6700000000000000000000000000000000000000000000000000602082015250565b6000614f3760278361419a565b9150614f4282614edb565b604082019050919050565b60006020820190508181036000830152614f6681614f2a565b9050919050565b7f7761746368746f77657220696e646578206f7574206f662072616e676520696e60008201527f206d617070696e67000000000000000000000000000000000000000000000000602082015250565b6000614fc960288361419a565b9150614fd482614f6d565b604082019050919050565b60006020820190508181036000830152614ff881614fbc565b9050919050565b7f76616c696461746f7220696e646578206f7574206f662072616e676520696e2060008201527f6d617070696e6700000000000000000000000000000000000000000000000000602082015250565b600061505b60278361419a565b915061506682614fff565b604082019050919050565b6000602082019050818103600083015261508a8161504e565b9050919050565b600081905092915050565b60006150a78261418f565b6150b18185615091565b93506150c18185602086016141ab565b80840191505092915050565b60006150d9828461509c565b91508190509291505056fea26469706673582212205e474430d87ecd3bd986d97533ec670325eca11f36e0a1e7382f4188184fb96064736f6c63430008110033",
  "linkReferences": {},
  "deployedLinkReferences": {}
}