{
  "_format": "hh-sol-artifact-1",
  "contractName": "Staking",
  "sourceName": "contracts/Staking.sol",
  "abi": [
    {
      "inputs": [
        {
          "internalType": "uint256",
          "name": "minNumParticipants",
          "type": "uint256"
        },
        {
          "internalType": "uint256",
          "name": "maxNumParticipants",
          "type": "uint256"
        }
      ],
      "stateMutability": "nonpayable",
      "type": "constructor"
    },
    {
      "anonymous": false,
      "inputs": [
        {
          "indexed": true,
          "internalType": "address",
          "name": "account",
          "type": "address"
        }
      ],
      "name": "DisputeResolutionBegan",
      "type": "event"
    },
    {
      "anonymous": false,
      "inputs": [
        {
          "indexed": true,
          "internalType": "address",
          "name": "account",
          "type": "address"
        }
      ],
      "name": "DisputeResolutionEnded",
      "type": "event"
    },
    {
      "anonymous": false,
      "inputs": [
        {
          "indexed": true,
          "internalType": "address",
          "name": "account",
          "type": "address"
        },
        {
          "indexed": false,
          "internalType": "uint256",
          "name": "newAmount",
          "type": "uint256"
        },
        {
          "indexed": false,
          "internalType": "uint256",
          "name": "slashedAmount",
          "type": "uint256"
        }
      ],
      "name": "Slashed",
      "type": "event"
    },
    {
      "anonymous": false,
      "inputs": [
        {
          "indexed": true,
          "internalType": "address",
          "name": "account",
          "type": "address"
        },
        {
          "indexed": false,
          "internalType": "uint256",
          "name": "amount",
          "type": "uint256"
        }
      ],
      "name": "Staked",
      "type": "event"
    },
    {
      "anonymous": false,
      "inputs": [
        {
          "indexed": true,
          "internalType": "address",
          "name": "account",
          "type": "address"
        },
        {
          "indexed": false,
          "internalType": "uint256",
          "name": "amount",
          "type": "uint256"
        }
      ],
      "name": "Unstaked",
      "type": "event"
    },
    {
      "inputs": [
        {
          "internalType": "uint256",
          "name": "",
          "type": "uint256"
        }
      ],
      "name": "AVAILABLE_NODE_TYPES",
      "outputs": [
        {
          "internalType": "string",
          "name": "",
          "type": "string"
        }
      ],
      "stateMutability": "view",
      "type": "function"
    },
    {
      "inputs": [
        {
          "internalType": "address",
          "name": "sequencerAddr",
          "type": "address"
        }
      ],
      "name": "BeginDisputeResolution",
      "outputs": [],
      "stateMutability": "nonpayable",
      "type": "function"
    },
    {
      "inputs": [],
      "name": "DEFAULT_STAKING_THRESHOLD",
      "outputs": [
        {
          "internalType": "uint256",
          "name": "",
          "type": "uint256"
        }
      ],
      "stateMutability": "view",
      "type": "function"
    },
    {
      "inputs": [
        {
          "internalType": "address",
          "name": "sequencerAddr",
          "type": "address"
        }
      ],
      "name": "EndDisputeResolution",
      "outputs": [],
      "stateMutability": "nonpayable",
      "type": "function"
    },
    {
      "inputs": [],
      "name": "GetAvailableNodeTypes",
      "outputs": [
        {
          "internalType": "string[]",
          "name": "",
          "type": "string[]"
        }
      ],
      "stateMutability": "view",
      "type": "function"
    },
    {
      "inputs": [
        {
          "internalType": "address",
          "name": "addr",
          "type": "address"
        }
      ],
      "name": "GetCurrentAccountStakedAmount",
      "outputs": [
        {
          "internalType": "uint256",
          "name": "",
          "type": "uint256"
        }
      ],
      "stateMutability": "view",
      "type": "function"
    },
    {
      "inputs": [],
      "name": "GetCurrentParticipants",
      "outputs": [
        {
          "internalType": "address[]",
          "name": "",
          "type": "address[]"
        }
      ],
      "stateMutability": "view",
      "type": "function"
    },
    {
      "inputs": [],
      "name": "GetCurrentSequencers",
      "outputs": [
        {
          "internalType": "address[]",
          "name": "",
          "type": "address[]"
        }
      ],
      "stateMutability": "view",
      "type": "function"
    },
    {
      "inputs": [],
      "name": "GetCurrentSequencersInProbation",
      "outputs": [
        {
          "internalType": "address[]",
          "name": "",
          "type": "address[]"
        }
      ],
      "stateMutability": "view",
      "type": "function"
    },
    {
      "inputs": [],
      "name": "GetCurrentStakedAmount",
      "outputs": [
        {
          "internalType": "uint256",
          "name": "",
          "type": "uint256"
        }
      ],
      "stateMutability": "view",
      "type": "function"
    },
    {
      "inputs": [],
      "name": "GetCurrentStakingThreshold",
      "outputs": [
        {
          "internalType": "uint256",
          "name": "",
          "type": "uint256"
        }
      ],
      "stateMutability": "view",
      "type": "function"
    },
    {
      "inputs": [],
      "name": "GetCurrentValidators",
      "outputs": [
        {
          "internalType": "address[]",
          "name": "",
          "type": "address[]"
        }
      ],
      "stateMutability": "view",
      "type": "function"
    },
    {
      "inputs": [],
      "name": "GetCurrentWatchtowers",
      "outputs": [
        {
          "internalType": "address[]",
          "name": "",
          "type": "address[]"
        }
      ],
      "stateMutability": "view",
      "type": "function"
    },
    {
      "inputs": [
        {
          "internalType": "address",
          "name": "sequencerAddr",
          "type": "address"
        }
      ],
      "name": "GetIsSequencerInProbation",
      "outputs": [
        {
          "internalType": "bool",
          "name": "",
          "type": "bool"
        }
      ],
      "stateMutability": "view",
      "type": "function"
    },
    {
      "inputs": [],
      "name": "GetMaxNumParticipants",
      "outputs": [
        {
          "internalType": "uint256",
          "name": "",
          "type": "uint256"
        }
      ],
      "stateMutability": "view",
      "type": "function"
    },
    {
      "inputs": [],
      "name": "GetMaxNumSequencers",
      "outputs": [
        {
          "internalType": "uint256",
          "name": "",
          "type": "uint256"
        }
      ],
      "stateMutability": "view",
      "type": "function"
    },
    {
      "inputs": [],
      "name": "GetMaxNumValidators",
      "outputs": [
        {
          "internalType": "uint256",
          "name": "",
          "type": "uint256"
        }
      ],
      "stateMutability": "view",
      "type": "function"
    },
    {
      "inputs": [],
      "name": "GetMaxNumWatchtowers",
      "outputs": [
        {
          "internalType": "uint256",
          "name": "",
          "type": "uint256"
        }
      ],
      "stateMutability": "view",
      "type": "function"
    },
    {
      "inputs": [],
      "name": "GetMinNumParticipants",
      "outputs": [
        {
          "internalType": "uint256",
          "name": "",
          "type": "uint256"
        }
      ],
      "stateMutability": "view",
      "type": "function"
    },
    {
      "inputs": [],
      "name": "GetMinNumSequencers",
      "outputs": [
        {
          "internalType": "uint256",
          "name": "",
          "type": "uint256"
        }
      ],
      "stateMutability": "view",
      "type": "function"
    },
    {
      "inputs": [],
      "name": "GetMinNumValidators",
      "outputs": [
        {
          "internalType": "uint256",
          "name": "",
          "type": "uint256"
        }
      ],
      "stateMutability": "view",
      "type": "function"
    },
    {
      "inputs": [],
      "name": "GetMinNumWatchtowers",
      "outputs": [
        {
          "internalType": "uint256",
          "name": "",
          "type": "uint256"
        }
      ],
      "stateMutability": "view",
      "type": "function"
    },
    {
      "inputs": [
        {
          "internalType": "address",
          "name": "addr",
          "type": "address"
        }
      ],
      "name": "IsSequencer",
      "outputs": [
        {
          "internalType": "bool",
          "name": "",
          "type": "bool"
        }
      ],
      "stateMutability": "view",
      "type": "function"
    },
    {
      "inputs": [
        {
          "internalType": "address",
          "name": "addr",
          "type": "address"
        }
      ],
      "name": "IsValidator",
      "outputs": [
        {
          "internalType": "bool",
          "name": "",
          "type": "bool"
        }
      ],
      "stateMutability": "view",
      "type": "function"
    },
    {
      "inputs": [
        {
          "internalType": "address",
          "name": "addr",
          "type": "address"
        }
      ],
      "name": "IsWatchtower",
      "outputs": [
        {
          "internalType": "bool",
          "name": "",
          "type": "bool"
        }
      ],
      "stateMutability": "view",
      "type": "function"
    },
    {
      "inputs": [],
      "name": "NODE_SEQUENCER",
      "outputs": [
        {
          "internalType": "string",
          "name": "",
          "type": "string"
        }
      ],
      "stateMutability": "view",
      "type": "function"
    },
    {
      "inputs": [],
      "name": "NODE_VALIDATOR",
      "outputs": [
        {
          "internalType": "string",
          "name": "",
          "type": "string"
        }
      ],
      "stateMutability": "view",
      "type": "function"
    },
    {
      "inputs": [],
      "name": "NODE_WATCHTOWER",
      "outputs": [
        {
          "internalType": "string",
          "name": "",
          "type": "string"
        }
      ],
      "stateMutability": "view",
      "type": "function"
    },
    {
      "inputs": [
        {
          "internalType": "uint256",
          "name": "maximumNumParticipants",
          "type": "uint256"
        }
      ],
      "name": "SetMaxNumParticipants",
      "outputs": [
        {
          "internalType": "uint256",
          "name": "",
          "type": "uint256"
        }
      ],
      "stateMutability": "nonpayable",
      "type": "function"
    },
    {
      "inputs": [
        {
          "internalType": "uint256",
          "name": "maximumNumSequencers",
          "type": "uint256"
        }
      ],
      "name": "SetMaxNumSequencers",
      "outputs": [
        {
          "internalType": "uint256",
          "name": "",
          "type": "uint256"
        }
      ],
      "stateMutability": "nonpayable",
      "type": "function"
    },
    {
      "inputs": [
        {
          "internalType": "uint256",
          "name": "maximumNumValidators",
          "type": "uint256"
        }
      ],
      "name": "SetMaxNumValidators",
      "outputs": [
        {
          "internalType": "uint256",
          "name": "",
          "type": "uint256"
        }
      ],
      "stateMutability": "nonpayable",
      "type": "function"
    },
    {
      "inputs": [
        {
          "internalType": "uint256",
          "name": "maximumNumWatchtowers",
          "type": "uint256"
        }
      ],
      "name": "SetMaxNumWatchtowers",
      "outputs": [
        {
          "internalType": "uint256",
          "name": "",
          "type": "uint256"
        }
      ],
      "stateMutability": "nonpayable",
      "type": "function"
    },
    {
      "inputs": [
        {
          "internalType": "uint256",
          "name": "minimumNumParticipants",
          "type": "uint256"
        }
      ],
      "name": "SetMinNumParticipants",
      "outputs": [
        {
          "internalType": "uint256",
          "name": "",
          "type": "uint256"
        }
      ],
      "stateMutability": "nonpayable",
      "type": "function"
    },
    {
      "inputs": [
        {
          "internalType": "uint256",
          "name": "minimumNumSequencers",
          "type": "uint256"
        }
      ],
      "name": "SetMinNumSequencers",
      "outputs": [
        {
          "internalType": "uint256",
          "name": "",
          "type": "uint256"
        }
      ],
      "stateMutability": "nonpayable",
      "type": "function"
    },
    {
      "inputs": [
        {
          "internalType": "uint256",
          "name": "minimumNumValidators",
          "type": "uint256"
        }
      ],
      "name": "SetMinNumValidators",
      "outputs": [
        {
          "internalType": "uint256",
          "name": "",
          "type": "uint256"
        }
      ],
      "stateMutability": "nonpayable",
      "type": "function"
    },
    {
      "inputs": [
        {
          "internalType": "uint256",
          "name": "minimumNumWatchtowers",
          "type": "uint256"
        }
      ],
      "name": "SetMinNumWatchtowers",
      "outputs": [
        {
          "internalType": "uint256",
          "name": "",
          "type": "uint256"
        }
      ],
      "stateMutability": "nonpayable",
      "type": "function"
    },
    {
      "inputs": [
        {
          "internalType": "uint256",
          "name": "newThreshold",
          "type": "uint256"
        }
      ],
      "name": "SetStakingMinThreshold",
      "outputs": [],
      "stateMutability": "nonpayable",
      "type": "function"
    },
    {
      "inputs": [
        {
          "internalType": "address",
          "name": "",
          "type": "address"
        }
      ],
      "name": "_addressToIsParticipant",
      "outputs": [
        {
          "internalType": "bool",
          "name": "",
          "type": "bool"
        }
      ],
      "stateMutability": "view",
      "type": "function"
    },
    {
      "inputs": [
        {
          "internalType": "address",
          "name": "",
          "type": "address"
        }
      ],
      "name": "_addressToIsSequencer",
      "outputs": [
        {
          "internalType": "bool",
          "name": "",
          "type": "bool"
        }
      ],
      "stateMutability": "view",
      "type": "function"
    },
    {
      "inputs": [
        {
          "internalType": "address",
          "name": "",
          "type": "address"
        }
      ],
      "name": "_addressToIsSequencerInProbationAddr",
      "outputs": [
        {
          "internalType": "bool",
          "name": "",
          "type": "bool"
        }
      ],
      "stateMutability": "view",
      "type": "function"
    },
    {
      "inputs": [
        {
          "internalType": "address",
          "name": "",
          "type": "address"
        }
      ],
      "name": "_addressToIsValidator",
      "outputs": [
        {
          "internalType": "bool",
          "name": "",
          "type": "bool"
        }
      ],
      "stateMutability": "view",
      "type": "function"
    },
    {
      "inputs": [
        {
          "internalType": "address",
          "name": "",
          "type": "address"
        }
      ],
      "name": "_addressToIsWatchtower",
      "outputs": [
        {
          "internalType": "bool",
          "name": "",
          "type": "bool"
        }
      ],
      "stateMutability": "view",
      "type": "function"
    },
    {
      "inputs": [
        {
          "internalType": "address",
          "name": "",
          "type": "address"
        }
      ],
      "name": "_addressToNodeType",
      "outputs": [
        {
          "internalType": "string",
          "name": "",
          "type": "string"
        }
      ],
      "stateMutability": "view",
      "type": "function"
    },
    {
      "inputs": [
        {
          "internalType": "address",
          "name": "",
          "type": "address"
        }
      ],
      "name": "_addressToParticipantIndex",
      "outputs": [
        {
          "internalType": "uint256",
          "name": "",
          "type": "uint256"
        }
      ],
      "stateMutability": "view",
      "type": "function"
    },
    {
      "inputs": [
        {
          "internalType": "address",
          "name": "",
          "type": "address"
        }
      ],
      "name": "_addressToSequencerInProbationIndex",
      "outputs": [
        {
          "internalType": "uint256",
          "name": "",
          "type": "uint256"
        }
      ],
      "stateMutability": "view",
      "type": "function"
    },
    {
      "inputs": [
        {
          "internalType": "address",
          "name": "",
          "type": "address"
        }
      ],
      "name": "_addressToSequencerIndex",
      "outputs": [
        {
          "internalType": "uint256",
          "name": "",
          "type": "uint256"
        }
      ],
      "stateMutability": "view",
      "type": "function"
    },
    {
      "inputs": [
        {
          "internalType": "address",
          "name": "",
          "type": "address"
        }
      ],
      "name": "_addressToStakedAmount",
      "outputs": [
        {
          "internalType": "uint256",
          "name": "",
          "type": "uint256"
        }
      ],
      "stateMutability": "view",
      "type": "function"
    },
    {
      "inputs": [
        {
          "internalType": "address",
          "name": "",
          "type": "address"
        }
      ],
      "name": "_addressToValidatorIndex",
      "outputs": [
        {
          "internalType": "uint256",
          "name": "",
          "type": "uint256"
        }
      ],
      "stateMutability": "view",
      "type": "function"
    },
    {
      "inputs": [
        {
          "internalType": "address",
          "name": "",
          "type": "address"
        }
      ],
      "name": "_addressToWatchtowerIndex",
      "outputs": [
        {
          "internalType": "uint256",
          "name": "",
          "type": "uint256"
        }
      ],
      "stateMutability": "view",
      "type": "function"
    },
    {
      "inputs": [],
      "name": "_maximumNumParticipants",
      "outputs": [
        {
          "internalType": "uint256",
          "name": "",
          "type": "uint256"
        }
      ],
      "stateMutability": "view",
      "type": "function"
    },
    {
      "inputs": [],
      "name": "_maximumNumSequencers",
      "outputs": [
        {
          "internalType": "uint256",
          "name": "",
          "type": "uint256"
        }
      ],
      "stateMutability": "view",
      "type": "function"
    },
    {
      "inputs": [],
      "name": "_maximumNumValidators",
      "outputs": [
        {
          "internalType": "uint256",
          "name": "",
          "type": "uint256"
        }
      ],
      "stateMutability": "view",
      "type": "function"
    },
    {
      "inputs": [],
      "name": "_maximumNumWatchtowers",
      "outputs": [
        {
          "internalType": "uint256",
          "name": "",
          "type": "uint256"
        }
      ],
      "stateMutability": "view",
      "type": "function"
    },
    {
      "inputs": [],
      "name": "_minStakingThreshold",
      "outputs": [
        {
          "internalType": "uint256",
          "name": "",
          "type": "uint256"
        }
      ],
      "stateMutability": "view",
      "type": "function"
    },
    {
      "inputs": [],
      "name": "_minimumNumParticipants",
      "outputs": [
        {
          "internalType": "uint256",
          "name": "",
          "type": "uint256"
        }
      ],
      "stateMutability": "view",
      "type": "function"
    },
    {
      "inputs": [],
      "name": "_minimumNumSequencers",
      "outputs": [
        {
          "internalType": "uint256",
          "name": "",
          "type": "uint256"
        }
      ],
      "stateMutability": "view",
      "type": "function"
    },
    {
      "inputs": [],
      "name": "_minimumNumValidators",
      "outputs": [
        {
          "internalType": "uint256",
          "name": "",
          "type": "uint256"
        }
      ],
      "stateMutability": "view",
      "type": "function"
    },
    {
      "inputs": [],
      "name": "_minimumNumWatchtowers",
      "outputs": [
        {
          "internalType": "uint256",
          "name": "",
          "type": "uint256"
        }
      ],
      "stateMutability": "view",
      "type": "function"
    },
    {
      "inputs": [
        {
          "internalType": "uint256",
          "name": "",
          "type": "uint256"
        }
      ],
      "name": "_participants",
      "outputs": [
        {
          "internalType": "address",
          "name": "",
          "type": "address"
        }
      ],
      "stateMutability": "view",
      "type": "function"
    },
    {
      "inputs": [
        {
          "internalType": "uint256",
          "name": "",
          "type": "uint256"
        }
      ],
      "name": "_sequencers",
      "outputs": [
        {
          "internalType": "address",
          "name": "",
          "type": "address"
        }
      ],
      "stateMutability": "view",
      "type": "function"
    },
    {
      "inputs": [
        {
          "internalType": "uint256",
          "name": "",
          "type": "uint256"
        }
      ],
      "name": "_sequencers_in_probation",
      "outputs": [
        {
          "internalType": "address",
          "name": "",
          "type": "address"
        }
      ],
      "stateMutability": "view",
      "type": "function"
    },
    {
      "inputs": [],
      "name": "_stakedAmount",
      "outputs": [
        {
          "internalType": "uint256",
          "name": "",
          "type": "uint256"
        }
      ],
      "stateMutability": "view",
      "type": "function"
    },
    {
      "inputs": [
        {
          "internalType": "uint256",
          "name": "",
          "type": "uint256"
        }
      ],
      "name": "_validators",
      "outputs": [
        {
          "internalType": "address",
          "name": "",
          "type": "address"
        }
      ],
      "stateMutability": "view",
      "type": "function"
    },
    {
      "inputs": [
        {
          "internalType": "uint256",
          "name": "",
          "type": "uint256"
        }
      ],
      "name": "_watchtowers",
      "outputs": [
        {
          "internalType": "address",
          "name": "",
          "type": "address"
        }
      ],
      "stateMutability": "view",
      "type": "function"
    },
    {
      "inputs": [
        {
          "internalType": "uint256",
          "name": "slashAmount",
          "type": "uint256"
        }
      ],
      "name": "slash",
      "outputs": [],
      "stateMutability": "nonpayable",
      "type": "function"
    },
    {
      "inputs": [
        {
          "internalType": "string",
          "name": "nodeType",
          "type": "string"
        }
      ],
      "name": "stake",
      "outputs": [],
      "stateMutability": "payable",
      "type": "function"
    },
    {
      "inputs": [],
      "name": "unstake",
      "outputs": [],
      "stateMutability": "nonpayable",
      "type": "function"
    }
  ],
  "bytecode": "0x608060405260405180606001604052806040518060400160405280600981526020017f73657175656e636572000000000000000000000000000000000000000000000081525081526020016040518060400160405280600a81526020017f7761746368746f7765720000000000000000000000000000000000000000000081525081526020016040518060400160405280600981526020017f76616c696461746f7200000000000000000000000000000000000000000000008152508152506000906003620000d092919062000160565b50348015620000de57600080fd5b50604051620056103803806200561083398181016040528101906200010491906200028d565b808211156200014a576040517f08c379a0000000000000000000000000000000000000000000000000000000008152600401620001419062000381565b60405180910390fd5b81600881905550806009819055505050620006fa565b828054828255906000526020600020908101928215620001ad579160200282015b82811115620001ac5782518290816200019b919062000613565b509160200191906001019062000181565b5b509050620001bc9190620001c0565b5090565b5b80821115620001e45760008181620001da9190620001e8565b50600101620001c1565b5090565b508054620001f6906200040c565b6000825580601f106200020a57506200022b565b601f0160209004906000526020600020908101906200022a91906200022e565b5b50565b5b80821115620002495760008160009055506001016200022f565b5090565b600080fd5b6000819050919050565b620002678162000252565b81146200027357600080fd5b50565b60008151905062000287816200025c565b92915050565b60008060408385031215620002a757620002a66200024d565b5b6000620002b78582860162000276565b9250506020620002ca8582860162000276565b9150509250929050565b600082825260208201905092915050565b7f4d696e207061727469636970616e7473206e756d6265722063616e206e6f742060008201527f62652067726561746572207468616e206d6178206e756d206f6620706172746960208201527f636970616e747300000000000000000000000000000000000000000000000000604082015250565b600062000369604783620002d4565b91506200037682620002e5565b606082019050919050565b600060208201905081810360008301526200039c816200035a565b9050919050565b600081519050919050565b7f4e487b7100000000000000000000000000000000000000000000000000000000600052604160045260246000fd5b7f4e487b7100000000000000000000000000000000000000000000000000000000600052602260045260246000fd5b600060028204905060018216806200042557607f821691505b6020821081036200043b576200043a620003dd565b5b50919050565b60008190508160005260206000209050919050565b60006020601f8301049050919050565b600082821b905092915050565b600060088302620004a57fffffffffffffffffffffffffffffffffffffffffffffffffffffffffffffffff8262000466565b620004b1868362000466565b95508019841693508086168417925050509392505050565b6000819050919050565b6000620004f4620004ee620004e88462000252565b620004c9565b62000252565b9050919050565b6000819050919050565b6200051083620004d3565b620005286200051f82620004fb565b84845462000473565b825550505050565b600090565b6200053f62000530565b6200054c81848462000505565b505050565b5b8181101562000574576200056860008262000535565b60018101905062000552565b5050565b601f821115620005c3576200058d8162000441565b620005988462000456565b81016020851015620005a8578190505b620005c0620005b78562000456565b83018262000551565b50505b505050565b600082821c905092915050565b6000620005e860001984600802620005c8565b1980831691505092915050565b6000620006038383620005d5565b9150826002028217905092915050565b6200061e82620003a3565b67ffffffffffffffff8111156200063a5762000639620003ae565b5b6200064682546200040c565b6200065382828562000578565b600060209050601f8311600181146200068b576000841562000676578287015190505b620006828582620005f5565b865550620006f2565b601f1984166200069b8662000441565b60005b82811015620006c5578489015182556001820191506020850194506020810190506200069e565b86831015620006e55784890151620006e1601f891682620005d5565b8355505b6001600288020188555050505b505050505050565b614f06806200070a6000396000f3fe6080604052600436106103e45760003560e01c8063a145012611610208578063c795c07711610118578063e028aadf116100ab578063eec9f52e1161007a578063eec9f52e14611020578063f196f8241461104b578063f76a1ee014611088578063f90ecacc146110b3578063f9a43d4c146110f0576103e4565b8063e028aadf14610f52578063e2b5769d14610f8f578063e387a7ed14610fcc578063ebe4ad6f14610ff7576103e4565b8063d3be81a8116100e7578063d3be81a814610e70578063d79f10d214610e9b578063d80ff2b914610ed8578063dea7977414610f15576103e4565b8063c795c07714610db2578063c8fa5fe914610ddd578063d140551714610e08578063d147c38714610e33576103e4565b8063bb5a26ff1161019b578063c36352e11161016a578063c36352e114610cb7578063c402d43c14610ce2578063c48c5f3714610d0d578063c6199c1f14610d4a578063c70966fb14610d75576103e4565b8063bb5a26ff14610bf9578063bd9ed0b314610c36578063bfc5aeee14610c61578063c2ccacdf14610c8c576103e4565b8063b17ca89c116101d7578063b17ca89c14610b17578063b41327ff14610b42578063b61b127f14610b7f578063b8889f0214610bbc576103e4565b8063a145012614610a59578063a17e8b3d14610a84578063af6da36e14610ac1578063aff1ea7614610aec576103e4565b806346f45b8d11610303578063855598b71161029657806398ff822d1161026557806398ff822d1461095e57806399a7c7e41461099b5780639a083e82146109c65780639f9f7101146109f1578063a0f14bff14610a1c576103e4565b8063855598b7146108a05780638d084148146108cb57806390e7c862146108f657806398abb25e14610921576103e4565b80636edf2481116102d25780636edf2481146107d0578063760118b6146107fb5780637b339263146108265780637dceceb814610863576103e4565b806346f45b8d14610711578063560854f61461072d578063584060bb1461076a5780636b2f7635146107a7576103e4565b80631efcf4d11161037b5780633603da841161034a5780633603da8414610655578063409b9ece1461068057806340b00753146106ab57806345bc4d10146106e8576103e4565b80631efcf4d1146105ad5780631f2743b6146105ea5780632c404e9c146106155780632def66201461063e576103e4565b80630fb18ccc116103b75780630fb18ccc146104cb57806319908df8146104f657806319ae6764146105335780631cb9bdca14610570576103e4565b806302b75199146103e9578063065ae17114610426578063068946e8146104635780630e533c8e1461048e575b600080fd5b3480156103f557600080fd5b50610410600480360381019061040b9190613e61565b61112d565b60405161041d9190613ea7565b60405180910390f35b34801561043257600080fd5b5061044d60048036038101906104489190613e61565b611145565b60405161045a9190613edd565b60405180910390f35b34801561046f57600080fd5b50610478611165565b6040516104859190613ea7565b60405180910390f35b34801561049a57600080fd5b506104b560048036038101906104b09190613e61565b61116b565b6040516104c29190613ea7565b60405180910390f35b3480156104d757600080fd5b506104e0611183565b6040516104ed9190613ea7565b60405180910390f35b34801561050257600080fd5b5061051d60048036038101906105189190613f24565b611189565b60405161052a9190613f60565b60405180910390f35b34801561053f57600080fd5b5061055a60048036038101906105559190613e61565b6111c8565b604051610567919061400b565b60405180910390f35b34801561057c57600080fd5b5061059760048036038101906105929190613e61565b611268565b6040516105a49190613ea7565b60405180910390f35b3480156105b957600080fd5b506105d460048036038101906105cf9190613e61565b611280565b6040516105e19190613edd565b60405180910390f35b3480156105f657600080fd5b506105ff6112a0565b60405161060c9190614139565b60405180910390f35b34801561062157600080fd5b5061063c60048036038101906106379190613f24565b611379565b005b34801561064a57600080fd5b506106536113e2565b005b34801561066157600080fd5b5061066a6114cd565b6040516106779190614219565b60405180910390f35b34801561068c57600080fd5b5061069561155b565b6040516106a29190613ea7565b60405180910390f35b3480156106b757600080fd5b506106d260048036038101906106cd9190613e61565b61156a565b6040516106df9190613edd565b60405180910390f35b3480156106f457600080fd5b5061070f600480360381019061070a9190613f24565b61158a565b005b61072b60048036038101906107269190614370565b611677565b005b34801561073957600080fd5b50610754600480360381019061074f9190613f24565b6116e2565b6040516107619190613ea7565b60405180910390f35b34801561077657600080fd5b50610791600480360381019061078c9190613f24565b6116f5565b60405161079e9190613f60565b60405180910390f35b3480156107b357600080fd5b506107ce60048036038101906107c99190613e61565b611734565b005b3480156107dc57600080fd5b506107e5611783565b6040516107f29190613ea7565b60405180910390f35b34801561080757600080fd5b5061081061178d565b60405161081d9190613ea7565b60405180910390f35b34801561083257600080fd5b5061084d60048036038101906108489190613e61565b611797565b60405161085a9190613edd565b60405180910390f35b34801561086f57600080fd5b5061088a60048036038101906108859190613e61565b6117b7565b6040516108979190613ea7565b60405180910390f35b3480156108ac57600080fd5b506108b56117cf565b6040516108c2919061400b565b60405180910390f35b3480156108d757600080fd5b506108e0611808565b6040516108ed9190613ea7565b60405180910390f35b34801561090257600080fd5b5061090b61180e565b6040516109189190613ea7565b60405180910390f35b34801561092d57600080fd5b5061094860048036038101906109439190613f24565b611814565b6040516109559190613ea7565b60405180910390f35b34801561096a57600080fd5b5061098560048036038101906109809190613e61565b611827565b6040516109929190613edd565b60405180910390f35b3480156109a757600080fd5b506109b061187d565b6040516109bd9190614219565b60405180910390f35b3480156109d257600080fd5b506109db61190b565b6040516109e8919061400b565b60405180910390f35b3480156109fd57600080fd5b50610a06611944565b604051610a13919061400b565b60405180910390f35b348015610a2857600080fd5b50610a436004803603810190610a3e9190613e61565b61197d565b604051610a509190613ea7565b60405180910390f35b348015610a6557600080fd5b50610a6e611995565b604051610a7b9190613ea7565b60405180910390f35b348015610a9057600080fd5b50610aab6004803603810190610aa69190613e61565b61199b565b604051610ab89190613edd565b60405180910390f35b348015610acd57600080fd5b50610ad66119ad565b604051610ae39190613ea7565b60405180910390f35b348015610af857600080fd5b50610b016119b3565b604051610b0e9190613ea7565b60405180910390f35b348015610b2357600080fd5b50610b2c6119bf565b604051610b399190613ea7565b60405180910390f35b348015610b4e57600080fd5b50610b696004803603810190610b649190613f24565b6119c9565b604051610b76919061400b565b60405180910390f35b348015610b8b57600080fd5b50610ba66004803603810190610ba19190613f24565b611a75565b604051610bb39190613ea7565b60405180910390f35b348015610bc857600080fd5b50610be36004803603810190610bde9190613e61565b611a88565b604051610bf09190613ea7565b60405180910390f35b348015610c0557600080fd5b50610c206004803603810190610c1b9190613e61565b611aa0565b604051610c2d9190613edd565b60405180910390f35b348015610c4257600080fd5b50610c4b611af6565b604051610c589190613ea7565b60405180910390f35b348015610c6d57600080fd5b50610c76611b00565b604051610c839190613ea7565b60405180910390f35b348015610c9857600080fd5b50610ca1611b0a565b604051610cae9190613ea7565b60405180910390f35b348015610cc357600080fd5b50610ccc611b14565b604051610cd99190614219565b60405180910390f35b348015610cee57600080fd5b50610cf7611ba2565b604051610d049190614219565b60405180910390f35b348015610d1957600080fd5b50610d346004803603810190610d2f9190613f24565b611c30565b604051610d419190613f60565b60405180910390f35b348015610d5657600080fd5b50610d5f611c6f565b604051610d6c9190613ea7565b60405180910390f35b348015610d8157600080fd5b50610d9c6004803603810190610d979190613e61565b611c75565b604051610da99190613edd565b60405180910390f35b348015610dbe57600080fd5b50610dc7611c95565b604051610dd49190613ea7565b60405180910390f35b348015610de957600080fd5b50610df2611c9b565b604051610dff9190613ea7565b60405180910390f35b348015610e1457600080fd5b50610e1d611ca5565b604051610e2a9190614219565b60405180910390f35b348015610e3f57600080fd5b50610e5a6004803603810190610e559190613f24565b611d33565b604051610e679190613ea7565b60405180910390f35b348015610e7c57600080fd5b50610e85611d46565b604051610e929190613ea7565b60405180910390f35b348015610ea757600080fd5b50610ec26004803603810190610ebd9190613e61565b611d50565b604051610ecf9190613ea7565b60405180910390f35b348015610ee457600080fd5b50610eff6004803603810190610efa9190613f24565b611d99565b604051610f0c9190613ea7565b60405180910390f35b348015610f2157600080fd5b50610f3c6004803603810190610f379190613f24565b611dac565b604051610f499190613ea7565b60405180910390f35b348015610f5e57600080fd5b50610f796004803603810190610f749190613f24565b611dbf565b604051610f869190613ea7565b60405180910390f35b348015610f9b57600080fd5b50610fb66004803603810190610fb19190613e61565b611dd2565b604051610fc39190613edd565b60405180910390f35b348015610fd857600080fd5b50610fe1611e28565b604051610fee9190613ea7565b60405180910390f35b34801561100357600080fd5b5061101e60048036038101906110199190613e61565b611e2e565b005b34801561102c57600080fd5b50611035611e7d565b6040516110429190613ea7565b60405180910390f35b34801561105757600080fd5b50611072600480360381019061106d9190613f24565b611e87565b60405161107f9190613f60565b60405180910390f35b34801561109457600080fd5b5061109d611ec6565b6040516110aa9190613ea7565b60405180910390f35b3480156110bf57600080fd5b506110da60048036038101906110d59190613f24565b611ecc565b6040516110e79190613f60565b60405180910390f35b3480156110fc57600080fd5b5061111760048036038101906111129190613f24565b611f0b565b6040516111249190613ea7565b60405180910390f35b601b6020528060005260406000206000915090505481565b601a6020528060005260406000206000915054906101000a900460ff1681565b60095481565b60156020528060005260406000206000915090505481565b600d5481565b6010818154811061119957600080fd5b906000526020600020016000915054906101000a900473ffffffffffffffffffffffffffffffffffffffff1681565b600660205280600052604060002060009150905080546111e7906143e8565b80601f0160208091040260200160405190810160405280929190818152602001828054611213906143e8565b80156112605780601f1061123557610100808354040283529160200191611260565b820191906000526020600020905b81548152906001019060200180831161124357829003601f168201915b505050505081565b60126020528060005260406000206000915090505481565b60146020528060005260406000206000915054906101000a900460ff1681565b60606000805480602002602001604051908101604052809291908181526020016000905b828210156113705783829060005260206000200180546112e3906143e8565b80601f016020809104026020016040519081016040528092919081815260200182805461130f906143e8565b801561135c5780601f106113315761010080835404028352916020019161135c565b820191906000526020600020905b81548152906001019060200180831161133f57829003601f168201915b5050505050815260200190600101906112c4565b50505050905090565b6113983373ffffffffffffffffffffffffffffffffffffffff16611f1e565b156113d8576040517f08c379a00000000000000000000000000000000000000000000000000000000081526004016113cf90614465565b60405180910390fd5b8060018190555050565b6114013373ffffffffffffffffffffffffffffffffffffffff16611f1e565b15611441576040517f08c379a000000000000000000000000000000000000000000000000000000000815260040161143890614465565b60405180910390fd5b6000600460003373ffffffffffffffffffffffffffffffffffffffff1673ffffffffffffffffffffffffffffffffffffffff16815260200190815260200160002054116114c3576040517f08c379a00000000000000000000000000000000000000000000000000000000081526004016114ba906144d1565b60405180910390fd5b6114cb611f41565b565b6060601680548060200260200160405190810160405280929190818152602001828054801561155157602002820191906000526020600020905b8160009054906101000a900473ffffffffffffffffffffffffffffffffffffffff1673ffffffffffffffffffffffffffffffffffffffff1681526020019060010190808311611507575b5050505050905090565b6000611565612114565b905090565b60176020528060005260406000206000915054906101000a900460ff1681565b6115a93373ffffffffffffffffffffffffffffffffffffffff16611f1e565b156115e9576040517f08c379a00000000000000000000000000000000000000000000000000000000081526004016115e090614465565b60405180910390fd5b6000600460003373ffffffffffffffffffffffffffffffffffffffff1673ffffffffffffffffffffffffffffffffffffffff168152602001908152602001600020541161166b576040517f08c379a0000000000000000000000000000000000000000000000000000000008152600401611662906144d1565b60405180910390fd5b61167481612139565b50565b6116963373ffffffffffffffffffffffffffffffffffffffff16611f1e565b156116d6576040517f08c379a00000000000000000000000000000000000000000000000000000000081526004016116cd90614465565b60405180910390fd5b6116df8161230b565b50565b600081600b81905550600b549050919050565b6013818154811061170557600080fd5b906000526020600020016000915054906101000a900473ffffffffffffffffffffffffffffffffffffffff1681565b61173d816125b3565b8073ffffffffffffffffffffffffffffffffffffffff167f14ebe573ff6e00d7293f5d831eb94cade703155cd0910eb5316a7b2f17b14c3560405160405180910390a250565b6000600e54905090565b6000600a54905090565b60116020528060005260406000206000915054906101000a900460ff1681565b60046020528060005260406000206000915090505481565b6040518060400160405280600981526020017f73657175656e636572000000000000000000000000000000000000000000000081525081565b600a5481565b600f5481565b6000816008819055506008549050919050565b6000601a60008373ffffffffffffffffffffffffffffffffffffffff1673ffffffffffffffffffffffffffffffffffffffff16815260200190815260200160002060009054906101000a900460ff169050919050565b6060601080548060200260200160405190810160405280929190818152602001828054801561190157602002820191906000526020600020905b8160009054906101000a900473ffffffffffffffffffffffffffffffffffffffff1673ffffffffffffffffffffffffffffffffffffffff16815260200190600101908083116118b7575b5050505050905090565b6040518060400160405280600981526020017f76616c696461746f72000000000000000000000000000000000000000000000081525081565b6040518060400160405280600a81526020017f7761746368746f7765720000000000000000000000000000000000000000000081525081565b60186020528060005260406000206000915090505481565b60015481565b60006119a6826126ba565b9050919050565b600e5481565b670de0b6b3a764000081565b6000600f54905090565b600081815481106119d957600080fd5b9060005260206000200160009150905080546119f4906143e8565b80601f0160208091040260200160405190810160405280929190818152602001828054611a20906143e8565b8015611a6d5780601f10611a4257610100808354040283529160200191611a6d565b820191906000526020600020905b815481529060010190602001808311611a5057829003601f168201915b505050505081565b600081600a81905550600a549050919050565b60056020528060005260406000206000915090505481565b6000601160008373ffffffffffffffffffffffffffffffffffffffff1673ffffffffffffffffffffffffffffffffffffffff16815260200190815260200160002060009054906101000a900460ff169050919050565b6000600c54905090565b6000600854905090565b6000600d54905090565b60606019805480602002602001604051908101604052809291908181526020018280548015611b9857602002820191906000526020600020905b8160009054906101000a900473ffffffffffffffffffffffffffffffffffffffff1673ffffffffffffffffffffffffffffffffffffffff1681526020019060010190808311611b4e575b5050505050905090565b60606013805480602002602001604051908101604052809291908181526020018280548015611c2657602002820191906000526020600020905b8160009054906101000a900473ffffffffffffffffffffffffffffffffffffffff1673ffffffffffffffffffffffffffffffffffffffff1681526020019060010190808311611bdc575b5050505050905090565b60168181548110611c4057600080fd5b906000526020600020016000915054906101000a900473ffffffffffffffffffffffffffffffffffffffff1681565b60085481565b60036020528060005260406000206000915054906101000a900460ff1681565b600b5481565b6000600954905090565b60606002805480602002602001604051908101604052809291908181526020018280548015611d2957602002820191906000526020600020905b8160009054906101000a900473ffffffffffffffffffffffffffffffffffffffff1673ffffffffffffffffffffffffffffffffffffffff1681526020019060010190808311611cdf575b5050505050905090565b600081600f81905550600f549050919050565b6000600754905090565b6000600460008373ffffffffffffffffffffffffffffffffffffffff1673ffffffffffffffffffffffffffffffffffffffff168152602001908152602001600020549050919050565b600081600c81905550600c549050919050565b600081600e81905550600e549050919050565b6000816009819055506009549050919050565b6000601760008373ffffffffffffffffffffffffffffffffffffffff1673ffffffffffffffffffffffffffffffffffffffff16815260200190815260200160002060009054906101000a900460ff169050919050565b60075481565b611e3781612710565b8073ffffffffffffffffffffffffffffffffffffffff167f7da9849dcad1bb34324464458a33a9d0820286dedf66ec9c6669e730118d1c0660405160405180910390a250565b6000600b54905090565b60028181548110611e9757600080fd5b906000526020600020016000915054906101000a900473ffffffffffffffffffffffffffffffffffffffff1681565b600c5481565b60198181548110611edc57600080fd5b906000526020600020016000915054906101000a900473ffffffffffffffffffffffffffffffffffffffff1681565b600081600d81905550600d549050919050565b6000808273ffffffffffffffffffffffffffffffffffffffff163b119050919050565b611f4a336129c6565b611f89576040517f08c379a0000000000000000000000000000000000000000000000000000000008152600401611f8090614589565b60405180910390fd5b6000600460003373ffffffffffffffffffffffffffffffffffffffff1673ffffffffffffffffffffffffffffffffffffffff1681526020019081526020016000205490506000600460003373ffffffffffffffffffffffffffffffffffffffff1673ffffffffffffffffffffffffffffffffffffffff16815260200190815260200160002081905550806007600082825461202491906145d8565b9250508190555061203433612a1c565b61203d33612d1b565b1561204c5761204b33612d71565b5b61205533613027565b15612064576120633361307d565b5b61206d33613333565b1561207c5761207b33613389565b5b3373ffffffffffffffffffffffffffffffffffffffff166108fc829081150290604051600060405180830381858888f193505050501580156120c2573d6000803e3d6000fd5b503373ffffffffffffffffffffffffffffffffffffffff167f0f5bb82176feb1b5e747e28471aa92156a04d9f3ab9f45f28e2d704232b93f75826040516121099190613ea7565b60405180910390a250565b600080600154111561212a576001549050612136565b670de0b6b3a764000090505b90565b6000600460003373ffffffffffffffffffffffffffffffffffffffff1673ffffffffffffffffffffffffffffffffffffffff168152602001908152602001600020549050600082036121c0576040517f08c379a00000000000000000000000000000000000000000000000000000000081526004016121b79061467e565b60405180910390fd5b808210612202576040517f08c379a00000000000000000000000000000000000000000000000000000000081526004016121f990614710565b60405180910390fd5b6000828261221091906145d8565b905080600460003373ffffffffffffffffffffffffffffffffffffffff1673ffffffffffffffffffffffffffffffffffffffff16815260200190815260200160002081905550806007600082825461226891906145d8565b925050819055503373ffffffffffffffffffffffffffffffffffffffff166108fc849081150290604051600060405180830381858888f193505050501580156122b5573d6000803e3d6000fd5b503373ffffffffffffffffffffffffffffffffffffffff167f45a371af55b0726877a30f464edc14db5879ab096590bacce682cf6c1822359682856040516122fe929190614730565b60405180910390a2505050565b6123148161363f565b806123245750612323816136dc565b5b80612334575061233381613779565b5b612373576040517f08c379a000000000000000000000000000000000000000000000000000000000815260040161236a906147cb565b60405180910390fd5b61237b612114565b3410156123bd576040517f08c379a00000000000000000000000000000000000000000000000000000000081526004016123b490614883565b60405180910390fd5b6123c73382613816565b612406576040517f08c379a00000000000000000000000000000000000000000000000000000000081526004016123fd90614915565b60405180910390fd5b612410338261388f565b61244f576040517f08c379a0000000000000000000000000000000000000000000000000000000008152600401612446906149a7565b60405180910390fd5b6124593382613908565b612498576040517f08c379a000000000000000000000000000000000000000000000000000000000815260040161248f90614a39565b60405180910390fd5b34600760008282546124aa9190614a59565b9250508190555034600460003373ffffffffffffffffffffffffffffffffffffffff1673ffffffffffffffffffffffffffffffffffffffff16815260200190815260200160002060008282546125009190614a59565b9250508190555061251033613981565b6125198161363f565b1561252c5761252733613ada565b612562565b612535816136dc565b156125485761254333613be1565b612561565b61255181613779565b156125605761255f33613ce8565b5b5b5b3373ffffffffffffffffffffffffffffffffffffffff167f9e71bc8eea02a63969f509818f2dafb9254532904319f9dbda79b67bd34a5f3d346040516125a89190613ea7565b60405180910390a250565b6001601460008373ffffffffffffffffffffffffffffffffffffffff1673ffffffffffffffffffffffffffffffffffffffff16815260200190815260200160002060006101000a81548160ff021916908315150217905550601380549050601560008373ffffffffffffffffffffffffffffffffffffffff1673ffffffffffffffffffffffffffffffffffffffff168152602001908152602001600020819055506013819080600181540180825580915050600190039060005260206000200160009091909190916101000a81548173ffffffffffffffffffffffffffffffffffffffff021916908373ffffffffffffffffffffffffffffffffffffffff16021790555050565b6000601460008373ffffffffffffffffffffffffffffffffffffffff1673ffffffffffffffffffffffffffffffffffffffff16815260200190815260200160002060009054906101000a900460ff169050919050565b601380549050601560008373ffffffffffffffffffffffffffffffffffffffff1673ffffffffffffffffffffffffffffffffffffffff1681526020019081526020016000205410612796576040517f08c379a000000000000000000000000000000000000000000000000000000000815260040161278d90614aff565b60405180910390fd5b6000601560008373ffffffffffffffffffffffffffffffffffffffff1673ffffffffffffffffffffffffffffffffffffffff168152602001908152602001600020549050600060016013805490506127ee91906145d8565b90508082146128dd5760006013828154811061280d5761280c614b1f565b5b9060005260206000200160009054906101000a900473ffffffffffffffffffffffffffffffffffffffff169050806013848154811061284f5761284e614b1f565b5b9060005260206000200160006101000a81548173ffffffffffffffffffffffffffffffffffffffff021916908373ffffffffffffffffffffffffffffffffffffffff16021790555082601560008373ffffffffffffffffffffffffffffffffffffffff1673ffffffffffffffffffffffffffffffffffffffff16815260200190815260200160002081905550505b6000601460008573ffffffffffffffffffffffffffffffffffffffff1673ffffffffffffffffffffffffffffffffffffffff16815260200190815260200160002060006101000a81548160ff0219169083151502179055506000601560008573ffffffffffffffffffffffffffffffffffffffff1673ffffffffffffffffffffffffffffffffffffffff16815260200190815260200160002081905550601380548061298c5761298b614b4e565b5b6001900381819060005260206000200160006101000a81549073ffffffffffffffffffffffffffffffffffffffff02191690559055505050565b6000600360008373ffffffffffffffffffffffffffffffffffffffff1673ffffffffffffffffffffffffffffffffffffffff16815260200190815260200160002060009054906101000a900460ff169050919050565b60085460028054905011612a65576040517f08c379a0000000000000000000000000000000000000000000000000000000008152600401612a5c90614c15565b60405180910390fd5b600280549050600560008373ffffffffffffffffffffffffffffffffffffffff1673ffffffffffffffffffffffffffffffffffffffff1681526020019081526020016000205410612aeb576040517f08c379a0000000000000000000000000000000000000000000000000000000008152600401612ae290614ca7565b60405180910390fd5b6000600560008373ffffffffffffffffffffffffffffffffffffffff1673ffffffffffffffffffffffffffffffffffffffff16815260200190815260200160002054905060006001600280549050612b4391906145d8565b9050808214612c3257600060028281548110612b6257612b61614b1f565b5b9060005260206000200160009054906101000a900473ffffffffffffffffffffffffffffffffffffffff1690508060028481548110612ba457612ba3614b1f565b5b9060005260206000200160006101000a81548173ffffffffffffffffffffffffffffffffffffffff021916908373ffffffffffffffffffffffffffffffffffffffff16021790555082600560008373ffffffffffffffffffffffffffffffffffffffff1673ffffffffffffffffffffffffffffffffffffffff16815260200190815260200160002081905550505b6000600360008573ffffffffffffffffffffffffffffffffffffffff1673ffffffffffffffffffffffffffffffffffffffff16815260200190815260200160002060006101000a81548160ff0219169083151502179055506000600560008573ffffffffffffffffffffffffffffffffffffffff1673ffffffffffffffffffffffffffffffffffffffff168152602001908152602001600020819055506002805480612ce157612ce0614b4e565b5b6001900381819060005260206000200160006101000a81549073ffffffffffffffffffffffffffffffffffffffff02191690559055505050565b6000601160008373ffffffffffffffffffffffffffffffffffffffff1673ffffffffffffffffffffffffffffffffffffffff16815260200190815260200160002060009054906101000a900460ff169050919050565b601080549050601260008373ffffffffffffffffffffffffffffffffffffffff1673ffffffffffffffffffffffffffffffffffffffff1681526020019081526020016000205410612df7576040517f08c379a0000000000000000000000000000000000000000000000000000000008152600401612dee90614d39565b60405180910390fd5b6000601260008373ffffffffffffffffffffffffffffffffffffffff1673ffffffffffffffffffffffffffffffffffffffff16815260200190815260200160002054905060006001601080549050612e4f91906145d8565b9050808214612f3e57600060108281548110612e6e57612e6d614b1f565b5b9060005260206000200160009054906101000a900473ffffffffffffffffffffffffffffffffffffffff1690508060108481548110612eb057612eaf614b1f565b5b9060005260206000200160006101000a81548173ffffffffffffffffffffffffffffffffffffffff021916908373ffffffffffffffffffffffffffffffffffffffff16021790555082601260008373ffffffffffffffffffffffffffffffffffffffff1673ffffffffffffffffffffffffffffffffffffffff16815260200190815260200160002081905550505b6000601160008573ffffffffffffffffffffffffffffffffffffffff1673ffffffffffffffffffffffffffffffffffffffff16815260200190815260200160002060006101000a81548160ff0219169083151502179055506000601260008573ffffffffffffffffffffffffffffffffffffffff1673ffffffffffffffffffffffffffffffffffffffff168152602001908152602001600020819055506010805480612fed57612fec614b4e565b5b6001900381819060005260206000200160006101000a81549073ffffffffffffffffffffffffffffffffffffffff02191690559055505050565b6000601760008373ffffffffffffffffffffffffffffffffffffffff1673ffffffffffffffffffffffffffffffffffffffff16815260200190815260200160002060009054906101000a900460ff169050919050565b601680549050601860008373ffffffffffffffffffffffffffffffffffffffff1673ffffffffffffffffffffffffffffffffffffffff1681526020019081526020016000205410613103576040517f08c379a00000000000000000000000000000000000000000000000000000000081526004016130fa90614dcb565b60405180910390fd5b6000601860008373ffffffffffffffffffffffffffffffffffffffff1673ffffffffffffffffffffffffffffffffffffffff1681526020019081526020016000205490506000600160168054905061315b91906145d8565b905080821461324a5760006016828154811061317a57613179614b1f565b5b9060005260206000200160009054906101000a900473ffffffffffffffffffffffffffffffffffffffff16905080601684815481106131bc576131bb614b1f565b5b9060005260206000200160006101000a81548173ffffffffffffffffffffffffffffffffffffffff021916908373ffffffffffffffffffffffffffffffffffffffff16021790555082601860008373ffffffffffffffffffffffffffffffffffffffff1673ffffffffffffffffffffffffffffffffffffffff16815260200190815260200160002081905550505b6000601760008573ffffffffffffffffffffffffffffffffffffffff1673ffffffffffffffffffffffffffffffffffffffff16815260200190815260200160002060006101000a81548160ff0219169083151502179055506000601860008573ffffffffffffffffffffffffffffffffffffffff1673ffffffffffffffffffffffffffffffffffffffff1681526020019081526020016000208190555060168054806132f9576132f8614b4e565b5b6001900381819060005260206000200160006101000a81549073ffffffffffffffffffffffffffffffffffffffff02191690559055505050565b6000601a60008373ffffffffffffffffffffffffffffffffffffffff1673ffffffffffffffffffffffffffffffffffffffff16815260200190815260200160002060009054906101000a900460ff169050919050565b601980549050601b60008373ffffffffffffffffffffffffffffffffffffffff1673ffffffffffffffffffffffffffffffffffffffff168152602001908152602001600020541061340f576040517f08c379a000000000000000000000000000000000000000000000000000000000815260040161340690614e5d565b60405180910390fd5b6000601b60008373ffffffffffffffffffffffffffffffffffffffff1673ffffffffffffffffffffffffffffffffffffffff1681526020019081526020016000205490506000600160198054905061346791906145d8565b90508082146135565760006019828154811061348657613485614b1f565b5b9060005260206000200160009054906101000a900473ffffffffffffffffffffffffffffffffffffffff16905080601984815481106134c8576134c7614b1f565b5b9060005260206000200160006101000a81548173ffffffffffffffffffffffffffffffffffffffff021916908373ffffffffffffffffffffffffffffffffffffffff16021790555082601b60008373ffffffffffffffffffffffffffffffffffffffff1673ffffffffffffffffffffffffffffffffffffffff16815260200190815260200160002081905550505b6000601a60008573ffffffffffffffffffffffffffffffffffffffff1673ffffffffffffffffffffffffffffffffffffffff16815260200190815260200160002060006101000a81548160ff0219169083151502179055506000601b60008573ffffffffffffffffffffffffffffffffffffffff1673ffffffffffffffffffffffffffffffffffffffff16815260200190815260200160002081905550601980548061360557613604614b4e565b5b6001900381819060005260206000200160006101000a81549073ffffffffffffffffffffffffffffffffffffffff02191690559055505050565b6000816040516020016136529190614eb9565b604051602081830303815290604052805190602001206040518060400160405280600981526020017f73657175656e63657200000000000000000000000000000000000000000000008152506040516020016136ae9190614eb9565b60405160208183030381529060405280519060200120036136d257600190506136d7565b600090505b919050565b6000816040516020016136ef9190614eb9565b604051602081830303815290604052805190602001206040518060400160405280600a81526020017f7761746368746f7765720000000000000000000000000000000000000000000081525060405160200161374b9190614eb9565b604051602081830303815290604052805190602001200361376f5760019050613774565b600090505b919050565b60008160405160200161378c9190614eb9565b604051602081830303815290604052805190602001206040518060400160405280600981526020017f76616c696461746f7200000000000000000000000000000000000000000000008152506040516020016137e89190614eb9565b604051602081830303815290604052805190602001200361380c5760019050613811565b600090505b919050565b60006138218261363f565b80156138765750601160008473ffffffffffffffffffffffffffffffffffffffff1673ffffffffffffffffffffffffffffffffffffffff16815260200190815260200160002060009054906101000a900460ff165b156138845760009050613889565b600190505b92915050565b600061389a826136dc565b80156138ef5750601760008473ffffffffffffffffffffffffffffffffffffffff1673ffffffffffffffffffffffffffffffffffffffff16815260200190815260200160002060009054906101000a900460ff165b156138fd5760009050613902565b600190505b92915050565b600061391382613779565b80156139685750601a60008473ffffffffffffffffffffffffffffffffffffffff1673ffffffffffffffffffffffffffffffffffffffff16815260200190815260200160002060009054906101000a900460ff165b15613976576000905061397b565b600190505b92915050565b600360008273ffffffffffffffffffffffffffffffffffffffff1673ffffffffffffffffffffffffffffffffffffffff16815260200190815260200160002060009054906101000a900460ff16613ad7576001600360008373ffffffffffffffffffffffffffffffffffffffff1673ffffffffffffffffffffffffffffffffffffffff16815260200190815260200160002060006101000a81548160ff021916908315150217905550600280549050600560008373ffffffffffffffffffffffffffffffffffffffff1673ffffffffffffffffffffffffffffffffffffffff168152602001908152602001600020819055506002819080600181540180825580915050600190039060005260206000200160009091909190916101000a81548173ffffffffffffffffffffffffffffffffffffffff021916908373ffffffffffffffffffffffffffffffffffffffff1602179055505b50565b6001601160008373ffffffffffffffffffffffffffffffffffffffff1673ffffffffffffffffffffffffffffffffffffffff16815260200190815260200160002060006101000a81548160ff021916908315150217905550601080549050601260008373ffffffffffffffffffffffffffffffffffffffff1673ffffffffffffffffffffffffffffffffffffffff168152602001908152602001600020819055506010819080600181540180825580915050600190039060005260206000200160009091909190916101000a81548173ffffffffffffffffffffffffffffffffffffffff021916908373ffffffffffffffffffffffffffffffffffffffff16021790555050565b6001601760008373ffffffffffffffffffffffffffffffffffffffff1673ffffffffffffffffffffffffffffffffffffffff16815260200190815260200160002060006101000a81548160ff021916908315150217905550601680549050601860008373ffffffffffffffffffffffffffffffffffffffff1673ffffffffffffffffffffffffffffffffffffffff168152602001908152602001600020819055506016819080600181540180825580915050600190039060005260206000200160009091909190916101000a81548173ffffffffffffffffffffffffffffffffffffffff021916908373ffffffffffffffffffffffffffffffffffffffff16021790555050565b6001601a60008373ffffffffffffffffffffffffffffffffffffffff1673ffffffffffffffffffffffffffffffffffffffff16815260200190815260200160002060006101000a81548160ff021916908315150217905550601980549050601b60008373ffffffffffffffffffffffffffffffffffffffff1673ffffffffffffffffffffffffffffffffffffffff168152602001908152602001600020819055506019819080600181540180825580915050600190039060005260206000200160009091909190916101000a81548173ffffffffffffffffffffffffffffffffffffffff021916908373ffffffffffffffffffffffffffffffffffffffff16021790555050565b6000604051905090565b600080fd5b600080fd5b600073ffffffffffffffffffffffffffffffffffffffff82169050919050565b6000613e2e82613e03565b9050919050565b613e3e81613e23565b8114613e4957600080fd5b50565b600081359050613e5b81613e35565b92915050565b600060208284031215613e7757613e76613df9565b5b6000613e8584828501613e4c565b91505092915050565b6000819050919050565b613ea181613e8e565b82525050565b6000602082019050613ebc6000830184613e98565b92915050565b60008115159050919050565b613ed781613ec2565b82525050565b6000602082019050613ef26000830184613ece565b92915050565b613f0181613e8e565b8114613f0c57600080fd5b50565b600081359050613f1e81613ef8565b92915050565b600060208284031215613f3a57613f39613df9565b5b6000613f4884828501613f0f565b91505092915050565b613f5a81613e23565b82525050565b6000602082019050613f756000830184613f51565b92915050565b600081519050919050565b600082825260208201905092915050565b60005b83811015613fb5578082015181840152602081019050613f9a565b60008484015250505050565b6000601f19601f8301169050919050565b6000613fdd82613f7b565b613fe78185613f86565b9350613ff7818560208601613f97565b61400081613fc1565b840191505092915050565b600060208201905081810360008301526140258184613fd2565b905092915050565b600081519050919050565b600082825260208201905092915050565b6000819050602082019050919050565b600082825260208201905092915050565b600061407582613f7b565b61407f8185614059565b935061408f818560208601613f97565b61409881613fc1565b840191505092915050565b60006140af838361406a565b905092915050565b6000602082019050919050565b60006140cf8261402d565b6140d98185614038565b9350836020820285016140eb85614049565b8060005b85811015614127578484038952815161410885826140a3565b9450614113836140b7565b925060208a019950506001810190506140ef565b50829750879550505050505092915050565b6000602082019050818103600083015261415381846140c4565b905092915050565b600081519050919050565b600082825260208201905092915050565b6000819050602082019050919050565b61419081613e23565b82525050565b60006141a28383614187565b60208301905092915050565b6000602082019050919050565b60006141c68261415b565b6141d08185614166565b93506141db83614177565b8060005b8381101561420c5781516141f38882614196565b97506141fe836141ae565b9250506001810190506141df565b5085935050505092915050565b6000602082019050818103600083015261423381846141bb565b905092915050565b600080fd5b600080fd5b7f4e487b7100000000000000000000000000000000000000000000000000000000600052604160045260246000fd5b61427d82613fc1565b810181811067ffffffffffffffff8211171561429c5761429b614245565b5b80604052505050565b60006142af613def565b90506142bb8282614274565b919050565b600067ffffffffffffffff8211156142db576142da614245565b5b6142e482613fc1565b9050602081019050919050565b82818337600083830152505050565b600061431361430e846142c0565b6142a5565b90508281526020810184848401111561432f5761432e614240565b5b61433a8482856142f1565b509392505050565b600082601f8301126143575761435661423b565b5b8135614367848260208601614300565b91505092915050565b60006020828403121561438657614385613df9565b5b600082013567ffffffffffffffff8111156143a4576143a3613dfe565b5b6143b084828501614342565b91505092915050565b7f4e487b7100000000000000000000000000000000000000000000000000000000600052602260045260246000fd5b6000600282049050600182168061440057607f821691505b602082108103614413576144126143b9565b5b50919050565b7f4f6e6c7920454f412063616e2063616c6c2066756e6374696f6e000000000000600082015250565b600061444f601a83613f86565b915061445a82614419565b602082019050919050565b6000602082019050818103600083015261447e81614442565b9050919050565b7f4f6e6c79207374616b65722063616e2063616c6c2066756e6374696f6e000000600082015250565b60006144bb601d83613f86565b91506144c682614485565b602082019050919050565b600060208201905081810360008301526144ea816144ae565b9050919050565b7f53656e6465722068617320746f2062652070617274206f66207374616b696e6760008201527f20706f6c6c20696e206f7264657220746f20756e7374616b652069747320736860208201527f6172652e20556e7374616b652072656a65637465642e00000000000000000000604082015250565b6000614573605683613f86565b915061457e826144f1565b606082019050919050565b600060208201905081810360008301526145a281614566565b9050919050565b7f4e487b7100000000000000000000000000000000000000000000000000000000600052601160045260246000fd5b60006145e382613e8e565b91506145ee83613e8e565b9250828203905081811115614606576146056145a9565b5b92915050565b7f536c61736820616d6f756e74206e6565647320746f2062652070726f7669646560008201527f642e000000000000000000000000000000000000000000000000000000000000602082015250565b6000614668602283613f86565b91506146738261460c565b604082019050919050565b600060208201905081810360008301526146978161465b565b9050919050565b7f536c61736820616d6f756e742063616e6e6f742062652067726561746572207460008201527f68616e207374616b656420616d6f756e74000000000000000000000000000000602082015250565b60006146fa603183613f86565b91506147058261469e565b604082019050919050565b60006020820190508181036000830152614729816146ed565b9050919050565b60006040820190506147456000830185613e98565b6147526020830184613e98565b9392505050565b7f50726f7669646564206e6f646520747970652068617320746f206d617463682060008201527f617661696c61626c65206e6f6465207479706573000000000000000000000000602082015250565b60006147b5603483613f86565b91506147c082614759565b604082019050919050565b600060208201905081810360008301526147e4816147a8565b9050919050565b7f496e737566696369656e74207374616b696e6720616d6f756e742070726f766960008201527f6465642e2048617320746f206265206c6172676572207468616e207374616b6960208201527f6e67206d696e696d756d207468726573686f6c64000000000000000000000000604082015250565b600061486d605483613f86565b9150614878826147eb565b606082019050919050565b6000602082019050818103600083015261489c81614860565b9050919050565b7f53656e64657220697320616c72656164792073657175656e6365722e2052656a60008201527f656374696e67207374616b6520726571756573742e0000000000000000000000602082015250565b60006148ff603583613f86565b915061490a826148a3565b604082019050919050565b6000602082019050818103600083015261492e816148f2565b9050919050565b7f53656e64657220697320616c7265616479207761746368746f7765722e20526560008201527f6a656374696e67207374616b6520726571756573742e00000000000000000000602082015250565b6000614991603683613f86565b915061499c82614935565b604082019050919050565b600060208201905081810360008301526149c081614984565b9050919050565b7f53656e64657220697320616c72656164792076616c696461746f722e2052656a60008201527f656374696e67207374616b6520726571756573742e0000000000000000000000602082015250565b6000614a23603583613f86565b9150614a2e826149c7565b604082019050919050565b60006020820190508181036000830152614a5281614a16565b9050919050565b6000614a6482613e8e565b9150614a6f83613e8e565b9250828201905080821115614a8757614a866145a9565b5b92915050565b7f6d616c6963696f7573207061727469636970616e7420696e646578206f75742060008201527f6f662072616e676520696e206d617070696e6700000000000000000000000000602082015250565b6000614ae9603383613f86565b9150614af482614a8d565b604082019050919050565b60006020820190508181036000830152614b1881614adc565b9050919050565b7f4e487b7100000000000000000000000000000000000000000000000000000000600052603260045260246000fd5b7f4e487b7100000000000000000000000000000000000000000000000000000000600052603160045260246000fd5b7f5374616b696e67207061727469636970616e74732063616e2774206265206c6560008201527f7373207468616e20746865206d696e696d756d2072657175697265642070617260208201527f7469636970616e74206e756d0000000000000000000000000000000000000000604082015250565b6000614bff604c83613f86565b9150614c0a82614b7d565b606082019050919050565b60006020820190508181036000830152614c2e81614bf2565b9050919050565b7f7061727469636970616e7420696e646578206f7574206f662072616e6765206960008201527f6e206d617070696e670000000000000000000000000000000000000000000000602082015250565b6000614c91602983613f86565b9150614c9c82614c35565b604082019050919050565b60006020820190508181036000830152614cc081614c84565b9050919050565b7f73657175656e63657220696e646578206f7574206f662072616e676520696e2060008201527f6d617070696e6700000000000000000000000000000000000000000000000000602082015250565b6000614d23602783613f86565b9150614d2e82614cc7565b604082019050919050565b60006020820190508181036000830152614d5281614d16565b9050919050565b7f7761746368746f77657220696e646578206f7574206f662072616e676520696e60008201527f206d617070696e67000000000000000000000000000000000000000000000000602082015250565b6000614db5602883613f86565b9150614dc082614d59565b604082019050919050565b60006020820190508181036000830152614de481614da8565b9050919050565b7f76616c696461746f7220696e646578206f7574206f662072616e676520696e2060008201527f6d617070696e6700000000000000000000000000000000000000000000000000602082015250565b6000614e47602783613f86565b9150614e5282614deb565b604082019050919050565b60006020820190508181036000830152614e7681614e3a565b9050919050565b600081905092915050565b6000614e9382613f7b565b614e9d8185614e7d565b9350614ead818560208601613f97565b80840191505092915050565b6000614ec58284614e88565b91508190509291505056fea26469706673582212204ee313b9afe7d162e0f374ff18e9cc931321aa60bcf189f50ebdb3654e1a7ff164736f6c63430008110033",
  "linkReferences": {},
  "deployedLinkReferences": {}
}