{
  "_format": "hh-sol-artifact-1",
  "contractName": "Staking",
  "sourceName": "contracts/Staking.sol",
  "abi": [
    {
      "inputs": [
        {
          "internalType": "uint256",
          "name": "minNumParticipants",
          "type": "uint256"
        },
        {
          "internalType": "uint256",
          "name": "maxNumParticipants",
          "type": "uint256"
        }
      ],
      "stateMutability": "nonpayable",
      "type": "constructor"
    },
    {
      "anonymous": false,
      "inputs": [
        {
          "indexed": true,
          "internalType": "address",
          "name": "account",
          "type": "address"
        },
        {
          "indexed": false,
          "internalType": "uint256",
          "name": "newAmount",
          "type": "uint256"
        },
        {
          "indexed": false,
          "internalType": "uint256",
          "name": "slashedAmount",
          "type": "uint256"
        }
      ],
      "name": "Slashed",
      "type": "event"
    },
    {
      "anonymous": false,
      "inputs": [
        {
          "indexed": true,
          "internalType": "address",
          "name": "account",
          "type": "address"
        },
        {
          "indexed": false,
          "internalType": "uint256",
          "name": "amount",
          "type": "uint256"
        }
      ],
      "name": "Staked",
      "type": "event"
    },
    {
      "anonymous": false,
      "inputs": [
        {
          "indexed": true,
          "internalType": "address",
          "name": "account",
          "type": "address"
        },
        {
          "indexed": false,
          "internalType": "uint256",
          "name": "amount",
          "type": "uint256"
        }
      ],
      "name": "Unstaked",
      "type": "event"
    },
    {
      "inputs": [
        {
          "internalType": "uint256",
          "name": "",
          "type": "uint256"
        }
      ],
      "name": "AVAILABLE_NODE_TYPES",
      "outputs": [
        {
          "internalType": "string",
          "name": "",
          "type": "string"
        }
      ],
      "stateMutability": "view",
      "type": "function"
    },
    {
      "inputs": [],
      "name": "DEFAULT_STAKING_THRESHOLD",
      "outputs": [
        {
          "internalType": "uint256",
          "name": "",
          "type": "uint256"
        }
      ],
      "stateMutability": "view",
      "type": "function"
    },
    {
      "inputs": [],
      "name": "GetAvailableNodeTypes",
      "outputs": [
        {
          "internalType": "string[]",
          "name": "",
          "type": "string[]"
        }
      ],
      "stateMutability": "view",
      "type": "function"
    },
    {
      "inputs": [
        {
          "internalType": "address",
          "name": "addr",
          "type": "address"
        }
      ],
      "name": "GetCurrentAccountStakedAmount",
      "outputs": [
        {
          "internalType": "uint256",
          "name": "",
          "type": "uint256"
        }
      ],
      "stateMutability": "view",
      "type": "function"
    },
    {
      "inputs": [],
      "name": "GetCurrentParticipants",
      "outputs": [
        {
          "internalType": "address[]",
          "name": "",
          "type": "address[]"
        }
      ],
      "stateMutability": "view",
      "type": "function"
    },
    {
      "inputs": [],
      "name": "GetCurrentSequencers",
      "outputs": [
        {
          "internalType": "address[]",
          "name": "",
          "type": "address[]"
        }
      ],
      "stateMutability": "view",
      "type": "function"
    },
    {
      "inputs": [],
      "name": "GetCurrentSequencersInProbation",
      "outputs": [
        {
          "internalType": "address[]",
          "name": "",
          "type": "address[]"
        }
      ],
      "stateMutability": "view",
      "type": "function"
    },
    {
      "inputs": [],
      "name": "GetCurrentStakedAmount",
      "outputs": [
        {
          "internalType": "uint256",
          "name": "",
          "type": "uint256"
        }
      ],
      "stateMutability": "view",
      "type": "function"
    },
    {
      "inputs": [],
      "name": "GetCurrentStakingThreshold",
      "outputs": [
        {
          "internalType": "uint256",
          "name": "",
          "type": "uint256"
        }
      ],
      "stateMutability": "view",
      "type": "function"
    },
    {
      "inputs": [],
      "name": "GetCurrentValidators",
      "outputs": [
        {
          "internalType": "address[]",
          "name": "",
          "type": "address[]"
        }
      ],
      "stateMutability": "view",
      "type": "function"
    },
    {
      "inputs": [],
      "name": "GetCurrentWatchtowers",
      "outputs": [
        {
          "internalType": "address[]",
          "name": "",
          "type": "address[]"
        }
      ],
      "stateMutability": "view",
      "type": "function"
    },
    {
      "inputs": [],
      "name": "GetMaxNumParticipants",
      "outputs": [
        {
          "internalType": "uint256",
          "name": "",
          "type": "uint256"
        }
      ],
      "stateMutability": "view",
      "type": "function"
    },
    {
      "inputs": [],
      "name": "GetMaxNumSequencers",
      "outputs": [
        {
          "internalType": "uint256",
          "name": "",
          "type": "uint256"
        }
      ],
      "stateMutability": "view",
      "type": "function"
    },
    {
      "inputs": [],
      "name": "GetMaxNumValidators",
      "outputs": [
        {
          "internalType": "uint256",
          "name": "",
          "type": "uint256"
        }
      ],
      "stateMutability": "view",
      "type": "function"
    },
    {
      "inputs": [],
      "name": "GetMaxNumWatchtowers",
      "outputs": [
        {
          "internalType": "uint256",
          "name": "",
          "type": "uint256"
        }
      ],
      "stateMutability": "view",
      "type": "function"
    },
    {
      "inputs": [],
      "name": "GetMinNumParticipants",
      "outputs": [
        {
          "internalType": "uint256",
          "name": "",
          "type": "uint256"
        }
      ],
      "stateMutability": "view",
      "type": "function"
    },
    {
      "inputs": [],
      "name": "GetMinNumSequencers",
      "outputs": [
        {
          "internalType": "uint256",
          "name": "",
          "type": "uint256"
        }
      ],
      "stateMutability": "view",
      "type": "function"
    },
    {
      "inputs": [],
      "name": "GetMinNumValidators",
      "outputs": [
        {
          "internalType": "uint256",
          "name": "",
          "type": "uint256"
        }
      ],
      "stateMutability": "view",
      "type": "function"
    },
    {
      "inputs": [],
      "name": "GetMinNumWatchtowers",
      "outputs": [
        {
          "internalType": "uint256",
          "name": "",
          "type": "uint256"
        }
      ],
      "stateMutability": "view",
      "type": "function"
    },
    {
      "inputs": [
        {
          "internalType": "address",
          "name": "addr",
          "type": "address"
        }
      ],
      "name": "IsSequencer",
      "outputs": [
        {
          "internalType": "bool",
          "name": "",
          "type": "bool"
        }
      ],
      "stateMutability": "view",
      "type": "function"
    },
    {
      "inputs": [
        {
          "internalType": "address",
          "name": "addr",
          "type": "address"
        }
      ],
      "name": "IsValidator",
      "outputs": [
        {
          "internalType": "bool",
          "name": "",
          "type": "bool"
        }
      ],
      "stateMutability": "view",
      "type": "function"
    },
    {
      "inputs": [
        {
          "internalType": "address",
          "name": "addr",
          "type": "address"
        }
      ],
      "name": "IsWatchtower",
      "outputs": [
        {
          "internalType": "bool",
          "name": "",
          "type": "bool"
        }
      ],
      "stateMutability": "view",
      "type": "function"
    },
    {
      "inputs": [],
      "name": "NODE_SEQUENCER",
      "outputs": [
        {
          "internalType": "string",
          "name": "",
          "type": "string"
        }
      ],
      "stateMutability": "view",
      "type": "function"
    },
    {
      "inputs": [],
      "name": "NODE_VALIDATOR",
      "outputs": [
        {
          "internalType": "string",
          "name": "",
          "type": "string"
        }
      ],
      "stateMutability": "view",
      "type": "function"
    },
    {
      "inputs": [],
      "name": "NODE_WATCHTOWER",
      "outputs": [
        {
          "internalType": "string",
          "name": "",
          "type": "string"
        }
      ],
      "stateMutability": "view",
      "type": "function"
    },
    {
      "inputs": [
        {
          "internalType": "uint256",
          "name": "maximumNumParticipants",
          "type": "uint256"
        }
      ],
      "name": "SetMaxNumParticipants",
      "outputs": [
        {
          "internalType": "uint256",
          "name": "",
          "type": "uint256"
        }
      ],
      "stateMutability": "nonpayable",
      "type": "function"
    },
    {
      "inputs": [
        {
          "internalType": "uint256",
          "name": "maximumNumSequencers",
          "type": "uint256"
        }
      ],
      "name": "SetMaxNumSequencers",
      "outputs": [
        {
          "internalType": "uint256",
          "name": "",
          "type": "uint256"
        }
      ],
      "stateMutability": "nonpayable",
      "type": "function"
    },
    {
      "inputs": [
        {
          "internalType": "uint256",
          "name": "maximumNumValidators",
          "type": "uint256"
        }
      ],
      "name": "SetMaxNumValidators",
      "outputs": [
        {
          "internalType": "uint256",
          "name": "",
          "type": "uint256"
        }
      ],
      "stateMutability": "nonpayable",
      "type": "function"
    },
    {
      "inputs": [
        {
          "internalType": "uint256",
          "name": "maximumNumWatchtowers",
          "type": "uint256"
        }
      ],
      "name": "SetMaxNumWatchtowers",
      "outputs": [
        {
          "internalType": "uint256",
          "name": "",
          "type": "uint256"
        }
      ],
      "stateMutability": "nonpayable",
      "type": "function"
    },
    {
      "inputs": [
        {
          "internalType": "uint256",
          "name": "minimumNumParticipants",
          "type": "uint256"
        }
      ],
      "name": "SetMinNumParticipants",
      "outputs": [
        {
          "internalType": "uint256",
          "name": "",
          "type": "uint256"
        }
      ],
      "stateMutability": "nonpayable",
      "type": "function"
    },
    {
      "inputs": [
        {
          "internalType": "uint256",
          "name": "minimumNumSequencers",
          "type": "uint256"
        }
      ],
      "name": "SetMinNumSequencers",
      "outputs": [
        {
          "internalType": "uint256",
          "name": "",
          "type": "uint256"
        }
      ],
      "stateMutability": "nonpayable",
      "type": "function"
    },
    {
      "inputs": [
        {
          "internalType": "uint256",
          "name": "minimumNumValidators",
          "type": "uint256"
        }
      ],
      "name": "SetMinNumValidators",
      "outputs": [
        {
          "internalType": "uint256",
          "name": "",
          "type": "uint256"
        }
      ],
      "stateMutability": "nonpayable",
      "type": "function"
    },
    {
      "inputs": [
        {
          "internalType": "uint256",
          "name": "minimumNumWatchtowers",
          "type": "uint256"
        }
      ],
      "name": "SetMinNumWatchtowers",
      "outputs": [
        {
          "internalType": "uint256",
          "name": "",
          "type": "uint256"
        }
      ],
      "stateMutability": "nonpayable",
      "type": "function"
    },
    {
      "inputs": [
        {
          "internalType": "uint256",
          "name": "newThreshold",
          "type": "uint256"
        }
      ],
      "name": "SetStakingMinThreshold",
      "outputs": [],
      "stateMutability": "nonpayable",
      "type": "function"
    },
    {
      "inputs": [
        {
          "internalType": "address",
          "name": "",
          "type": "address"
        }
      ],
      "name": "_addressToIsParticipant",
      "outputs": [
        {
          "internalType": "bool",
          "name": "",
          "type": "bool"
        }
      ],
      "stateMutability": "view",
      "type": "function"
    },
    {
      "inputs": [
        {
          "internalType": "address",
          "name": "",
          "type": "address"
        }
      ],
      "name": "_addressToIsSequencer",
      "outputs": [
        {
          "internalType": "bool",
          "name": "",
          "type": "bool"
        }
      ],
      "stateMutability": "view",
      "type": "function"
    },
    {
      "inputs": [
        {
          "internalType": "address",
          "name": "",
          "type": "address"
        }
      ],
      "name": "_addressToIsSequencerInProbation",
      "outputs": [
        {
          "internalType": "bool",
          "name": "",
          "type": "bool"
        }
      ],
      "stateMutability": "view",
      "type": "function"
    },
    {
      "inputs": [
        {
          "internalType": "address",
          "name": "",
          "type": "address"
        }
      ],
      "name": "_addressToIsValidator",
      "outputs": [
        {
          "internalType": "bool",
          "name": "",
          "type": "bool"
        }
      ],
      "stateMutability": "view",
      "type": "function"
    },
    {
      "inputs": [
        {
          "internalType": "address",
          "name": "",
          "type": "address"
        }
      ],
      "name": "_addressToIsWatchtower",
      "outputs": [
        {
          "internalType": "bool",
          "name": "",
          "type": "bool"
        }
      ],
      "stateMutability": "view",
      "type": "function"
    },
    {
      "inputs": [
        {
          "internalType": "address",
          "name": "",
          "type": "address"
        }
      ],
      "name": "_addressToNodeType",
      "outputs": [
        {
          "internalType": "string",
          "name": "",
          "type": "string"
        }
      ],
      "stateMutability": "view",
      "type": "function"
    },
    {
      "inputs": [
        {
          "internalType": "address",
          "name": "",
          "type": "address"
        }
      ],
      "name": "_addressToParticipantIndex",
      "outputs": [
        {
          "internalType": "uint256",
          "name": "",
          "type": "uint256"
        }
      ],
      "stateMutability": "view",
      "type": "function"
    },
    {
      "inputs": [
        {
          "internalType": "address",
          "name": "",
          "type": "address"
        }
      ],
      "name": "_addressToSequencerInProbationIndex",
      "outputs": [
        {
          "internalType": "uint256",
          "name": "",
          "type": "uint256"
        }
      ],
      "stateMutability": "view",
      "type": "function"
    },
    {
      "inputs": [
        {
          "internalType": "address",
          "name": "",
          "type": "address"
        }
      ],
      "name": "_addressToSequencerIndex",
      "outputs": [
        {
          "internalType": "uint256",
          "name": "",
          "type": "uint256"
        }
      ],
      "stateMutability": "view",
      "type": "function"
    },
    {
      "inputs": [
        {
          "internalType": "address",
          "name": "",
          "type": "address"
        }
      ],
      "name": "_addressToStakedAmount",
      "outputs": [
        {
          "internalType": "uint256",
          "name": "",
          "type": "uint256"
        }
      ],
      "stateMutability": "view",
      "type": "function"
    },
    {
      "inputs": [
        {
          "internalType": "address",
          "name": "",
          "type": "address"
        }
      ],
      "name": "_addressToValidatorIndex",
      "outputs": [
        {
          "internalType": "uint256",
          "name": "",
          "type": "uint256"
        }
      ],
      "stateMutability": "view",
      "type": "function"
    },
    {
      "inputs": [
        {
          "internalType": "address",
          "name": "",
          "type": "address"
        }
      ],
      "name": "_addressToWatchtowerIndex",
      "outputs": [
        {
          "internalType": "uint256",
          "name": "",
          "type": "uint256"
        }
      ],
      "stateMutability": "view",
      "type": "function"
    },
    {
      "inputs": [],
      "name": "_maximumNumParticipants",
      "outputs": [
        {
          "internalType": "uint256",
          "name": "",
          "type": "uint256"
        }
      ],
      "stateMutability": "view",
      "type": "function"
    },
    {
      "inputs": [],
      "name": "_maximumNumSequencers",
      "outputs": [
        {
          "internalType": "uint256",
          "name": "",
          "type": "uint256"
        }
      ],
      "stateMutability": "view",
      "type": "function"
    },
    {
      "inputs": [],
      "name": "_maximumNumValidators",
      "outputs": [
        {
          "internalType": "uint256",
          "name": "",
          "type": "uint256"
        }
      ],
      "stateMutability": "view",
      "type": "function"
    },
    {
      "inputs": [],
      "name": "_maximumNumWatchtowers",
      "outputs": [
        {
          "internalType": "uint256",
          "name": "",
          "type": "uint256"
        }
      ],
      "stateMutability": "view",
      "type": "function"
    },
    {
      "inputs": [],
      "name": "_minStakingThreshold",
      "outputs": [
        {
          "internalType": "uint256",
          "name": "",
          "type": "uint256"
        }
      ],
      "stateMutability": "view",
      "type": "function"
    },
    {
      "inputs": [],
      "name": "_minimumNumParticipants",
      "outputs": [
        {
          "internalType": "uint256",
          "name": "",
          "type": "uint256"
        }
      ],
      "stateMutability": "view",
      "type": "function"
    },
    {
      "inputs": [],
      "name": "_minimumNumSequencers",
      "outputs": [
        {
          "internalType": "uint256",
          "name": "",
          "type": "uint256"
        }
      ],
      "stateMutability": "view",
      "type": "function"
    },
    {
      "inputs": [],
      "name": "_minimumNumValidators",
      "outputs": [
        {
          "internalType": "uint256",
          "name": "",
          "type": "uint256"
        }
      ],
      "stateMutability": "view",
      "type": "function"
    },
    {
      "inputs": [],
      "name": "_minimumNumWatchtowers",
      "outputs": [
        {
          "internalType": "uint256",
          "name": "",
          "type": "uint256"
        }
      ],
      "stateMutability": "view",
      "type": "function"
    },
    {
      "inputs": [
        {
          "internalType": "uint256",
          "name": "",
          "type": "uint256"
        }
      ],
      "name": "_participants",
      "outputs": [
        {
          "internalType": "address",
          "name": "",
          "type": "address"
        }
      ],
      "stateMutability": "view",
      "type": "function"
    },
    {
      "inputs": [
        {
          "internalType": "uint256",
          "name": "",
          "type": "uint256"
        }
      ],
      "name": "_sequencers",
      "outputs": [
        {
          "internalType": "address",
          "name": "",
          "type": "address"
        }
      ],
      "stateMutability": "view",
      "type": "function"
    },
    {
      "inputs": [
        {
          "internalType": "uint256",
          "name": "",
          "type": "uint256"
        }
      ],
      "name": "_sequencers_in_probation",
      "outputs": [
        {
          "internalType": "address",
          "name": "",
          "type": "address"
        }
      ],
      "stateMutability": "view",
      "type": "function"
    },
    {
      "inputs": [],
      "name": "_stakedAmount",
      "outputs": [
        {
          "internalType": "uint256",
          "name": "",
          "type": "uint256"
        }
      ],
      "stateMutability": "view",
      "type": "function"
    },
    {
      "inputs": [
        {
          "internalType": "uint256",
          "name": "",
          "type": "uint256"
        }
      ],
      "name": "_validators",
      "outputs": [
        {
          "internalType": "address",
          "name": "",
          "type": "address"
        }
      ],
      "stateMutability": "view",
      "type": "function"
    },
    {
      "inputs": [
        {
          "internalType": "uint256",
          "name": "",
          "type": "uint256"
        }
      ],
      "name": "_watchtowers",
      "outputs": [
        {
          "internalType": "address",
          "name": "",
          "type": "address"
        }
      ],
      "stateMutability": "view",
      "type": "function"
    },
    {
      "inputs": [
        {
          "internalType": "uint256",
          "name": "slashAmount",
          "type": "uint256"
        }
      ],
      "name": "slash",
      "outputs": [],
      "stateMutability": "nonpayable",
      "type": "function"
    },
    {
      "inputs": [
        {
          "internalType": "string",
          "name": "nodeType",
          "type": "string"
        }
      ],
      "name": "stake",
      "outputs": [],
      "stateMutability": "payable",
      "type": "function"
    },
    {
      "inputs": [],
      "name": "unstake",
      "outputs": [],
      "stateMutability": "nonpayable",
      "type": "function"
    }
  ],
  "bytecode": "0x608060405260405180606001604052806040518060400160405280600981526020017f73657175656e636572000000000000000000000000000000000000000000000081525081526020016040518060400160405280600a81526020017f7761746368746f7765720000000000000000000000000000000000000000000081525081526020016040518060400160405280600981526020017f76616c696461746f7200000000000000000000000000000000000000000000008152508152506000906003620000d092919062000160565b50348015620000de57600080fd5b506040516200500b3803806200500b83398181016040528101906200010491906200028d565b808211156200014a576040517f08c379a0000000000000000000000000000000000000000000000000000000008152600401620001419062000381565b60405180910390fd5b81600881905550806009819055505050620006fa565b828054828255906000526020600020908101928215620001ad579160200282015b82811115620001ac5782518290816200019b919062000613565b509160200191906001019062000181565b5b509050620001bc9190620001c0565b5090565b5b80821115620001e45760008181620001da9190620001e8565b50600101620001c1565b5090565b508054620001f6906200040c565b6000825580601f106200020a57506200022b565b601f0160209004906000526020600020908101906200022a91906200022e565b5b50565b5b80821115620002495760008160009055506001016200022f565b5090565b600080fd5b6000819050919050565b620002678162000252565b81146200027357600080fd5b50565b60008151905062000287816200025c565b92915050565b60008060408385031215620002a757620002a66200024d565b5b6000620002b78582860162000276565b9250506020620002ca8582860162000276565b9150509250929050565b600082825260208201905092915050565b7f4d696e207061727469636970616e7473206e756d6265722063616e206e6f742060008201527f62652067726561746572207468616e206d6178206e756d206f6620706172746960208201527f636970616e747300000000000000000000000000000000000000000000000000604082015250565b600062000369604783620002d4565b91506200037682620002e5565b606082019050919050565b600060208201905081810360008301526200039c816200035a565b9050919050565b600081519050919050565b7f4e487b7100000000000000000000000000000000000000000000000000000000600052604160045260246000fd5b7f4e487b7100000000000000000000000000000000000000000000000000000000600052602260045260246000fd5b600060028204905060018216806200042557607f821691505b6020821081036200043b576200043a620003dd565b5b50919050565b60008190508160005260206000209050919050565b60006020601f8301049050919050565b600082821b905092915050565b600060088302620004a57fffffffffffffffffffffffffffffffffffffffffffffffffffffffffffffffff8262000466565b620004b1868362000466565b95508019841693508086168417925050509392505050565b6000819050919050565b6000620004f4620004ee620004e88462000252565b620004c9565b62000252565b9050919050565b6000819050919050565b6200051083620004d3565b620005286200051f82620004fb565b84845462000473565b825550505050565b600090565b6200053f62000530565b6200054c81848462000505565b505050565b5b8181101562000574576200056860008262000535565b60018101905062000552565b5050565b601f821115620005c3576200058d8162000441565b620005988462000456565b81016020851015620005a8578190505b620005c0620005b78562000456565b83018262000551565b50505b505050565b600082821c905092915050565b6000620005e860001984600802620005c8565b1980831691505092915050565b6000620006038383620005d5565b9150826002028217905092915050565b6200061e82620003a3565b67ffffffffffffffff8111156200063a5762000639620003ae565b5b6200064682546200040c565b6200065382828562000578565b600060209050601f8311600181146200068b576000841562000676578287015190505b620006828582620005f5565b865550620006f2565b601f1984166200069b8662000441565b60005b82811015620006c5578489015182556001820191506020850194506020810190506200069e565b86831015620006e55784890151620006e1601f891682620005d5565b8355505b6001600288020188555050505b505050505050565b614901806200070a6000396000f3fe6080604052600436106103c35760003560e01c8063a1450126116101f2578063c795c0771161010d578063e028aadf116100a0578063f196f8241161006f578063f196f82414610f9b578063f76a1ee014610fd8578063f90ecacc14611003578063f9a43d4c14611040576103c3565b8063e028aadf14610ecb578063e2b5769d14610f08578063e387a7ed14610f45578063eec9f52e14610f70576103c3565b8063d3be81a8116100dc578063d3be81a814610de9578063d79f10d214610e14578063d80ff2b914610e51578063dea7977414610e8e576103c3565b8063c795c07714610d2b578063c8fa5fe914610d56578063d140551714610d81578063d147c38714610dac576103c3565b8063bd9ed0b311610185578063c402d43c11610154578063c402d43c14610c5b578063c48c5f3714610c86578063c6199c1f14610cc3578063c70966fb14610cee576103c3565b8063bd9ed0b314610baf578063bfc5aeee14610bda578063c2ccacdf14610c05578063c36352e114610c30576103c3565b8063b41327ff116101c1578063b41327ff14610abb578063b61b127f14610af8578063b8889f0214610b35578063bb5a26ff14610b72576103c3565b8063a145012614610a0f578063af6da36e14610a3a578063aff1ea7614610a65578063b17ca89c14610a90576103c3565b806346f45b8d116102e25780638d0841481161027557806399a7c7e41161024457806399a7c7e4146109515780639a083e821461097c5780639f9f7101146109a7578063a0f14bff146109d2576103c3565b80638d0841481461088157806390e7c862146108ac57806398abb25e146108d757806398ff822d14610914576103c3565b8063760118b6116102b1578063760118b6146107b15780637b339263146107dc5780637dceceb814610819578063855598b714610856576103c3565b806346f45b8d146106f0578063560854f61461070c578063584060bb146107495780636edf248114610786576103c3565b80631f2743b61161035a578063409b9ece11610329578063409b9ece1461062257806340a1922f1461064d57806340b007531461068a57806345bc4d10146106c7576103c3565b80631f2743b61461058c5780632c404e9c146105b75780632def6620146105e05780633603da84146105f7576103c3565b80630fb18ccc116103965780630fb18ccc146104aa57806319908df8146104d557806319ae6764146105125780631cb9bdca1461054f576103c3565b806302b75199146103c8578063065ae17114610405578063068946e8146104425780630e533c8e1461046d575b600080fd5b3480156103d457600080fd5b506103ef60048036038101906103ea91906138ee565b61107d565b6040516103fc9190613934565b60405180910390f35b34801561041157600080fd5b5061042c600480360381019061042791906138ee565b611095565b604051610439919061396a565b60405180910390f35b34801561044e57600080fd5b506104576110b5565b6040516104649190613934565b60405180910390f35b34801561047957600080fd5b50610494600480360381019061048f91906138ee565b6110bb565b6040516104a19190613934565b60405180910390f35b3480156104b657600080fd5b506104bf6110d3565b6040516104cc9190613934565b60405180910390f35b3480156104e157600080fd5b506104fc60048036038101906104f791906139b1565b6110d9565b60405161050991906139ed565b60405180910390f35b34801561051e57600080fd5b50610539600480360381019061053491906138ee565b611118565b6040516105469190613a98565b60405180910390f35b34801561055b57600080fd5b50610576600480360381019061057191906138ee565b6111b8565b6040516105839190613934565b60405180910390f35b34801561059857600080fd5b506105a16111d0565b6040516105ae9190613bc6565b60405180910390f35b3480156105c357600080fd5b506105de60048036038101906105d991906139b1565b6112a9565b005b3480156105ec57600080fd5b506105f5611312565b005b34801561060357600080fd5b5061060c6113fd565b6040516106199190613ca6565b60405180910390f35b34801561062e57600080fd5b5061063761148b565b6040516106449190613934565b60405180910390f35b34801561065957600080fd5b50610674600480360381019061066f91906138ee565b61149a565b604051610681919061396a565b60405180910390f35b34801561069657600080fd5b506106b160048036038101906106ac91906138ee565b6114ba565b6040516106be919061396a565b60405180910390f35b3480156106d357600080fd5b506106ee60048036038101906106e991906139b1565b6114da565b005b61070a60048036038101906107059190613dfd565b6115c7565b005b34801561071857600080fd5b50610733600480360381019061072e91906139b1565b611632565b6040516107409190613934565b60405180910390f35b34801561075557600080fd5b50610770600480360381019061076b91906139b1565b611645565b60405161077d91906139ed565b60405180910390f35b34801561079257600080fd5b5061079b611684565b6040516107a89190613934565b60405180910390f35b3480156107bd57600080fd5b506107c661168e565b6040516107d39190613934565b60405180910390f35b3480156107e857600080fd5b5061080360048036038101906107fe91906138ee565b611698565b604051610810919061396a565b60405180910390f35b34801561082557600080fd5b50610840600480360381019061083b91906138ee565b6116b8565b60405161084d9190613934565b60405180910390f35b34801561086257600080fd5b5061086b6116d0565b6040516108789190613a98565b60405180910390f35b34801561088d57600080fd5b50610896611709565b6040516108a39190613934565b60405180910390f35b3480156108b857600080fd5b506108c161170f565b6040516108ce9190613934565b60405180910390f35b3480156108e357600080fd5b506108fe60048036038101906108f991906139b1565b611715565b60405161090b9190613934565b60405180910390f35b34801561092057600080fd5b5061093b600480360381019061093691906138ee565b611728565b604051610948919061396a565b60405180910390f35b34801561095d57600080fd5b5061096661177e565b6040516109739190613ca6565b60405180910390f35b34801561098857600080fd5b5061099161180c565b60405161099e9190613a98565b60405180910390f35b3480156109b357600080fd5b506109bc611845565b6040516109c99190613a98565b60405180910390f35b3480156109de57600080fd5b506109f960048036038101906109f491906138ee565b61187e565b604051610a069190613934565b60405180910390f35b348015610a1b57600080fd5b50610a24611896565b604051610a319190613934565b60405180910390f35b348015610a4657600080fd5b50610a4f61189c565b604051610a5c9190613934565b60405180910390f35b348015610a7157600080fd5b50610a7a6118a2565b604051610a879190613934565b60405180910390f35b348015610a9c57600080fd5b50610aa56118ae565b604051610ab29190613934565b60405180910390f35b348015610ac757600080fd5b50610ae26004803603810190610add91906139b1565b6118b8565b604051610aef9190613a98565b60405180910390f35b348015610b0457600080fd5b50610b1f6004803603810190610b1a91906139b1565b611964565b604051610b2c9190613934565b60405180910390f35b348015610b4157600080fd5b50610b5c6004803603810190610b5791906138ee565b611977565b604051610b699190613934565b60405180910390f35b348015610b7e57600080fd5b50610b996004803603810190610b9491906138ee565b61198f565b604051610ba6919061396a565b60405180910390f35b348015610bbb57600080fd5b50610bc46119e5565b604051610bd19190613934565b60405180910390f35b348015610be657600080fd5b50610bef6119ef565b604051610bfc9190613934565b60405180910390f35b348015610c1157600080fd5b50610c1a6119f9565b604051610c279190613934565b60405180910390f35b348015610c3c57600080fd5b50610c45611a03565b604051610c529190613ca6565b60405180910390f35b348015610c6757600080fd5b50610c70611a91565b604051610c7d9190613ca6565b60405180910390f35b348015610c9257600080fd5b50610cad6004803603810190610ca891906139b1565b611b1f565b604051610cba91906139ed565b60405180910390f35b348015610ccf57600080fd5b50610cd8611b5e565b604051610ce59190613934565b60405180910390f35b348015610cfa57600080fd5b50610d156004803603810190610d1091906138ee565b611b64565b604051610d22919061396a565b60405180910390f35b348015610d3757600080fd5b50610d40611b84565b604051610d4d9190613934565b60405180910390f35b348015610d6257600080fd5b50610d6b611b8a565b604051610d789190613934565b60405180910390f35b348015610d8d57600080fd5b50610d96611b94565b604051610da39190613ca6565b60405180910390f35b348015610db857600080fd5b50610dd36004803603810190610dce91906139b1565b611c22565b604051610de09190613934565b60405180910390f35b348015610df557600080fd5b50610dfe611c35565b604051610e0b9190613934565b60405180910390f35b348015610e2057600080fd5b50610e3b6004803603810190610e3691906138ee565b611c3f565b604051610e489190613934565b60405180910390f35b348015610e5d57600080fd5b50610e786004803603810190610e7391906139b1565b611c88565b604051610e859190613934565b60405180910390f35b348015610e9a57600080fd5b50610eb56004803603810190610eb091906139b1565b611c9b565b604051610ec29190613934565b60405180910390f35b348015610ed757600080fd5b50610ef26004803603810190610eed91906139b1565b611cae565b604051610eff9190613934565b60405180910390f35b348015610f1457600080fd5b50610f2f6004803603810190610f2a91906138ee565b611cc1565b604051610f3c919061396a565b60405180910390f35b348015610f5157600080fd5b50610f5a611d17565b604051610f679190613934565b60405180910390f35b348015610f7c57600080fd5b50610f85611d1d565b604051610f929190613934565b60405180910390f35b348015610fa757600080fd5b50610fc26004803603810190610fbd91906139b1565b611d27565b604051610fcf91906139ed565b60405180910390f35b348015610fe457600080fd5b50610fed611d66565b604051610ffa9190613934565b60405180910390f35b34801561100f57600080fd5b5061102a600480360381019061102591906139b1565b611d6c565b60405161103791906139ed565b60405180910390f35b34801561104c57600080fd5b50611067600480360381019061106291906139b1565b611dab565b6040516110749190613934565b60405180910390f35b601b6020528060005260406000206000915090505481565b601a6020528060005260406000206000915054906101000a900460ff1681565b60095481565b60156020528060005260406000206000915090505481565b600d5481565b601081815481106110e957600080fd5b906000526020600020016000915054906101000a900473ffffffffffffffffffffffffffffffffffffffff1681565b6006602052806000526040600020600091509050805461113790613e75565b80601f016020809104026020016040519081016040528092919081815260200182805461116390613e75565b80156111b05780601f10611185576101008083540402835291602001916111b0565b820191906000526020600020905b81548152906001019060200180831161119357829003601f168201915b505050505081565b60126020528060005260406000206000915090505481565b60606000805480602002602001604051908101604052809291908181526020016000905b828210156112a057838290600052602060002001805461121390613e75565b80601f016020809104026020016040519081016040528092919081815260200182805461123f90613e75565b801561128c5780601f106112615761010080835404028352916020019161128c565b820191906000526020600020905b81548152906001019060200180831161126f57829003601f168201915b5050505050815260200190600101906111f4565b50505050905090565b6112c83373ffffffffffffffffffffffffffffffffffffffff16611dbe565b15611308576040517f08c379a00000000000000000000000000000000000000000000000000000000081526004016112ff90613ef2565b60405180910390fd5b8060018190555050565b6113313373ffffffffffffffffffffffffffffffffffffffff16611dbe565b15611371576040517f08c379a000000000000000000000000000000000000000000000000000000000815260040161136890613ef2565b60405180910390fd5b6000600460003373ffffffffffffffffffffffffffffffffffffffff1673ffffffffffffffffffffffffffffffffffffffff16815260200190815260200160002054116113f3576040517f08c379a00000000000000000000000000000000000000000000000000000000081526004016113ea90613f5e565b60405180910390fd5b6113fb611de1565b565b6060601680548060200260200160405190810160405280929190818152602001828054801561148157602002820191906000526020600020905b8160009054906101000a900473ffffffffffffffffffffffffffffffffffffffff1673ffffffffffffffffffffffffffffffffffffffff1681526020019060010190808311611437575b5050505050905090565b6000611495611fb4565b905090565b60146020528060005260406000206000915054906101000a900460ff1681565b60176020528060005260406000206000915054906101000a900460ff1681565b6114f93373ffffffffffffffffffffffffffffffffffffffff16611dbe565b15611539576040517f08c379a000000000000000000000000000000000000000000000000000000000815260040161153090613ef2565b60405180910390fd5b6000600460003373ffffffffffffffffffffffffffffffffffffffff1673ffffffffffffffffffffffffffffffffffffffff16815260200190815260200160002054116115bb576040517f08c379a00000000000000000000000000000000000000000000000000000000081526004016115b290613f5e565b60405180910390fd5b6115c481611fd9565b50565b6115e63373ffffffffffffffffffffffffffffffffffffffff16611dbe565b15611626576040517f08c379a000000000000000000000000000000000000000000000000000000000815260040161161d90613ef2565b60405180910390fd5b61162f816121ab565b50565b600081600b81905550600b549050919050565b6013818154811061165557600080fd5b906000526020600020016000915054906101000a900473ffffffffffffffffffffffffffffffffffffffff1681565b6000600e54905090565b6000600a54905090565b60116020528060005260406000206000915054906101000a900460ff1681565b60046020528060005260406000206000915090505481565b6040518060400160405280600981526020017f73657175656e636572000000000000000000000000000000000000000000000081525081565b600a5481565b600f5481565b6000816008819055506008549050919050565b6000601a60008373ffffffffffffffffffffffffffffffffffffffff1673ffffffffffffffffffffffffffffffffffffffff16815260200190815260200160002060009054906101000a900460ff169050919050565b6060601080548060200260200160405190810160405280929190818152602001828054801561180257602002820191906000526020600020905b8160009054906101000a900473ffffffffffffffffffffffffffffffffffffffff1673ffffffffffffffffffffffffffffffffffffffff16815260200190600101908083116117b8575b5050505050905090565b6040518060400160405280600981526020017f76616c696461746f72000000000000000000000000000000000000000000000081525081565b6040518060400160405280600a81526020017f7761746368746f7765720000000000000000000000000000000000000000000081525081565b60186020528060005260406000206000915090505481565b60015481565b600e5481565b670de0b6b3a764000081565b6000600f54905090565b600081815481106118c857600080fd5b9060005260206000200160009150905080546118e390613e75565b80601f016020809104026020016040519081016040528092919081815260200182805461190f90613e75565b801561195c5780601f106119315761010080835404028352916020019161195c565b820191906000526020600020905b81548152906001019060200180831161193f57829003601f168201915b505050505081565b600081600a81905550600a549050919050565b60056020528060005260406000206000915090505481565b6000601160008373ffffffffffffffffffffffffffffffffffffffff1673ffffffffffffffffffffffffffffffffffffffff16815260200190815260200160002060009054906101000a900460ff169050919050565b6000600c54905090565b6000600854905090565b6000600d54905090565b60606019805480602002602001604051908101604052809291908181526020018280548015611a8757602002820191906000526020600020905b8160009054906101000a900473ffffffffffffffffffffffffffffffffffffffff1673ffffffffffffffffffffffffffffffffffffffff1681526020019060010190808311611a3d575b5050505050905090565b60606013805480602002602001604051908101604052809291908181526020018280548015611b1557602002820191906000526020600020905b8160009054906101000a900473ffffffffffffffffffffffffffffffffffffffff1673ffffffffffffffffffffffffffffffffffffffff1681526020019060010190808311611acb575b5050505050905090565b60168181548110611b2f57600080fd5b906000526020600020016000915054906101000a900473ffffffffffffffffffffffffffffffffffffffff1681565b60085481565b60036020528060005260406000206000915054906101000a900460ff1681565b600b5481565b6000600954905090565b60606002805480602002602001604051908101604052809291908181526020018280548015611c1857602002820191906000526020600020905b8160009054906101000a900473ffffffffffffffffffffffffffffffffffffffff1673ffffffffffffffffffffffffffffffffffffffff1681526020019060010190808311611bce575b5050505050905090565b600081600f81905550600f549050919050565b6000600754905090565b6000600460008373ffffffffffffffffffffffffffffffffffffffff1673ffffffffffffffffffffffffffffffffffffffff168152602001908152602001600020549050919050565b600081600c81905550600c549050919050565b600081600e81905550600e549050919050565b6000816009819055506009549050919050565b6000601760008373ffffffffffffffffffffffffffffffffffffffff1673ffffffffffffffffffffffffffffffffffffffff16815260200190815260200160002060009054906101000a900460ff169050919050565b60075481565b6000600b54905090565b60028181548110611d3757600080fd5b906000526020600020016000915054906101000a900473ffffffffffffffffffffffffffffffffffffffff1681565b600c5481565b60198181548110611d7c57600080fd5b906000526020600020016000915054906101000a900473ffffffffffffffffffffffffffffffffffffffff1681565b600081600d81905550600d549050919050565b6000808273ffffffffffffffffffffffffffffffffffffffff163b119050919050565b611dea33612453565b611e29576040517f08c379a0000000000000000000000000000000000000000000000000000000008152600401611e2090614016565b60405180910390fd5b6000600460003373ffffffffffffffffffffffffffffffffffffffff1673ffffffffffffffffffffffffffffffffffffffff1681526020019081526020016000205490506000600460003373ffffffffffffffffffffffffffffffffffffffff1673ffffffffffffffffffffffffffffffffffffffff168152602001908152602001600020819055508060076000828254611ec49190614065565b92505081905550611ed4336124a9565b611edd336127a8565b15611eec57611eeb336127fe565b5b611ef533612ab4565b15611f0457611f0333612b0a565b5b611f0d33612dc0565b15611f1c57611f1b33612e16565b5b3373ffffffffffffffffffffffffffffffffffffffff166108fc829081150290604051600060405180830381858888f19350505050158015611f62573d6000803e3d6000fd5b503373ffffffffffffffffffffffffffffffffffffffff167f0f5bb82176feb1b5e747e28471aa92156a04d9f3ab9f45f28e2d704232b93f7582604051611fa99190613934565b60405180910390a250565b6000806001541115611fca576001549050611fd6565b670de0b6b3a764000090505b90565b6000600460003373ffffffffffffffffffffffffffffffffffffffff1673ffffffffffffffffffffffffffffffffffffffff16815260200190815260200160002054905060008203612060576040517f08c379a00000000000000000000000000000000000000000000000000000000081526004016120579061410b565b60405180910390fd5b8082106120a2576040517f08c379a00000000000000000000000000000000000000000000000000000000081526004016120999061419d565b60405180910390fd5b600082826120b09190614065565b905080600460003373ffffffffffffffffffffffffffffffffffffffff1673ffffffffffffffffffffffffffffffffffffffff1681526020019081526020016000208190555080600760008282546121089190614065565b925050819055503373ffffffffffffffffffffffffffffffffffffffff166108fc849081150290604051600060405180830381858888f19350505050158015612155573d6000803e3d6000fd5b503373ffffffffffffffffffffffffffffffffffffffff167f45a371af55b0726877a30f464edc14db5879ab096590bacce682cf6c18223596828560405161219e9291906141bd565b60405180910390a2505050565b6121b4816130cc565b806121c457506121c381613169565b5b806121d457506121d381613206565b5b612213576040517f08c379a000000000000000000000000000000000000000000000000000000000815260040161220a90614258565b60405180910390fd5b61221b611fb4565b34101561225d576040517f08c379a000000000000000000000000000000000000000000000000000000000815260040161225490614310565b60405180910390fd5b61226733826132a3565b6122a6576040517f08c379a000000000000000000000000000000000000000000000000000000000815260040161229d906143a2565b60405180910390fd5b6122b0338261331c565b6122ef576040517f08c379a00000000000000000000000000000000000000000000000000000000081526004016122e690614434565b60405180910390fd5b6122f93382613395565b612338576040517f08c379a000000000000000000000000000000000000000000000000000000000815260040161232f906144c6565b60405180910390fd5b346007600082825461234a91906144e6565b9250508190555034600460003373ffffffffffffffffffffffffffffffffffffffff1673ffffffffffffffffffffffffffffffffffffffff16815260200190815260200160002060008282546123a091906144e6565b925050819055506123b03361340e565b6123b9816130cc565b156123cc576123c733613567565b612402565b6123d581613169565b156123e8576123e33361366e565b612401565b6123f181613206565b15612400576123ff33613775565b5b5b5b3373ffffffffffffffffffffffffffffffffffffffff167f9e71bc8eea02a63969f509818f2dafb9254532904319f9dbda79b67bd34a5f3d346040516124489190613934565b60405180910390a250565b6000600360008373ffffffffffffffffffffffffffffffffffffffff1673ffffffffffffffffffffffffffffffffffffffff16815260200190815260200160002060009054906101000a900460ff169050919050565b600854600280549050116124f2576040517f08c379a00000000000000000000000000000000000000000000000000000000081526004016124e9906145b2565b60405180910390fd5b600280549050600560008373ffffffffffffffffffffffffffffffffffffffff1673ffffffffffffffffffffffffffffffffffffffff1681526020019081526020016000205410612578576040517f08c379a000000000000000000000000000000000000000000000000000000000815260040161256f90614644565b60405180910390fd5b6000600560008373ffffffffffffffffffffffffffffffffffffffff1673ffffffffffffffffffffffffffffffffffffffff168152602001908152602001600020549050600060016002805490506125d09190614065565b90508082146126bf576000600282815481106125ef576125ee614664565b5b9060005260206000200160009054906101000a900473ffffffffffffffffffffffffffffffffffffffff169050806002848154811061263157612630614664565b5b9060005260206000200160006101000a81548173ffffffffffffffffffffffffffffffffffffffff021916908373ffffffffffffffffffffffffffffffffffffffff16021790555082600560008373ffffffffffffffffffffffffffffffffffffffff1673ffffffffffffffffffffffffffffffffffffffff16815260200190815260200160002081905550505b6000600360008573ffffffffffffffffffffffffffffffffffffffff1673ffffffffffffffffffffffffffffffffffffffff16815260200190815260200160002060006101000a81548160ff0219169083151502179055506000600560008573ffffffffffffffffffffffffffffffffffffffff1673ffffffffffffffffffffffffffffffffffffffff16815260200190815260200160002081905550600280548061276e5761276d614693565b5b6001900381819060005260206000200160006101000a81549073ffffffffffffffffffffffffffffffffffffffff02191690559055505050565b6000601160008373ffffffffffffffffffffffffffffffffffffffff1673ffffffffffffffffffffffffffffffffffffffff16815260200190815260200160002060009054906101000a900460ff169050919050565b601080549050601260008373ffffffffffffffffffffffffffffffffffffffff1673ffffffffffffffffffffffffffffffffffffffff1681526020019081526020016000205410612884576040517f08c379a000000000000000000000000000000000000000000000000000000000815260040161287b90614734565b60405180910390fd5b6000601260008373ffffffffffffffffffffffffffffffffffffffff1673ffffffffffffffffffffffffffffffffffffffff168152602001908152602001600020549050600060016010805490506128dc9190614065565b90508082146129cb576000601082815481106128fb576128fa614664565b5b9060005260206000200160009054906101000a900473ffffffffffffffffffffffffffffffffffffffff169050806010848154811061293d5761293c614664565b5b9060005260206000200160006101000a81548173ffffffffffffffffffffffffffffffffffffffff021916908373ffffffffffffffffffffffffffffffffffffffff16021790555082601260008373ffffffffffffffffffffffffffffffffffffffff1673ffffffffffffffffffffffffffffffffffffffff16815260200190815260200160002081905550505b6000601160008573ffffffffffffffffffffffffffffffffffffffff1673ffffffffffffffffffffffffffffffffffffffff16815260200190815260200160002060006101000a81548160ff0219169083151502179055506000601260008573ffffffffffffffffffffffffffffffffffffffff1673ffffffffffffffffffffffffffffffffffffffff168152602001908152602001600020819055506010805480612a7a57612a79614693565b5b6001900381819060005260206000200160006101000a81549073ffffffffffffffffffffffffffffffffffffffff02191690559055505050565b6000601760008373ffffffffffffffffffffffffffffffffffffffff1673ffffffffffffffffffffffffffffffffffffffff16815260200190815260200160002060009054906101000a900460ff169050919050565b601680549050601860008373ffffffffffffffffffffffffffffffffffffffff1673ffffffffffffffffffffffffffffffffffffffff1681526020019081526020016000205410612b90576040517f08c379a0000000000000000000000000000000000000000000000000000000008152600401612b87906147c6565b60405180910390fd5b6000601860008373ffffffffffffffffffffffffffffffffffffffff1673ffffffffffffffffffffffffffffffffffffffff16815260200190815260200160002054905060006001601680549050612be89190614065565b9050808214612cd757600060168281548110612c0757612c06614664565b5b9060005260206000200160009054906101000a900473ffffffffffffffffffffffffffffffffffffffff1690508060168481548110612c4957612c48614664565b5b9060005260206000200160006101000a81548173ffffffffffffffffffffffffffffffffffffffff021916908373ffffffffffffffffffffffffffffffffffffffff16021790555082601860008373ffffffffffffffffffffffffffffffffffffffff1673ffffffffffffffffffffffffffffffffffffffff16815260200190815260200160002081905550505b6000601760008573ffffffffffffffffffffffffffffffffffffffff1673ffffffffffffffffffffffffffffffffffffffff16815260200190815260200160002060006101000a81548160ff0219169083151502179055506000601860008573ffffffffffffffffffffffffffffffffffffffff1673ffffffffffffffffffffffffffffffffffffffff168152602001908152602001600020819055506016805480612d8657612d85614693565b5b6001900381819060005260206000200160006101000a81549073ffffffffffffffffffffffffffffffffffffffff02191690559055505050565b6000601a60008373ffffffffffffffffffffffffffffffffffffffff1673ffffffffffffffffffffffffffffffffffffffff16815260200190815260200160002060009054906101000a900460ff169050919050565b601980549050601b60008373ffffffffffffffffffffffffffffffffffffffff1673ffffffffffffffffffffffffffffffffffffffff1681526020019081526020016000205410612e9c576040517f08c379a0000000000000000000000000000000000000000000000000000000008152600401612e9390614858565b60405180910390fd5b6000601b60008373ffffffffffffffffffffffffffffffffffffffff1673ffffffffffffffffffffffffffffffffffffffff16815260200190815260200160002054905060006001601980549050612ef49190614065565b9050808214612fe357600060198281548110612f1357612f12614664565b5b9060005260206000200160009054906101000a900473ffffffffffffffffffffffffffffffffffffffff1690508060198481548110612f5557612f54614664565b5b9060005260206000200160006101000a81548173ffffffffffffffffffffffffffffffffffffffff021916908373ffffffffffffffffffffffffffffffffffffffff16021790555082601b60008373ffffffffffffffffffffffffffffffffffffffff1673ffffffffffffffffffffffffffffffffffffffff16815260200190815260200160002081905550505b6000601a60008573ffffffffffffffffffffffffffffffffffffffff1673ffffffffffffffffffffffffffffffffffffffff16815260200190815260200160002060006101000a81548160ff0219169083151502179055506000601b60008573ffffffffffffffffffffffffffffffffffffffff1673ffffffffffffffffffffffffffffffffffffffff16815260200190815260200160002081905550601980548061309257613091614693565b5b6001900381819060005260206000200160006101000a81549073ffffffffffffffffffffffffffffffffffffffff02191690559055505050565b6000816040516020016130df91906148b4565b604051602081830303815290604052805190602001206040518060400160405280600981526020017f73657175656e636572000000000000000000000000000000000000000000000081525060405160200161313b91906148b4565b604051602081830303815290604052805190602001200361315f5760019050613164565b600090505b919050565b60008160405160200161317c91906148b4565b604051602081830303815290604052805190602001206040518060400160405280600a81526020017f7761746368746f776572000000000000000000000000000000000000000000008152506040516020016131d891906148b4565b60405160208183030381529060405280519060200120036131fc5760019050613201565b600090505b919050565b60008160405160200161321991906148b4565b604051602081830303815290604052805190602001206040518060400160405280600981526020017f76616c696461746f72000000000000000000000000000000000000000000000081525060405160200161327591906148b4565b6040516020818303038152906040528051906020012003613299576001905061329e565b600090505b919050565b60006132ae826130cc565b80156133035750601160008473ffffffffffffffffffffffffffffffffffffffff1673ffffffffffffffffffffffffffffffffffffffff16815260200190815260200160002060009054906101000a900460ff165b156133115760009050613316565b600190505b92915050565b600061332782613169565b801561337c5750601760008473ffffffffffffffffffffffffffffffffffffffff1673ffffffffffffffffffffffffffffffffffffffff16815260200190815260200160002060009054906101000a900460ff165b1561338a576000905061338f565b600190505b92915050565b60006133a082613206565b80156133f55750601a60008473ffffffffffffffffffffffffffffffffffffffff1673ffffffffffffffffffffffffffffffffffffffff16815260200190815260200160002060009054906101000a900460ff165b156134035760009050613408565b600190505b92915050565b600360008273ffffffffffffffffffffffffffffffffffffffff1673ffffffffffffffffffffffffffffffffffffffff16815260200190815260200160002060009054906101000a900460ff16613564576001600360008373ffffffffffffffffffffffffffffffffffffffff1673ffffffffffffffffffffffffffffffffffffffff16815260200190815260200160002060006101000a81548160ff021916908315150217905550600280549050600560008373ffffffffffffffffffffffffffffffffffffffff1673ffffffffffffffffffffffffffffffffffffffff168152602001908152602001600020819055506002819080600181540180825580915050600190039060005260206000200160009091909190916101000a81548173ffffffffffffffffffffffffffffffffffffffff021916908373ffffffffffffffffffffffffffffffffffffffff1602179055505b50565b6001601160008373ffffffffffffffffffffffffffffffffffffffff1673ffffffffffffffffffffffffffffffffffffffff16815260200190815260200160002060006101000a81548160ff021916908315150217905550601080549050601260008373ffffffffffffffffffffffffffffffffffffffff1673ffffffffffffffffffffffffffffffffffffffff168152602001908152602001600020819055506010819080600181540180825580915050600190039060005260206000200160009091909190916101000a81548173ffffffffffffffffffffffffffffffffffffffff021916908373ffffffffffffffffffffffffffffffffffffffff16021790555050565b6001601760008373ffffffffffffffffffffffffffffffffffffffff1673ffffffffffffffffffffffffffffffffffffffff16815260200190815260200160002060006101000a81548160ff021916908315150217905550601680549050601860008373ffffffffffffffffffffffffffffffffffffffff1673ffffffffffffffffffffffffffffffffffffffff168152602001908152602001600020819055506016819080600181540180825580915050600190039060005260206000200160009091909190916101000a81548173ffffffffffffffffffffffffffffffffffffffff021916908373ffffffffffffffffffffffffffffffffffffffff16021790555050565b6001601a60008373ffffffffffffffffffffffffffffffffffffffff1673ffffffffffffffffffffffffffffffffffffffff16815260200190815260200160002060006101000a81548160ff021916908315150217905550601980549050601b60008373ffffffffffffffffffffffffffffffffffffffff1673ffffffffffffffffffffffffffffffffffffffff168152602001908152602001600020819055506019819080600181540180825580915050600190039060005260206000200160009091909190916101000a81548173ffffffffffffffffffffffffffffffffffffffff021916908373ffffffffffffffffffffffffffffffffffffffff16021790555050565b6000604051905090565b600080fd5b600080fd5b600073ffffffffffffffffffffffffffffffffffffffff82169050919050565b60006138bb82613890565b9050919050565b6138cb816138b0565b81146138d657600080fd5b50565b6000813590506138e8816138c2565b92915050565b60006020828403121561390457613903613886565b5b6000613912848285016138d9565b91505092915050565b6000819050919050565b61392e8161391b565b82525050565b60006020820190506139496000830184613925565b92915050565b60008115159050919050565b6139648161394f565b82525050565b600060208201905061397f600083018461395b565b92915050565b61398e8161391b565b811461399957600080fd5b50565b6000813590506139ab81613985565b92915050565b6000602082840312156139c7576139c6613886565b5b60006139d58482850161399c565b91505092915050565b6139e7816138b0565b82525050565b6000602082019050613a0260008301846139de565b92915050565b600081519050919050565b600082825260208201905092915050565b60005b83811015613a42578082015181840152602081019050613a27565b60008484015250505050565b6000601f19601f8301169050919050565b6000613a6a82613a08565b613a748185613a13565b9350613a84818560208601613a24565b613a8d81613a4e565b840191505092915050565b60006020820190508181036000830152613ab28184613a5f565b905092915050565b600081519050919050565b600082825260208201905092915050565b6000819050602082019050919050565b600082825260208201905092915050565b6000613b0282613a08565b613b0c8185613ae6565b9350613b1c818560208601613a24565b613b2581613a4e565b840191505092915050565b6000613b3c8383613af7565b905092915050565b6000602082019050919050565b6000613b5c82613aba565b613b668185613ac5565b935083602082028501613b7885613ad6565b8060005b85811015613bb45784840389528151613b958582613b30565b9450613ba083613b44565b925060208a01995050600181019050613b7c565b50829750879550505050505092915050565b60006020820190508181036000830152613be08184613b51565b905092915050565b600081519050919050565b600082825260208201905092915050565b6000819050602082019050919050565b613c1d816138b0565b82525050565b6000613c2f8383613c14565b60208301905092915050565b6000602082019050919050565b6000613c5382613be8565b613c5d8185613bf3565b9350613c6883613c04565b8060005b83811015613c99578151613c808882613c23565b9750613c8b83613c3b565b925050600181019050613c6c565b5085935050505092915050565b60006020820190508181036000830152613cc08184613c48565b905092915050565b600080fd5b600080fd5b7f4e487b7100000000000000000000000000000000000000000000000000000000600052604160045260246000fd5b613d0a82613a4e565b810181811067ffffffffffffffff82111715613d2957613d28613cd2565b5b80604052505050565b6000613d3c61387c565b9050613d488282613d01565b919050565b600067ffffffffffffffff821115613d6857613d67613cd2565b5b613d7182613a4e565b9050602081019050919050565b82818337600083830152505050565b6000613da0613d9b84613d4d565b613d32565b905082815260208101848484011115613dbc57613dbb613ccd565b5b613dc7848285613d7e565b509392505050565b600082601f830112613de457613de3613cc8565b5b8135613df4848260208601613d8d565b91505092915050565b600060208284031215613e1357613e12613886565b5b600082013567ffffffffffffffff811115613e3157613e3061388b565b5b613e3d84828501613dcf565b91505092915050565b7f4e487b7100000000000000000000000000000000000000000000000000000000600052602260045260246000fd5b60006002820490506001821680613e8d57607f821691505b602082108103613ea057613e9f613e46565b5b50919050565b7f4f6e6c7920454f412063616e2063616c6c2066756e6374696f6e000000000000600082015250565b6000613edc601a83613a13565b9150613ee782613ea6565b602082019050919050565b60006020820190508181036000830152613f0b81613ecf565b9050919050565b7f4f6e6c79207374616b65722063616e2063616c6c2066756e6374696f6e000000600082015250565b6000613f48601d83613a13565b9150613f5382613f12565b602082019050919050565b60006020820190508181036000830152613f7781613f3b565b9050919050565b7f53656e6465722068617320746f2062652070617274206f66207374616b696e6760008201527f20706f6c6c20696e206f7264657220746f20756e7374616b652069747320736860208201527f6172652e20556e7374616b652072656a65637465642e00000000000000000000604082015250565b6000614000605683613a13565b915061400b82613f7e565b606082019050919050565b6000602082019050818103600083015261402f81613ff3565b9050919050565b7f4e487b7100000000000000000000000000000000000000000000000000000000600052601160045260246000fd5b60006140708261391b565b915061407b8361391b565b925082820390508181111561409357614092614036565b5b92915050565b7f536c61736820616d6f756e74206e6565647320746f2062652070726f7669646560008201527f642e000000000000000000000000000000000000000000000000000000000000602082015250565b60006140f5602283613a13565b915061410082614099565b604082019050919050565b60006020820190508181036000830152614124816140e8565b9050919050565b7f536c61736820616d6f756e742063616e6e6f742062652067726561746572207460008201527f68616e207374616b656420616d6f756e74000000000000000000000000000000602082015250565b6000614187603183613a13565b91506141928261412b565b604082019050919050565b600060208201905081810360008301526141b68161417a565b9050919050565b60006040820190506141d26000830185613925565b6141df6020830184613925565b9392505050565b7f50726f7669646564206e6f646520747970652068617320746f206d617463682060008201527f617661696c61626c65206e6f6465207479706573000000000000000000000000602082015250565b6000614242603483613a13565b915061424d826141e6565b604082019050919050565b6000602082019050818103600083015261427181614235565b9050919050565b7f496e737566696369656e74207374616b696e6720616d6f756e742070726f766960008201527f6465642e2048617320746f206265206c6172676572207468616e207374616b6960208201527f6e67206d696e696d756d207468726573686f6c64000000000000000000000000604082015250565b60006142fa605483613a13565b915061430582614278565b606082019050919050565b60006020820190508181036000830152614329816142ed565b9050919050565b7f53656e64657220697320616c72656164792073657175656e6365722e2052656a60008201527f656374696e67207374616b6520726571756573742e0000000000000000000000602082015250565b600061438c603583613a13565b915061439782614330565b604082019050919050565b600060208201905081810360008301526143bb8161437f565b9050919050565b7f53656e64657220697320616c7265616479207761746368746f7765722e20526560008201527f6a656374696e67207374616b6520726571756573742e00000000000000000000602082015250565b600061441e603683613a13565b9150614429826143c2565b604082019050919050565b6000602082019050818103600083015261444d81614411565b9050919050565b7f53656e64657220697320616c72656164792076616c696461746f722e2052656a60008201527f656374696e67207374616b6520726571756573742e0000000000000000000000602082015250565b60006144b0603583613a13565b91506144bb82614454565b604082019050919050565b600060208201905081810360008301526144df816144a3565b9050919050565b60006144f18261391b565b91506144fc8361391b565b925082820190508082111561451457614513614036565b5b92915050565b7f5374616b696e67207061727469636970616e74732063616e2774206265206c6560008201527f7373207468616e20746865206d696e696d756d2072657175697265642070617260208201527f7469636970616e74206e756d0000000000000000000000000000000000000000604082015250565b600061459c604c83613a13565b91506145a78261451a565b606082019050919050565b600060208201905081810360008301526145cb8161458f565b9050919050565b7f7061727469636970616e7420696e646578206f7574206f662072616e6765206960008201527f6e206d617070696e670000000000000000000000000000000000000000000000602082015250565b600061462e602983613a13565b9150614639826145d2565b604082019050919050565b6000602082019050818103600083015261465d81614621565b9050919050565b7f4e487b7100000000000000000000000000000000000000000000000000000000600052603260045260246000fd5b7f4e487b7100000000000000000000000000000000000000000000000000000000600052603160045260246000fd5b7f73657175656e63657220696e646578206f7574206f662072616e676520696e2060008201527f6d617070696e6700000000000000000000000000000000000000000000000000602082015250565b600061471e602783613a13565b9150614729826146c2565b604082019050919050565b6000602082019050818103600083015261474d81614711565b9050919050565b7f7761746368746f77657220696e646578206f7574206f662072616e676520696e60008201527f206d617070696e67000000000000000000000000000000000000000000000000602082015250565b60006147b0602883613a13565b91506147bb82614754565b604082019050919050565b600060208201905081810360008301526147df816147a3565b9050919050565b7f76616c696461746f7220696e646578206f7574206f662072616e676520696e2060008201527f6d617070696e6700000000000000000000000000000000000000000000000000602082015250565b6000614842602783613a13565b915061484d826147e6565b604082019050919050565b6000602082019050818103600083015261487181614835565b9050919050565b600081905092915050565b600061488e82613a08565b6148988185614878565b93506148a8818560208601613a24565b80840191505092915050565b60006148c08284614883565b91508190509291505056fea2646970667358221220cb3710eadb1029bdc5c6ab05289f0662bde9a868e92d8f6ff82719bbedf6777164736f6c63430008110033",
  "linkReferences": {},
  "deployedLinkReferences": {}
}