{
  "_format": "hh-sol-artifact-1",
  "contractName": "Staking",
  "sourceName": "contracts/Staking.sol",
  "abi": [
    {
      "inputs": [
        {
          "internalType": "uint256",
          "name": "minNumParticipants",
          "type": "uint256"
        },
        {
          "internalType": "uint256",
          "name": "maxNumParticipants",
          "type": "uint256"
        }
      ],
      "stateMutability": "nonpayable",
      "type": "constructor"
    },
    {
      "anonymous": false,
      "inputs": [
        {
          "indexed": true,
          "internalType": "address",
          "name": "account",
          "type": "address"
        },
        {
          "indexed": false,
          "internalType": "uint256",
          "name": "newAmount",
          "type": "uint256"
        },
        {
          "indexed": false,
          "internalType": "uint256",
          "name": "slashedAmount",
          "type": "uint256"
        }
      ],
      "name": "Slashed",
      "type": "event"
    },
    {
      "anonymous": false,
      "inputs": [
        {
          "indexed": true,
          "internalType": "address",
          "name": "account",
          "type": "address"
        },
        {
          "indexed": false,
          "internalType": "uint256",
          "name": "amount",
          "type": "uint256"
        }
      ],
      "name": "Staked",
      "type": "event"
    },
    {
      "anonymous": false,
      "inputs": [
        {
          "indexed": true,
          "internalType": "address",
          "name": "account",
          "type": "address"
        },
        {
          "indexed": false,
          "internalType": "uint256",
          "name": "amount",
          "type": "uint256"
        }
      ],
      "name": "Unstaked",
      "type": "event"
    },
    {
      "inputs": [
        {
          "internalType": "uint256",
          "name": "",
          "type": "uint256"
        }
      ],
      "name": "AVAILABLE_NODE_TYPES",
      "outputs": [
        {
          "internalType": "string",
          "name": "",
          "type": "string"
        }
      ],
      "stateMutability": "view",
      "type": "function"
    },
    {
      "inputs": [],
      "name": "DEFAULT_STAKING_THRESHOLD",
      "outputs": [
        {
          "internalType": "uint256",
          "name": "",
          "type": "uint256"
        }
      ],
      "stateMutability": "view",
      "type": "function"
    },
    {
      "inputs": [],
      "name": "GetAvailableNodeTypes",
      "outputs": [
        {
          "internalType": "string[]",
          "name": "",
          "type": "string[]"
        }
      ],
      "stateMutability": "view",
      "type": "function"
    },
    {
      "inputs": [
        {
          "internalType": "address",
          "name": "addr",
          "type": "address"
        }
      ],
      "name": "GetCurrentAccountStakedAmount",
      "outputs": [
        {
          "internalType": "uint256",
          "name": "",
          "type": "uint256"
        }
      ],
      "stateMutability": "view",
      "type": "function"
    },
    {
      "inputs": [],
      "name": "GetCurrentParticipants",
      "outputs": [
        {
          "internalType": "address[]",
          "name": "",
          "type": "address[]"
        }
      ],
      "stateMutability": "view",
      "type": "function"
    },
    {
      "inputs": [],
      "name": "GetCurrentSequencers",
      "outputs": [
        {
          "internalType": "address[]",
          "name": "",
          "type": "address[]"
        }
      ],
      "stateMutability": "view",
      "type": "function"
    },
    {
      "inputs": [],
      "name": "GetCurrentStakedAmount",
      "outputs": [
        {
          "internalType": "uint256",
          "name": "",
          "type": "uint256"
        }
      ],
      "stateMutability": "view",
      "type": "function"
    },
    {
      "inputs": [],
      "name": "GetCurrentStakingThreshold",
      "outputs": [
        {
          "internalType": "uint256",
          "name": "",
          "type": "uint256"
        }
      ],
      "stateMutability": "view",
      "type": "function"
    },
    {
      "inputs": [],
      "name": "GetCurrentValidators",
      "outputs": [
        {
          "internalType": "address[]",
          "name": "",
          "type": "address[]"
        }
      ],
      "stateMutability": "view",
      "type": "function"
    },
    {
      "inputs": [],
      "name": "GetCurrentWatchtowers",
      "outputs": [
        {
          "internalType": "address[]",
          "name": "",
          "type": "address[]"
        }
      ],
      "stateMutability": "view",
      "type": "function"
    },
    {
      "inputs": [],
      "name": "GetMaxNumParticipants",
      "outputs": [
        {
          "internalType": "uint256",
          "name": "",
          "type": "uint256"
        }
      ],
      "stateMutability": "view",
      "type": "function"
    },
    {
      "inputs": [],
      "name": "GetMinNumParticipants",
      "outputs": [
        {
          "internalType": "uint256",
          "name": "",
          "type": "uint256"
        }
      ],
      "stateMutability": "view",
      "type": "function"
    },
    {
      "inputs": [
        {
          "internalType": "address",
          "name": "addr",
          "type": "address"
        }
      ],
      "name": "IsSequencer",
      "outputs": [
        {
          "internalType": "bool",
          "name": "",
          "type": "bool"
        }
      ],
      "stateMutability": "view",
      "type": "function"
    },
    {
      "inputs": [
        {
          "internalType": "address",
          "name": "addr",
          "type": "address"
        }
      ],
      "name": "IsValidator",
      "outputs": [
        {
          "internalType": "bool",
          "name": "",
          "type": "bool"
        }
      ],
      "stateMutability": "view",
      "type": "function"
    },
    {
      "inputs": [
        {
          "internalType": "address",
          "name": "addr",
          "type": "address"
        }
      ],
      "name": "IsWatchtower",
      "outputs": [
        {
          "internalType": "bool",
          "name": "",
          "type": "bool"
        }
      ],
      "stateMutability": "view",
      "type": "function"
    },
    {
      "inputs": [],
      "name": "NODE_SEQUENCER",
      "outputs": [
        {
          "internalType": "string",
          "name": "",
          "type": "string"
        }
      ],
      "stateMutability": "view",
      "type": "function"
    },
    {
      "inputs": [],
      "name": "NODE_VALIDATOR",
      "outputs": [
        {
          "internalType": "string",
          "name": "",
          "type": "string"
        }
      ],
      "stateMutability": "view",
      "type": "function"
    },
    {
      "inputs": [],
      "name": "NODE_WATCHTOWER",
      "outputs": [
        {
          "internalType": "string",
          "name": "",
          "type": "string"
        }
      ],
      "stateMutability": "view",
      "type": "function"
    },
    {
      "inputs": [
        {
          "internalType": "uint256",
          "name": "newThreshold",
          "type": "uint256"
        }
      ],
      "name": "SetStakingMinThreshold",
      "outputs": [],
      "stateMutability": "nonpayable",
      "type": "function"
    },
    {
      "inputs": [
        {
          "internalType": "address",
          "name": "",
          "type": "address"
        }
      ],
      "name": "_addressToIsParticipant",
      "outputs": [
        {
          "internalType": "bool",
          "name": "",
          "type": "bool"
        }
      ],
      "stateMutability": "view",
      "type": "function"
    },
    {
      "inputs": [
        {
          "internalType": "address",
          "name": "",
          "type": "address"
        }
      ],
      "name": "_addressToIsSequencer",
      "outputs": [
        {
          "internalType": "bool",
          "name": "",
          "type": "bool"
        }
      ],
      "stateMutability": "view",
      "type": "function"
    },
    {
      "inputs": [
        {
          "internalType": "address",
          "name": "",
          "type": "address"
        }
      ],
      "name": "_addressToIsValidator",
      "outputs": [
        {
          "internalType": "bool",
          "name": "",
          "type": "bool"
        }
      ],
      "stateMutability": "view",
      "type": "function"
    },
    {
      "inputs": [
        {
          "internalType": "address",
          "name": "",
          "type": "address"
        }
      ],
      "name": "_addressToIsWatchtower",
      "outputs": [
        {
          "internalType": "bool",
          "name": "",
          "type": "bool"
        }
      ],
      "stateMutability": "view",
      "type": "function"
    },
    {
      "inputs": [
        {
          "internalType": "address",
          "name": "",
          "type": "address"
        }
      ],
      "name": "_addressToNodeType",
      "outputs": [
        {
          "internalType": "string",
          "name": "",
          "type": "string"
        }
      ],
      "stateMutability": "view",
      "type": "function"
    },
    {
      "inputs": [
        {
          "internalType": "address",
          "name": "",
          "type": "address"
        }
      ],
      "name": "_addressToParticipantIndex",
      "outputs": [
        {
          "internalType": "uint256",
          "name": "",
          "type": "uint256"
        }
      ],
      "stateMutability": "view",
      "type": "function"
    },
    {
      "inputs": [
        {
          "internalType": "address",
          "name": "",
          "type": "address"
        }
      ],
      "name": "_addressToSequencerIndex",
      "outputs": [
        {
          "internalType": "uint256",
          "name": "",
          "type": "uint256"
        }
      ],
      "stateMutability": "view",
      "type": "function"
    },
    {
      "inputs": [
        {
          "internalType": "address",
          "name": "",
          "type": "address"
        }
      ],
      "name": "_addressToStakedAmount",
      "outputs": [
        {
          "internalType": "uint256",
          "name": "",
          "type": "uint256"
        }
      ],
      "stateMutability": "view",
      "type": "function"
    },
    {
      "inputs": [
        {
          "internalType": "address",
          "name": "",
          "type": "address"
        }
      ],
      "name": "_addressToValidatorIndex",
      "outputs": [
        {
          "internalType": "uint256",
          "name": "",
          "type": "uint256"
        }
      ],
      "stateMutability": "view",
      "type": "function"
    },
    {
      "inputs": [
        {
          "internalType": "address",
          "name": "",
          "type": "address"
        }
      ],
      "name": "_addressToWatchtowerIndex",
      "outputs": [
        {
          "internalType": "uint256",
          "name": "",
          "type": "uint256"
        }
      ],
      "stateMutability": "view",
      "type": "function"
    },
    {
      "inputs": [],
      "name": "_maximumNumParticipants",
      "outputs": [
        {
          "internalType": "uint256",
          "name": "",
          "type": "uint256"
        }
      ],
      "stateMutability": "view",
      "type": "function"
    },
    {
      "inputs": [],
      "name": "_minStakingThreshold",
      "outputs": [
        {
          "internalType": "uint256",
          "name": "",
          "type": "uint256"
        }
      ],
      "stateMutability": "view",
      "type": "function"
    },
    {
      "inputs": [],
      "name": "_minimumNumParticipants",
      "outputs": [
        {
          "internalType": "uint256",
          "name": "",
          "type": "uint256"
        }
      ],
      "stateMutability": "view",
      "type": "function"
    },
    {
      "inputs": [
        {
          "internalType": "uint256",
          "name": "",
          "type": "uint256"
        }
      ],
      "name": "_participants",
      "outputs": [
        {
          "internalType": "address",
          "name": "",
          "type": "address"
        }
      ],
      "stateMutability": "view",
      "type": "function"
    },
    {
      "inputs": [
        {
          "internalType": "uint256",
          "name": "",
          "type": "uint256"
        }
      ],
      "name": "_sequencers",
      "outputs": [
        {
          "internalType": "address",
          "name": "",
          "type": "address"
        }
      ],
      "stateMutability": "view",
      "type": "function"
    },
    {
      "inputs": [],
      "name": "_stakedAmount",
      "outputs": [
        {
          "internalType": "uint256",
          "name": "",
          "type": "uint256"
        }
      ],
      "stateMutability": "view",
      "type": "function"
    },
    {
      "inputs": [
        {
          "internalType": "uint256",
          "name": "",
          "type": "uint256"
        }
      ],
      "name": "_validators",
      "outputs": [
        {
          "internalType": "address",
          "name": "",
          "type": "address"
        }
      ],
      "stateMutability": "view",
      "type": "function"
    },
    {
      "inputs": [
        {
          "internalType": "uint256",
          "name": "",
          "type": "uint256"
        }
      ],
      "name": "_watchtowers",
      "outputs": [
        {
          "internalType": "address",
          "name": "",
          "type": "address"
        }
      ],
      "stateMutability": "view",
      "type": "function"
    },
    {
      "inputs": [
        {
          "internalType": "uint256",
          "name": "slashAmount",
          "type": "uint256"
        }
      ],
      "name": "slash",
      "outputs": [],
      "stateMutability": "nonpayable",
      "type": "function"
    },
    {
      "inputs": [
        {
          "internalType": "string",
          "name": "nodeType",
          "type": "string"
        }
      ],
      "name": "stake",
      "outputs": [],
      "stateMutability": "payable",
      "type": "function"
    },
    {
      "inputs": [],
      "name": "unstake",
      "outputs": [],
      "stateMutability": "nonpayable",
      "type": "function"
    }
  ],
  "bytecode": "0x608060405260405180606001604052806040518060400160405280600981526020017f73657175656e636572000000000000000000000000000000000000000000000081525081526020016040518060400160405280600a81526020017f7761746368746f7765720000000000000000000000000000000000000000000081525081526020016040518060400160405280600981526020017f76616c696461746f7200000000000000000000000000000000000000000000008152508152506000906003620000d092919062000160565b50348015620000de57600080fd5b50604051620047b9380380620047b983398181016040528101906200010491906200028d565b808211156200014a576040517f08c379a0000000000000000000000000000000000000000000000000000000008152600401620001419062000381565b60405180910390fd5b81600881905550806009819055505050620006fa565b828054828255906000526020600020908101928215620001ad579160200282015b82811115620001ac5782518290816200019b919062000613565b509160200191906001019062000181565b5b509050620001bc9190620001c0565b5090565b5b80821115620001e45760008181620001da9190620001e8565b50600101620001c1565b5090565b508054620001f6906200040c565b6000825580601f106200020a57506200022b565b601f0160209004906000526020600020908101906200022a91906200022e565b5b50565b5b80821115620002495760008160009055506001016200022f565b5090565b600080fd5b6000819050919050565b620002678162000252565b81146200027357600080fd5b50565b60008151905062000287816200025c565b92915050565b60008060408385031215620002a757620002a66200024d565b5b6000620002b78582860162000276565b9250506020620002ca8582860162000276565b9150509250929050565b600082825260208201905092915050565b7f4d696e207061727469636970616e7473206e756d6265722063616e206e6f742060008201527f62652067726561746572207468616e206d6178206e756d206f6620706172746960208201527f636970616e747300000000000000000000000000000000000000000000000000604082015250565b600062000369604783620002d4565b91506200037682620002e5565b606082019050919050565b600060208201905081810360008301526200039c816200035a565b9050919050565b600081519050919050565b7f4e487b7100000000000000000000000000000000000000000000000000000000600052604160045260246000fd5b7f4e487b7100000000000000000000000000000000000000000000000000000000600052602260045260246000fd5b600060028204905060018216806200042557607f821691505b6020821081036200043b576200043a620003dd565b5b50919050565b60008190508160005260206000209050919050565b60006020601f8301049050919050565b600082821b905092915050565b600060088302620004a57fffffffffffffffffffffffffffffffffffffffffffffffffffffffffffffffff8262000466565b620004b1868362000466565b95508019841693508086168417925050509392505050565b6000819050919050565b6000620004f4620004ee620004e88462000252565b620004c9565b62000252565b9050919050565b6000819050919050565b6200051083620004d3565b620005286200051f82620004fb565b84845462000473565b825550505050565b600090565b6200053f62000530565b6200054c81848462000505565b505050565b5b8181101562000574576200056860008262000535565b60018101905062000552565b5050565b601f821115620005c3576200058d8162000441565b620005988462000456565b81016020851015620005a8578190505b620005c0620005b78562000456565b83018262000551565b50505b505050565b600082821c905092915050565b6000620005e860001984600802620005c8565b1980831691505092915050565b6000620006038383620005d5565b9150826002028217905092915050565b6200061e82620003a3565b67ffffffffffffffff8111156200063a5762000639620003ae565b5b6200064682546200040c565b6200065382828562000578565b600060209050601f8311600181146200068b576000841562000676578287015190505b620006828582620005f5565b865550620006f2565b601f1984166200069b8662000441565b60005b82811015620006c5578489015182556001820191506020850194506020810190506200069e565b86831015620006e55784890151620006e1601f891682620005d5565b8355505b6001600288020188555050505b505050505050565b6140af806200070a6000396000f3fe60806040526004361061023b5760003560e01c80639f9f71011161012e578063c6199c1f116100ab578063d79f10d21161006f578063d79f10d214610908578063e2b5769d14610945578063e387a7ed14610982578063f196f824146109ad578063f90ecacc146109ea5761023b565b8063c6199c1f1461081f578063c70966fb1461084a578063c8fa5fe914610887578063d1405517146108b2578063d3be81a8146108dd5761023b565b8063b8889f02116100f2578063b8889f0214610712578063bb5a26ff1461074f578063bfc5aeee1461078c578063c36352e1146107b7578063c48c5f37146107e25761023b565b80639f9f710114610617578063a0f14bff14610642578063a14501261461067f578063aff1ea76146106aa578063b41327ff146106d55761023b565b8063409b9ece116101bc5780637dceceb8116101805780637dceceb81461051c578063855598b71461055957806398ff822d1461058457806399a7c7e4146105c15780639a083e82146105ec5761023b565b8063409b9ece1461043257806340b007531461045d57806345bc4d101461049a57806346f45b8d146104c35780637b339263146104df5761023b565b80631cb9bdca116102035780631cb9bdca1461035f5780631f2743b61461039c5780632c404e9c146103c75780632def6620146103f05780633603da84146104075761023b565b806302b7519914610240578063065ae1711461027d578063068946e8146102ba57806319908df8146102e557806319ae676414610322575b600080fd5b34801561024c57600080fd5b506102676004803603810190610262919061312e565b610a27565b6040516102749190613174565b60405180910390f35b34801561028957600080fd5b506102a4600480360381019061029f919061312e565b610a3f565b6040516102b191906131aa565b60405180910390f35b3480156102c657600080fd5b506102cf610a5f565b6040516102dc9190613174565b60405180910390f35b3480156102f157600080fd5b5061030c600480360381019061030791906131f1565b610a65565b604051610319919061322d565b60405180910390f35b34801561032e57600080fd5b506103496004803603810190610344919061312e565b610aa4565b60405161035691906132d8565b60405180910390f35b34801561036b57600080fd5b506103866004803603810190610381919061312e565b610b44565b6040516103939190613174565b60405180910390f35b3480156103a857600080fd5b506103b1610b5c565b6040516103be9190613406565b60405180910390f35b3480156103d357600080fd5b506103ee60048036038101906103e991906131f1565b610c35565b005b3480156103fc57600080fd5b50610405610ce8565b005b34801561041357600080fd5b5061041c610dd3565b60405161042991906134e6565b60405180910390f35b34801561043e57600080fd5b50610447610e61565b6040516104549190613174565b60405180910390f35b34801561046957600080fd5b50610484600480360381019061047f919061312e565b610e70565b60405161049191906131aa565b60405180910390f35b3480156104a657600080fd5b506104c160048036038101906104bc91906131f1565b610e90565b005b6104dd60048036038101906104d8919061363d565b610f7d565b005b3480156104eb57600080fd5b506105066004803603810190610501919061312e565b610fe8565b60405161051391906131aa565b60405180910390f35b34801561052857600080fd5b50610543600480360381019061053e919061312e565b611008565b6040516105509190613174565b60405180910390f35b34801561056557600080fd5b5061056e611020565b60405161057b91906132d8565b60405180910390f35b34801561059057600080fd5b506105ab60048036038101906105a6919061312e565b611059565b6040516105b891906131aa565b60405180910390f35b3480156105cd57600080fd5b506105d66110af565b6040516105e391906134e6565b60405180910390f35b3480156105f857600080fd5b5061060161113d565b60405161060e91906132d8565b60405180910390f35b34801561062357600080fd5b5061062c611176565b60405161063991906132d8565b60405180910390f35b34801561064e57600080fd5b506106696004803603810190610664919061312e565b6111af565b6040516106769190613174565b60405180910390f35b34801561068b57600080fd5b506106946111c7565b6040516106a19190613174565b60405180910390f35b3480156106b657600080fd5b506106bf6111cd565b6040516106cc9190613174565b60405180910390f35b3480156106e157600080fd5b506106fc60048036038101906106f791906131f1565b6111d9565b60405161070991906132d8565b60405180910390f35b34801561071e57600080fd5b506107396004803603810190610734919061312e565b611285565b6040516107469190613174565b60405180910390f35b34801561075b57600080fd5b506107766004803603810190610771919061312e565b61129d565b60405161078391906131aa565b60405180910390f35b34801561079857600080fd5b506107a16112f3565b6040516107ae9190613174565b60405180910390f35b3480156107c357600080fd5b506107cc6112fd565b6040516107d991906134e6565b60405180910390f35b3480156107ee57600080fd5b50610809600480360381019061080491906131f1565b61138b565b604051610816919061322d565b60405180910390f35b34801561082b57600080fd5b506108346113ca565b6040516108419190613174565b60405180910390f35b34801561085657600080fd5b50610871600480360381019061086c919061312e565b6113d0565b60405161087e91906131aa565b60405180910390f35b34801561089357600080fd5b5061089c6113f0565b6040516108a99190613174565b60405180910390f35b3480156108be57600080fd5b506108c76113fa565b6040516108d491906134e6565b60405180910390f35b3480156108e957600080fd5b506108f2611488565b6040516108ff9190613174565b60405180910390f35b34801561091457600080fd5b5061092f600480360381019061092a919061312e565b611492565b60405161093c9190613174565b60405180910390f35b34801561095157600080fd5b5061096c6004803603810190610967919061312e565b6114db565b60405161097991906131aa565b60405180910390f35b34801561098e57600080fd5b50610997611531565b6040516109a49190613174565b60405180910390f35b3480156109b957600080fd5b506109d460048036038101906109cf91906131f1565b611537565b6040516109e1919061322d565b60405180910390f35b3480156109f657600080fd5b50610a116004803603810190610a0c91906131f1565b611576565b604051610a1e919061322d565b60405180910390f35b60126020528060005260406000206000915090505481565b60116020528060005260406000206000915054906101000a900460ff1681565b60095481565b600a8181548110610a7557600080fd5b906000526020600020016000915054906101000a900473ffffffffffffffffffffffffffffffffffffffff1681565b60066020528060005260406000206000915090508054610ac3906136b5565b80601f0160208091040260200160405190810160405280929190818152602001828054610aef906136b5565b8015610b3c5780601f10610b1157610100808354040283529160200191610b3c565b820191906000526020600020905b815481529060010190602001808311610b1f57829003601f168201915b505050505081565b600c6020528060005260406000206000915090505481565b60606000805480602002602001604051908101604052809291908181526020016000905b82821015610c2c578382906000526020600020018054610b9f906136b5565b80601f0160208091040260200160405190810160405280929190818152602001828054610bcb906136b5565b8015610c185780601f10610bed57610100808354040283529160200191610c18565b820191906000526020600020905b815481529060010190602001808311610bfb57829003601f168201915b505050505081526020019060010190610b80565b50505050905090565b610c543373ffffffffffffffffffffffffffffffffffffffff166115b5565b15610c94576040517f08c379a0000000000000000000000000000000000000000000000000000000008152600401610c8b90613732565b60405180910390fd5b670de0b6b3a76400008111610cde576040517f08c379a0000000000000000000000000000000000000000000000000000000008152600401610cd5906137ea565b60405180910390fd5b8060018190555050565b610d073373ffffffffffffffffffffffffffffffffffffffff166115b5565b15610d47576040517f08c379a0000000000000000000000000000000000000000000000000000000008152600401610d3e90613732565b60405180910390fd5b6000600460003373ffffffffffffffffffffffffffffffffffffffff1673ffffffffffffffffffffffffffffffffffffffff1681526020019081526020016000205411610dc9576040517f08c379a0000000000000000000000000000000000000000000000000000000008152600401610dc090613856565b60405180910390fd5b610dd16115d8565b565b6060600d805480602002602001604051908101604052809291908181526020018280548015610e5757602002820191906000526020600020905b8160009054906101000a900473ffffffffffffffffffffffffffffffffffffffff1673ffffffffffffffffffffffffffffffffffffffff1681526020019060010190808311610e0d575b5050505050905090565b6000610e6b6117ab565b905090565b600e6020528060005260406000206000915054906101000a900460ff1681565b610eaf3373ffffffffffffffffffffffffffffffffffffffff166115b5565b15610eef576040517f08c379a0000000000000000000000000000000000000000000000000000000008152600401610ee690613732565b60405180910390fd5b6000600460003373ffffffffffffffffffffffffffffffffffffffff1673ffffffffffffffffffffffffffffffffffffffff1681526020019081526020016000205411610f71576040517f08c379a0000000000000000000000000000000000000000000000000000000008152600401610f6890613856565b60405180910390fd5b610f7a816117d0565b50565b610f9c3373ffffffffffffffffffffffffffffffffffffffff166115b5565b15610fdc576040517f08c379a0000000000000000000000000000000000000000000000000000000008152600401610fd390613732565b60405180910390fd5b610fe5816119a2565b50565b600b6020528060005260406000206000915054906101000a900460ff1681565b60046020528060005260406000206000915090505481565b6040518060400160405280600981526020017f73657175656e636572000000000000000000000000000000000000000000000081525081565b6000601160008373ffffffffffffffffffffffffffffffffffffffff1673ffffffffffffffffffffffffffffffffffffffff16815260200190815260200160002060009054906101000a900460ff169050919050565b6060600a80548060200260200160405190810160405280929190818152602001828054801561113357602002820191906000526020600020905b8160009054906101000a900473ffffffffffffffffffffffffffffffffffffffff1673ffffffffffffffffffffffffffffffffffffffff16815260200190600101908083116110e9575b5050505050905090565b6040518060400160405280600981526020017f76616c696461746f72000000000000000000000000000000000000000000000081525081565b6040518060400160405280600a81526020017f7761746368746f7765720000000000000000000000000000000000000000000081525081565b600f6020528060005260406000206000915090505481565b60015481565b670de0b6b3a764000081565b600081815481106111e957600080fd5b906000526020600020016000915090508054611204906136b5565b80601f0160208091040260200160405190810160405280929190818152602001828054611230906136b5565b801561127d5780601f106112525761010080835404028352916020019161127d565b820191906000526020600020905b81548152906001019060200180831161126057829003601f168201915b505050505081565b60056020528060005260406000206000915090505481565b6000600b60008373ffffffffffffffffffffffffffffffffffffffff1673ffffffffffffffffffffffffffffffffffffffff16815260200190815260200160002060009054906101000a900460ff169050919050565b6000600854905090565b6060601080548060200260200160405190810160405280929190818152602001828054801561138157602002820191906000526020600020905b8160009054906101000a900473ffffffffffffffffffffffffffffffffffffffff1673ffffffffffffffffffffffffffffffffffffffff1681526020019060010190808311611337575b5050505050905090565b600d818154811061139b57600080fd5b906000526020600020016000915054906101000a900473ffffffffffffffffffffffffffffffffffffffff1681565b60085481565b60036020528060005260406000206000915054906101000a900460ff1681565b6000600954905090565b6060600280548060200260200160405190810160405280929190818152602001828054801561147e57602002820191906000526020600020905b8160009054906101000a900473ffffffffffffffffffffffffffffffffffffffff1673ffffffffffffffffffffffffffffffffffffffff1681526020019060010190808311611434575b5050505050905090565b6000600754905090565b6000600460008373ffffffffffffffffffffffffffffffffffffffff1673ffffffffffffffffffffffffffffffffffffffff168152602001908152602001600020549050919050565b6000600e60008373ffffffffffffffffffffffffffffffffffffffff1673ffffffffffffffffffffffffffffffffffffffff16815260200190815260200160002060009054906101000a900460ff169050919050565b60075481565b6002818154811061154757600080fd5b906000526020600020016000915054906101000a900473ffffffffffffffffffffffffffffffffffffffff1681565b6010818154811061158657600080fd5b906000526020600020016000915054906101000a900473ffffffffffffffffffffffffffffffffffffffff1681565b6000808273ffffffffffffffffffffffffffffffffffffffff163b119050919050565b6115e133611c4a565b611620576040517f08c379a00000000000000000000000000000000000000000000000000000000081526004016116179061390e565b60405180910390fd5b6000600460003373ffffffffffffffffffffffffffffffffffffffff1673ffffffffffffffffffffffffffffffffffffffff1681526020019081526020016000205490506000600460003373ffffffffffffffffffffffffffffffffffffffff1673ffffffffffffffffffffffffffffffffffffffff1681526020019081526020016000208190555080600760008282546116bb919061395d565b925050819055506116cb33611ca0565b6116d433611f9f565b156116e3576116e233611ff5565b5b6116ec336122ab565b156116fb576116fa33612301565b5b611704336125b7565b15611713576117123361260d565b5b3373ffffffffffffffffffffffffffffffffffffffff166108fc829081150290604051600060405180830381858888f19350505050158015611759573d6000803e3d6000fd5b503373ffffffffffffffffffffffffffffffffffffffff167f0f5bb82176feb1b5e747e28471aa92156a04d9f3ab9f45f28e2d704232b93f75826040516117a09190613174565b60405180910390a250565b60008060015411156117c15760015490506117cd565b670de0b6b3a764000090505b90565b6000600460003373ffffffffffffffffffffffffffffffffffffffff1673ffffffffffffffffffffffffffffffffffffffff16815260200190815260200160002054905060008203611857576040517f08c379a000000000000000000000000000000000000000000000000000000000815260040161184e90613a03565b60405180910390fd5b808210611899576040517f08c379a000000000000000000000000000000000000000000000000000000000815260040161189090613a95565b60405180910390fd5b600082826118a7919061395d565b905080600460003373ffffffffffffffffffffffffffffffffffffffff1673ffffffffffffffffffffffffffffffffffffffff1681526020019081526020016000208190555080600760008282546118ff919061395d565b925050819055503373ffffffffffffffffffffffffffffffffffffffff166108fc849081150290604051600060405180830381858888f1935050505015801561194c573d6000803e3d6000fd5b503373ffffffffffffffffffffffffffffffffffffffff167f45a371af55b0726877a30f464edc14db5879ab096590bacce682cf6c182235968285604051611995929190613ab5565b60405180910390a2505050565b6119ab816128c3565b806119bb57506119ba81612960565b5b806119cb57506119ca816129fd565b5b611a0a576040517f08c379a0000000000000000000000000000000000000000000000000000000008152600401611a0190613b50565b60405180910390fd5b611a126117ab565b341015611a54576040517f08c379a0000000000000000000000000000000000000000000000000000000008152600401611a4b90613c08565b60405180910390fd5b611a5e3382612a9a565b611a9d576040517f08c379a0000000000000000000000000000000000000000000000000000000008152600401611a9490613c9a565b60405180910390fd5b611aa73382612b13565b611ae6576040517f08c379a0000000000000000000000000000000000000000000000000000000008152600401611add90613d2c565b60405180910390fd5b611af03382612b8c565b611b2f576040517f08c379a0000000000000000000000000000000000000000000000000000000008152600401611b2690613dbe565b60405180910390fd5b3460076000828254611b419190613dde565b9250508190555034600460003373ffffffffffffffffffffffffffffffffffffffff1673ffffffffffffffffffffffffffffffffffffffff1681526020019081526020016000206000828254611b979190613dde565b92505081905550611ba733612c05565b611bb0816128c3565b15611bc357611bbe33612da7565b611bf9565b611bcc81612960565b15611bdf57611bda33612eae565b611bf8565b611be8816129fd565b15611bf757611bf633612fb5565b5b5b5b3373ffffffffffffffffffffffffffffffffffffffff167f9e71bc8eea02a63969f509818f2dafb9254532904319f9dbda79b67bd34a5f3d34604051611c3f9190613174565b60405180910390a250565b6000600360008373ffffffffffffffffffffffffffffffffffffffff1673ffffffffffffffffffffffffffffffffffffffff16815260200190815260200160002060009054906101000a900460ff169050919050565b60085460028054905011611ce9576040517f08c379a0000000000000000000000000000000000000000000000000000000008152600401611ce090613eaa565b60405180910390fd5b600280549050600560008373ffffffffffffffffffffffffffffffffffffffff1673ffffffffffffffffffffffffffffffffffffffff1681526020019081526020016000205410611d6f576040517f08c379a0000000000000000000000000000000000000000000000000000000008152600401611d6690613f16565b60405180910390fd5b6000600560008373ffffffffffffffffffffffffffffffffffffffff1673ffffffffffffffffffffffffffffffffffffffff16815260200190815260200160002054905060006001600280549050611dc7919061395d565b9050808214611eb657600060028281548110611de657611de5613f36565b5b9060005260206000200160009054906101000a900473ffffffffffffffffffffffffffffffffffffffff1690508060028481548110611e2857611e27613f36565b5b9060005260206000200160006101000a81548173ffffffffffffffffffffffffffffffffffffffff021916908373ffffffffffffffffffffffffffffffffffffffff16021790555082600560008373ffffffffffffffffffffffffffffffffffffffff1673ffffffffffffffffffffffffffffffffffffffff16815260200190815260200160002081905550505b6000600360008573ffffffffffffffffffffffffffffffffffffffff1673ffffffffffffffffffffffffffffffffffffffff16815260200190815260200160002060006101000a81548160ff0219169083151502179055506000600560008573ffffffffffffffffffffffffffffffffffffffff1673ffffffffffffffffffffffffffffffffffffffff168152602001908152602001600020819055506002805480611f6557611f64613f65565b5b6001900381819060005260206000200160006101000a81549073ffffffffffffffffffffffffffffffffffffffff02191690559055505050565b6000600b60008373ffffffffffffffffffffffffffffffffffffffff1673ffffffffffffffffffffffffffffffffffffffff16815260200190815260200160002060009054906101000a900460ff169050919050565b600a80549050600c60008373ffffffffffffffffffffffffffffffffffffffff1673ffffffffffffffffffffffffffffffffffffffff168152602001908152602001600020541061207b576040517f08c379a000000000000000000000000000000000000000000000000000000000815260040161207290613f16565b60405180910390fd5b6000600c60008373ffffffffffffffffffffffffffffffffffffffff1673ffffffffffffffffffffffffffffffffffffffff16815260200190815260200160002054905060006001600a805490506120d3919061395d565b90508082146121c2576000600a82815481106120f2576120f1613f36565b5b9060005260206000200160009054906101000a900473ffffffffffffffffffffffffffffffffffffffff16905080600a848154811061213457612133613f36565b5b9060005260206000200160006101000a81548173ffffffffffffffffffffffffffffffffffffffff021916908373ffffffffffffffffffffffffffffffffffffffff16021790555082600c60008373ffffffffffffffffffffffffffffffffffffffff1673ffffffffffffffffffffffffffffffffffffffff16815260200190815260200160002081905550505b6000600b60008573ffffffffffffffffffffffffffffffffffffffff1673ffffffffffffffffffffffffffffffffffffffff16815260200190815260200160002060006101000a81548160ff0219169083151502179055506000600c60008573ffffffffffffffffffffffffffffffffffffffff1673ffffffffffffffffffffffffffffffffffffffff16815260200190815260200160002081905550600a80548061227157612270613f65565b5b6001900381819060005260206000200160006101000a81549073ffffffffffffffffffffffffffffffffffffffff02191690559055505050565b6000600e60008373ffffffffffffffffffffffffffffffffffffffff1673ffffffffffffffffffffffffffffffffffffffff16815260200190815260200160002060009054906101000a900460ff169050919050565b600d80549050600f60008373ffffffffffffffffffffffffffffffffffffffff1673ffffffffffffffffffffffffffffffffffffffff1681526020019081526020016000205410612387576040517f08c379a000000000000000000000000000000000000000000000000000000000815260040161237e90613f16565b60405180910390fd5b6000600f60008373ffffffffffffffffffffffffffffffffffffffff1673ffffffffffffffffffffffffffffffffffffffff16815260200190815260200160002054905060006001600d805490506123df919061395d565b90508082146124ce576000600d82815481106123fe576123fd613f36565b5b9060005260206000200160009054906101000a900473ffffffffffffffffffffffffffffffffffffffff16905080600d84815481106124405761243f613f36565b5b9060005260206000200160006101000a81548173ffffffffffffffffffffffffffffffffffffffff021916908373ffffffffffffffffffffffffffffffffffffffff16021790555082600f60008373ffffffffffffffffffffffffffffffffffffffff1673ffffffffffffffffffffffffffffffffffffffff16815260200190815260200160002081905550505b6000600e60008573ffffffffffffffffffffffffffffffffffffffff1673ffffffffffffffffffffffffffffffffffffffff16815260200190815260200160002060006101000a81548160ff0219169083151502179055506000600f60008573ffffffffffffffffffffffffffffffffffffffff1673ffffffffffffffffffffffffffffffffffffffff16815260200190815260200160002081905550600d80548061257d5761257c613f65565b5b6001900381819060005260206000200160006101000a81549073ffffffffffffffffffffffffffffffffffffffff02191690559055505050565b6000601160008373ffffffffffffffffffffffffffffffffffffffff1673ffffffffffffffffffffffffffffffffffffffff16815260200190815260200160002060009054906101000a900460ff169050919050565b601080549050601260008373ffffffffffffffffffffffffffffffffffffffff1673ffffffffffffffffffffffffffffffffffffffff1681526020019081526020016000205410612693576040517f08c379a000000000000000000000000000000000000000000000000000000000815260040161268a90613f16565b60405180910390fd5b6000601260008373ffffffffffffffffffffffffffffffffffffffff1673ffffffffffffffffffffffffffffffffffffffff168152602001908152602001600020549050600060016010805490506126eb919061395d565b90508082146127da5760006010828154811061270a57612709613f36565b5b9060005260206000200160009054906101000a900473ffffffffffffffffffffffffffffffffffffffff169050806010848154811061274c5761274b613f36565b5b9060005260206000200160006101000a81548173ffffffffffffffffffffffffffffffffffffffff021916908373ffffffffffffffffffffffffffffffffffffffff16021790555082601260008373ffffffffffffffffffffffffffffffffffffffff1673ffffffffffffffffffffffffffffffffffffffff16815260200190815260200160002081905550505b6000601160008573ffffffffffffffffffffffffffffffffffffffff1673ffffffffffffffffffffffffffffffffffffffff16815260200190815260200160002060006101000a81548160ff0219169083151502179055506000601260008573ffffffffffffffffffffffffffffffffffffffff1673ffffffffffffffffffffffffffffffffffffffff16815260200190815260200160002081905550601080548061288957612888613f65565b5b6001900381819060005260206000200160006101000a81549073ffffffffffffffffffffffffffffffffffffffff02191690559055505050565b6000816040516020016128d69190613fd0565b604051602081830303815290604052805190602001206040518060400160405280600981526020017f73657175656e63657200000000000000000000000000000000000000000000008152506040516020016129329190613fd0565b6040516020818303038152906040528051906020012003612956576001905061295b565b600090505b919050565b6000816040516020016129739190613fd0565b604051602081830303815290604052805190602001206040518060400160405280600a81526020017f7761746368746f776572000000000000000000000000000000000000000000008152506040516020016129cf9190613fd0565b60405160208183030381529060405280519060200120036129f357600190506129f8565b600090505b919050565b600081604051602001612a109190613fd0565b604051602081830303815290604052805190602001206040518060400160405280600981526020017f76616c696461746f720000000000000000000000000000000000000000000000815250604051602001612a6c9190613fd0565b6040516020818303038152906040528051906020012003612a905760019050612a95565b600090505b919050565b6000612aa5826128c3565b8015612afa5750600b60008473ffffffffffffffffffffffffffffffffffffffff1673ffffffffffffffffffffffffffffffffffffffff16815260200190815260200160002060009054906101000a900460ff165b15612b085760009050612b0d565b600190505b92915050565b6000612b1e82612960565b8015612b735750600e60008473ffffffffffffffffffffffffffffffffffffffff1673ffffffffffffffffffffffffffffffffffffffff16815260200190815260200160002060009054906101000a900460ff165b15612b815760009050612b86565b600190505b92915050565b6000612b97826129fd565b8015612bec5750601160008473ffffffffffffffffffffffffffffffffffffffff1673ffffffffffffffffffffffffffffffffffffffff16815260200190815260200160002060009054906101000a900460ff165b15612bfa5760009050612bff565b600190505b92915050565b60095460028054905010612c4e576040517f08c379a0000000000000000000000000000000000000000000000000000000008152600401612c4590614059565b60405180910390fd5b600360008273ffffffffffffffffffffffffffffffffffffffff1673ffffffffffffffffffffffffffffffffffffffff16815260200190815260200160002060009054906101000a900460ff16612da4576001600360008373ffffffffffffffffffffffffffffffffffffffff1673ffffffffffffffffffffffffffffffffffffffff16815260200190815260200160002060006101000a81548160ff021916908315150217905550600280549050600560008373ffffffffffffffffffffffffffffffffffffffff1673ffffffffffffffffffffffffffffffffffffffff168152602001908152602001600020819055506002819080600181540180825580915050600190039060005260206000200160009091909190916101000a81548173ffffffffffffffffffffffffffffffffffffffff021916908373ffffffffffffffffffffffffffffffffffffffff1602179055505b50565b6001600b60008373ffffffffffffffffffffffffffffffffffffffff1673ffffffffffffffffffffffffffffffffffffffff16815260200190815260200160002060006101000a81548160ff021916908315150217905550600a80549050600c60008373ffffffffffffffffffffffffffffffffffffffff1673ffffffffffffffffffffffffffffffffffffffff16815260200190815260200160002081905550600a819080600181540180825580915050600190039060005260206000200160009091909190916101000a81548173ffffffffffffffffffffffffffffffffffffffff021916908373ffffffffffffffffffffffffffffffffffffffff16021790555050565b6001600e60008373ffffffffffffffffffffffffffffffffffffffff1673ffffffffffffffffffffffffffffffffffffffff16815260200190815260200160002060006101000a81548160ff021916908315150217905550600d80549050600f60008373ffffffffffffffffffffffffffffffffffffffff1673ffffffffffffffffffffffffffffffffffffffff16815260200190815260200160002081905550600d819080600181540180825580915050600190039060005260206000200160009091909190916101000a81548173ffffffffffffffffffffffffffffffffffffffff021916908373ffffffffffffffffffffffffffffffffffffffff16021790555050565b6001601160008373ffffffffffffffffffffffffffffffffffffffff1673ffffffffffffffffffffffffffffffffffffffff16815260200190815260200160002060006101000a81548160ff021916908315150217905550601080549050601260008373ffffffffffffffffffffffffffffffffffffffff1673ffffffffffffffffffffffffffffffffffffffff168152602001908152602001600020819055506010819080600181540180825580915050600190039060005260206000200160009091909190916101000a81548173ffffffffffffffffffffffffffffffffffffffff021916908373ffffffffffffffffffffffffffffffffffffffff16021790555050565b6000604051905090565b600080fd5b600080fd5b600073ffffffffffffffffffffffffffffffffffffffff82169050919050565b60006130fb826130d0565b9050919050565b61310b816130f0565b811461311657600080fd5b50565b60008135905061312881613102565b92915050565b600060208284031215613144576131436130c6565b5b600061315284828501613119565b91505092915050565b6000819050919050565b61316e8161315b565b82525050565b60006020820190506131896000830184613165565b92915050565b60008115159050919050565b6131a48161318f565b82525050565b60006020820190506131bf600083018461319b565b92915050565b6131ce8161315b565b81146131d957600080fd5b50565b6000813590506131eb816131c5565b92915050565b600060208284031215613207576132066130c6565b5b6000613215848285016131dc565b91505092915050565b613227816130f0565b82525050565b6000602082019050613242600083018461321e565b92915050565b600081519050919050565b600082825260208201905092915050565b60005b83811015613282578082015181840152602081019050613267565b60008484015250505050565b6000601f19601f8301169050919050565b60006132aa82613248565b6132b48185613253565b93506132c4818560208601613264565b6132cd8161328e565b840191505092915050565b600060208201905081810360008301526132f2818461329f565b905092915050565b600081519050919050565b600082825260208201905092915050565b6000819050602082019050919050565b600082825260208201905092915050565b600061334282613248565b61334c8185613326565b935061335c818560208601613264565b6133658161328e565b840191505092915050565b600061337c8383613337565b905092915050565b6000602082019050919050565b600061339c826132fa565b6133a68185613305565b9350836020820285016133b885613316565b8060005b858110156133f457848403895281516133d58582613370565b94506133e083613384565b925060208a019950506001810190506133bc565b50829750879550505050505092915050565b600060208201905081810360008301526134208184613391565b905092915050565b600081519050919050565b600082825260208201905092915050565b6000819050602082019050919050565b61345d816130f0565b82525050565b600061346f8383613454565b60208301905092915050565b6000602082019050919050565b600061349382613428565b61349d8185613433565b93506134a883613444565b8060005b838110156134d95781516134c08882613463565b97506134cb8361347b565b9250506001810190506134ac565b5085935050505092915050565b600060208201905081810360008301526135008184613488565b905092915050565b600080fd5b600080fd5b7f4e487b7100000000000000000000000000000000000000000000000000000000600052604160045260246000fd5b61354a8261328e565b810181811067ffffffffffffffff8211171561356957613568613512565b5b80604052505050565b600061357c6130bc565b90506135888282613541565b919050565b600067ffffffffffffffff8211156135a8576135a7613512565b5b6135b18261328e565b9050602081019050919050565b82818337600083830152505050565b60006135e06135db8461358d565b613572565b9050828152602081018484840111156135fc576135fb61350d565b5b6136078482856135be565b509392505050565b600082601f83011261362457613623613508565b5b81356136348482602086016135cd565b91505092915050565b600060208284031215613653576136526130c6565b5b600082013567ffffffffffffffff811115613671576136706130cb565b5b61367d8482850161360f565b91505092915050565b7f4e487b7100000000000000000000000000000000000000000000000000000000600052602260045260246000fd5b600060028204905060018216806136cd57607f821691505b6020821081036136e0576136df613686565b5b50919050565b7f4f6e6c7920454f412063616e2063616c6c2066756e6374696f6e000000000000600082015250565b600061371c601a83613253565b9150613727826136e6565b602082019050919050565b6000602082019050818103600083015261374b8161370f565b9050919050565b7f4e6577207374616b696e67207468726573686f6c64206d75737420626520677260008201527f6561746572207468616e2064656661756c74207374616b696e6720746872657360208201527f686f6c642e000000000000000000000000000000000000000000000000000000604082015250565b60006137d4604583613253565b91506137df82613752565b606082019050919050565b60006020820190508181036000830152613803816137c7565b9050919050565b7f4f6e6c79207374616b65722063616e2063616c6c2066756e6374696f6e000000600082015250565b6000613840601d83613253565b915061384b8261380a565b602082019050919050565b6000602082019050818103600083015261386f81613833565b9050919050565b7f53656e6465722068617320746f2062652070617274206f66207374616b696e6760008201527f20706f6c6c20696e206f7264657220746f20756e7374616b652069747320736860208201527f6172652e20556e7374616b652072656a65637465642e00000000000000000000604082015250565b60006138f8605683613253565b915061390382613876565b606082019050919050565b60006020820190508181036000830152613927816138eb565b9050919050565b7f4e487b7100000000000000000000000000000000000000000000000000000000600052601160045260246000fd5b60006139688261315b565b91506139738361315b565b925082820390508181111561398b5761398a61392e565b5b92915050565b7f536c61736820616d6f756e74206e6565647320746f2062652070726f7669646560008201527f642e000000000000000000000000000000000000000000000000000000000000602082015250565b60006139ed602283613253565b91506139f882613991565b604082019050919050565b60006020820190508181036000830152613a1c816139e0565b9050919050565b7f536c61736820616d6f756e742063616e6e6f742062652067726561746572207460008201527f68616e207374616b656420616d6f756e74000000000000000000000000000000602082015250565b6000613a7f603183613253565b9150613a8a82613a23565b604082019050919050565b60006020820190508181036000830152613aae81613a72565b9050919050565b6000604082019050613aca6000830185613165565b613ad76020830184613165565b9392505050565b7f50726f7669646564206e6f646520747970652068617320746f206d617463682060008201527f617661696c61626c65206e6f6465207479706573000000000000000000000000602082015250565b6000613b3a603483613253565b9150613b4582613ade565b604082019050919050565b60006020820190508181036000830152613b6981613b2d565b9050919050565b7f496e737566696369656e74207374616b696e6720616d6f756e742070726f766960008201527f6465642e2048617320746f206265206c6172676572207468616e207374616b6960208201527f6e67206d696e696d756d207468726573686f6c64000000000000000000000000604082015250565b6000613bf2605483613253565b9150613bfd82613b70565b606082019050919050565b60006020820190508181036000830152613c2181613be5565b9050919050565b7f53656e64657220697320616c72656164792073657175656e6365722e2052656a60008201527f656374696e67207374616b6520726571756573742e0000000000000000000000602082015250565b6000613c84603583613253565b9150613c8f82613c28565b604082019050919050565b60006020820190508181036000830152613cb381613c77565b9050919050565b7f53656e64657220697320616c7265616479207761746368746f7765722e20526560008201527f6a656374696e67207374616b6520726571756573742e00000000000000000000602082015250565b6000613d16603683613253565b9150613d2182613cba565b604082019050919050565b60006020820190508181036000830152613d4581613d09565b9050919050565b7f53656e64657220697320616c72656164792076616c696461746f722e2052656a60008201527f656374696e67207374616b6520726571756573742e0000000000000000000000602082015250565b6000613da8603583613253565b9150613db382613d4c565b604082019050919050565b60006020820190508181036000830152613dd781613d9b565b9050919050565b6000613de98261315b565b9150613df48361315b565b9250828201905080821115613e0c57613e0b61392e565b5b92915050565b7f5374616b696e67207061727469636970616e74732063616e2774206265206c6560008201527f7373207468616e20746865206d696e696d756d2072657175697265642070617260208201527f7469636970616e74206e756d0000000000000000000000000000000000000000604082015250565b6000613e94604c83613253565b9150613e9f82613e12565b606082019050919050565b60006020820190508181036000830152613ec381613e87565b9050919050565b7f696e646578206f7574206f662072616e67650000000000000000000000000000600082015250565b6000613f00601283613253565b9150613f0b82613eca565b602082019050919050565b60006020820190508181036000830152613f2f81613ef3565b9050919050565b7f4e487b7100000000000000000000000000000000000000000000000000000000600052603260045260246000fd5b7f4e487b7100000000000000000000000000000000000000000000000000000000600052603160045260246000fd5b600081905092915050565b6000613faa82613248565b613fb48185613f94565b9350613fc4818560208601613264565b80840191505092915050565b6000613fdc8284613f9f565b915081905092915050565b7f53657175656e636572207365742068617320726561636865642066756c6c206360008201527f6170616369747900000000000000000000000000000000000000000000000000602082015250565b6000614043602783613253565b915061404e82613fe7565b604082019050919050565b6000602082019050818103600083015261407281614036565b905091905056fea2646970667358221220305802d9a8edbe086e2caad128153f3de5274752a9098a1b9fcda65739f5785064736f6c63430008110033",
  "linkReferences": {},
  "deployedLinkReferences": {}
}