{
  "_format": "hh-sol-artifact-1",
  "contractName": "Staking",
  "sourceName": "contracts/Staking.sol",
  "abi": [
    {
      "inputs": [
        {
          "internalType": "uint256",
          "name": "minNumSequencers",
          "type": "uint256"
        },
        {
          "internalType": "uint256",
          "name": "maxNumSequencers",
          "type": "uint256"
        }
      ],
      "stateMutability": "nonpayable",
      "type": "constructor"
    },
    {
      "anonymous": false,
      "inputs": [
        {
          "indexed": true,
          "internalType": "address",
          "name": "account",
          "type": "address"
        },
        {
          "indexed": false,
          "internalType": "uint256",
          "name": "amount",
          "type": "uint256"
        }
      ],
      "name": "Slashed",
      "type": "event"
    },
    {
      "anonymous": false,
      "inputs": [
        {
          "indexed": true,
          "internalType": "address",
          "name": "account",
          "type": "address"
        },
        {
          "indexed": false,
          "internalType": "uint256",
          "name": "amount",
          "type": "uint256"
        }
      ],
      "name": "Staked",
      "type": "event"
    },
    {
      "anonymous": false,
      "inputs": [
        {
          "indexed": true,
          "internalType": "address",
          "name": "account",
          "type": "address"
        },
        {
          "indexed": false,
          "internalType": "uint256",
          "name": "amount",
          "type": "uint256"
        }
      ],
      "name": "Unstaked",
      "type": "event"
    },
    {
      "inputs": [
        {
          "internalType": "address",
          "name": "addr",
          "type": "address"
        }
      ],
      "name": "AccountStake",
      "outputs": [
        {
          "internalType": "uint256",
          "name": "",
          "type": "uint256"
        }
      ],
      "stateMutability": "view",
      "type": "function"
    },
    {
      "inputs": [],
      "name": "CurrentSequencers",
      "outputs": [
        {
          "internalType": "address[]",
          "name": "",
          "type": "address[]"
        }
      ],
      "stateMutability": "view",
      "type": "function"
    },
    {
      "inputs": [],
      "name": "CurrentStakedAmount",
      "outputs": [
        {
          "internalType": "uint256",
          "name": "",
          "type": "uint256"
        }
      ],
      "stateMutability": "view",
      "type": "function"
    },
    {
      "inputs": [
        {
          "internalType": "address",
          "name": "addr",
          "type": "address"
        }
      ],
      "name": "IsSequencer",
      "outputs": [
        {
          "internalType": "bool",
          "name": "",
          "type": "bool"
        }
      ],
      "stateMutability": "view",
      "type": "function"
    },
    {
      "inputs": [],
      "name": "MaxNumSequencers",
      "outputs": [
        {
          "internalType": "uint256",
          "name": "",
          "type": "uint256"
        }
      ],
      "stateMutability": "view",
      "type": "function"
    },
    {
      "inputs": [],
      "name": "MinNumSequencers",
      "outputs": [
        {
          "internalType": "uint256",
          "name": "",
          "type": "uint256"
        }
      ],
      "stateMutability": "view",
      "type": "function"
    },
    {
      "inputs": [],
      "name": "STAKING_THRESHOLD",
      "outputs": [
        {
          "internalType": "uint128",
          "name": "",
          "type": "uint128"
        }
      ],
      "stateMutability": "view",
      "type": "function"
    },
    {
      "inputs": [
        {
          "internalType": "address",
          "name": "",
          "type": "address"
        }
      ],
      "name": "_addressToIsSequencer",
      "outputs": [
        {
          "internalType": "bool",
          "name": "",
          "type": "bool"
        }
      ],
      "stateMutability": "view",
      "type": "function"
    },
    {
      "inputs": [
        {
          "internalType": "address",
          "name": "",
          "type": "address"
        }
      ],
      "name": "_addressToSequencerIndex",
      "outputs": [
        {
          "internalType": "uint256",
          "name": "",
          "type": "uint256"
        }
      ],
      "stateMutability": "view",
      "type": "function"
    },
    {
      "inputs": [
        {
          "internalType": "address",
          "name": "",
          "type": "address"
        }
      ],
      "name": "_addressToStakedAmount",
      "outputs": [
        {
          "internalType": "uint256",
          "name": "",
          "type": "uint256"
        }
      ],
      "stateMutability": "view",
      "type": "function"
    },
    {
      "inputs": [],
      "name": "_maximumNumSequencers",
      "outputs": [
        {
          "internalType": "uint256",
          "name": "",
          "type": "uint256"
        }
      ],
      "stateMutability": "view",
      "type": "function"
    },
    {
      "inputs": [],
      "name": "_minimumNumSequencers",
      "outputs": [
        {
          "internalType": "uint256",
          "name": "",
          "type": "uint256"
        }
      ],
      "stateMutability": "view",
      "type": "function"
    },
    {
      "inputs": [
        {
          "internalType": "uint256",
          "name": "",
          "type": "uint256"
        }
      ],
      "name": "_sequencers",
      "outputs": [
        {
          "internalType": "address",
          "name": "",
          "type": "address"
        }
      ],
      "stateMutability": "view",
      "type": "function"
    },
    {
      "inputs": [],
      "name": "_stakedAmount",
      "outputs": [
        {
          "internalType": "uint256",
          "name": "",
          "type": "uint256"
        }
      ],
      "stateMutability": "view",
      "type": "function"
    },
    {
      "inputs": [],
      "name": "slash",
      "outputs": [],
      "stateMutability": "nonpayable",
      "type": "function"
    },
    {
      "inputs": [],
      "name": "stake",
      "outputs": [],
      "stateMutability": "payable",
      "type": "function"
    },
    {
      "inputs": [],
      "name": "unstake",
      "outputs": [],
      "stateMutability": "nonpayable",
      "type": "function"
    },
    {
      "stateMutability": "payable",
      "type": "receive"
    }
  ],
  "bytecode": "0x60806040523480156200001157600080fd5b5060405162001a9738038062001a978339818101604052810190620000379190620000d3565b808211156200007d576040517f08c379a00000000000000000000000000000000000000000000000000000000081526004016200007490620001a1565b60405180910390fd5b81600581905550806006819055505050620001c3565b600080fd5b6000819050919050565b620000ad8162000098565b8114620000b957600080fd5b50565b600081519050620000cd81620000a2565b92915050565b60008060408385031215620000ed57620000ec62000093565b5b6000620000fd85828601620000bc565b92505060206200011085828601620000bc565b9150509250929050565b600082825260208201905092915050565b7f4d696e2073657175656e63657273206e756d2063616e206e6f7420626520677260008201527f6561746572207468616e206d6178206e756d206f662073657175656e63657273602082015250565b6000620001896040836200011a565b915062000196826200012b565b604082019050919050565b60006020820190508181036000830152620001bc816200017a565b9050919050565b6118c480620001d36000396000f3fe6080604052600436106101025760003560e01c8063586741ee116100955780638d084148116100645780638d0841481461038a57806395cf4632146103b5578063ab5be27d146103e0578063bb5a26ff1461040b578063e387a7ed1461044857610170565b8063586741ee146102a857806372330689146102d35780637b339263146103105780637dceceb81461034d57610170565b80631d7221cc116100d15780631d7221cc146102455780632da25de3146102705780632def6620146102875780633a4b66f11461029e57610170565b80630fb18ccc1461017557806319908df8146101a05780631bec453b146101dd5780631cb9bdca1461020857610170565b36610170576101263373ffffffffffffffffffffffffffffffffffffffff16610473565b15610166576040517f08c379a000000000000000000000000000000000000000000000000000000000815260040161015d90611248565b60405180910390fd5b61016e610496565b005b600080fd5b34801561018157600080fd5b5061018a61056d565b6040516101979190611281565b60405180910390f35b3480156101ac57600080fd5b506101c760048036038101906101c291906112cd565b610573565b6040516101d4919061133b565b60405180910390f35b3480156101e957600080fd5b506101f26105b2565b6040516101ff9190611281565b60405180910390f35b34801561021457600080fd5b5061022f600480360381019061022a9190611382565b6105bc565b60405161023c9190611281565b60405180910390f35b34801561025157600080fd5b5061025a6105d4565b6040516102679190611281565b60405180910390f35b34801561027c57600080fd5b506102856105de565b005b34801561029357600080fd5b5061029c6106c9565b005b6102a66107b4565b005b3480156102b457600080fd5b506102bd61081d565b6040516102ca9190611281565b60405180910390f35b3480156102df57600080fd5b506102fa60048036038101906102f59190611382565b610827565b6040516103079190611281565b60405180910390f35b34801561031c57600080fd5b5061033760048036038101906103329190611382565b610870565b60405161034491906113ca565b60405180910390f35b34801561035957600080fd5b50610374600480360381019061036f9190611382565b610890565b6040516103819190611281565b60405180910390f35b34801561039657600080fd5b5061039f6108a8565b6040516103ac9190611281565b60405180910390f35b3480156103c157600080fd5b506103ca6108ae565b6040516103d791906114a3565b60405180910390f35b3480156103ec57600080fd5b506103f561093c565b60405161040291906114f0565b60405180910390f35b34801561041757600080fd5b50610432600480360381019061042d9190611382565b610948565b60405161043f91906113ca565b60405180910390f35b34801561045457600080fd5b5061045d61099e565b60405161046a9190611281565b60405180910390f35b6000808273ffffffffffffffffffffffffffffffffffffffff163b119050919050565b34600460008282546104a8919061153a565b9250508190555034600260003373ffffffffffffffffffffffffffffffffffffffff1673ffffffffffffffffffffffffffffffffffffffff16815260200190815260200160002060008282546104fe919061153a565b9250508190555061050e336109a4565b1561051d5761051c33610a1c565b5b3373ffffffffffffffffffffffffffffffffffffffff167f9e71bc8eea02a63969f509818f2dafb9254532904319f9dbda79b67bd34a5f3d346040516105639190611281565b60405180910390a2565b60065481565b6000818154811061058357600080fd5b906000526020600020016000915054906101000a900473ffffffffffffffffffffffffffffffffffffffff1681565b6000600654905090565b60036020528060005260406000206000915090505481565b6000600554905090565b6105fd3373ffffffffffffffffffffffffffffffffffffffff16610473565b1561063d576040517f08c379a000000000000000000000000000000000000000000000000000000000815260040161063490611248565b60405180910390fd5b6000600260003373ffffffffffffffffffffffffffffffffffffffff1673ffffffffffffffffffffffffffffffffffffffff16815260200190815260200160002054116106bf576040517f08c379a00000000000000000000000000000000000000000000000000000000081526004016106b6906115ba565b60405180910390fd5b6106c7610b6b565b565b6106e83373ffffffffffffffffffffffffffffffffffffffff16610473565b15610728576040517f08c379a000000000000000000000000000000000000000000000000000000000815260040161071f90611248565b60405180910390fd5b6000600260003373ffffffffffffffffffffffffffffffffffffffff1673ffffffffffffffffffffffffffffffffffffffff16815260200190815260200160002054116107aa576040517f08c379a00000000000000000000000000000000000000000000000000000000081526004016107a1906115ba565b60405180910390fd5b6107b2610d45565b565b6107d33373ffffffffffffffffffffffffffffffffffffffff16610473565b15610813576040517f08c379a000000000000000000000000000000000000000000000000000000000815260040161080a90611248565b60405180910390fd5b61081b610496565b565b6000600454905090565b6000600260008373ffffffffffffffffffffffffffffffffffffffff1673ffffffffffffffffffffffffffffffffffffffff168152602001908152602001600020549050919050565b60016020528060005260406000206000915054906101000a900460ff1681565b60026020528060005260406000206000915090505481565b60055481565b6060600080548060200260200160405190810160405280929190818152602001828054801561093257602002820191906000526020600020905b8160009054906101000a900473ffffffffffffffffffffffffffffffffffffffff1673ffffffffffffffffffffffffffffffffffffffff16815260200190600101908083116108e8575b5050505050905090565b670de0b6b3a764000081565b6000600160008373ffffffffffffffffffffffffffffffffffffffff1673ffffffffffffffffffffffffffffffffffffffff16815260200190815260200160002060009054906101000a900460ff169050919050565b60045481565b60006109af82610e97565b158015610a155750670de0b6b3a76400006fffffffffffffffffffffffffffffffff16600260008473ffffffffffffffffffffffffffffffffffffffff1673ffffffffffffffffffffffffffffffffffffffff1681526020019081526020016000205410155b9050919050565b60065460008054905010610a65576040517f08c379a0000000000000000000000000000000000000000000000000000000008152600401610a5c9061164c565b60405180910390fd5b60018060008373ffffffffffffffffffffffffffffffffffffffff1673ffffffffffffffffffffffffffffffffffffffff16815260200190815260200160002060006101000a81548160ff021916908315150217905550600080549050600360008373ffffffffffffffffffffffffffffffffffffffff1673ffffffffffffffffffffffffffffffffffffffff168152602001908152602001600020819055506000819080600181540180825580915050600190039060005260206000200160009091909190916101000a81548173ffffffffffffffffffffffffffffffffffffffff021916908373ffffffffffffffffffffffffffffffffffffffff16021790555050565b6000600260003373ffffffffffffffffffffffffffffffffffffffff1673ffffffffffffffffffffffffffffffffffffffff16815260200190815260200160002054905080670de0b6b3a76400006fffffffffffffffffffffffffffffffff1610610c0b576040517f08c379a0000000000000000000000000000000000000000000000000000000008152600401610c02906116de565b60405180910390fd5b6000670de0b6b3a76400006fffffffffffffffffffffffffffffffff1682610c3391906116fe565b905080600260003373ffffffffffffffffffffffffffffffffffffffff1673ffffffffffffffffffffffffffffffffffffffff168152602001908152602001600020819055508060046000828254610c8b91906116fe565b925050819055503373ffffffffffffffffffffffffffffffffffffffff166108fc670de0b6b3a76400006fffffffffffffffffffffffffffffffff169081150290604051600060405180830381858888f19350505050158015610cf2573d6000803e3d6000fd5b503373ffffffffffffffffffffffffffffffffffffffff167f4ed05e9673c26d2ed44f7ef6a7f2942df0ee3b5e1e17db4b99f9dcd261a339cd82604051610d399190611281565b60405180910390a25050565b6000600260003373ffffffffffffffffffffffffffffffffffffffff1673ffffffffffffffffffffffffffffffffffffffff1681526020019081526020016000205490506000600260003373ffffffffffffffffffffffffffffffffffffffff1673ffffffffffffffffffffffffffffffffffffffff168152602001908152602001600020819055508060046000828254610de091906116fe565b92505081905550610df033610e97565b15610dff57610dfe33610eed565b5b3373ffffffffffffffffffffffffffffffffffffffff166108fc829081150290604051600060405180830381858888f19350505050158015610e45573d6000803e3d6000fd5b503373ffffffffffffffffffffffffffffffffffffffff167f0f5bb82176feb1b5e747e28471aa92156a04d9f3ab9f45f28e2d704232b93f7582604051610e8c9190611281565b60405180910390a250565b6000600160008373ffffffffffffffffffffffffffffffffffffffff1673ffffffffffffffffffffffffffffffffffffffff16815260200190815260200160002060009054906101000a900460ff169050919050565b60055460008054905011610f36576040517f08c379a0000000000000000000000000000000000000000000000000000000008152600401610f2d906117a4565b60405180910390fd5b600080549050600360008373ffffffffffffffffffffffffffffffffffffffff1673ffffffffffffffffffffffffffffffffffffffff1681526020019081526020016000205410610fbc576040517f08c379a0000000000000000000000000000000000000000000000000000000008152600401610fb390611810565b60405180910390fd5b6000600360008373ffffffffffffffffffffffffffffffffffffffff1673ffffffffffffffffffffffffffffffffffffffff1681526020019081526020016000205490506000600160008054905061101491906116fe565b905080821461110257600080828154811061103257611031611830565b5b9060005260206000200160009054906101000a900473ffffffffffffffffffffffffffffffffffffffff169050806000848154811061107457611073611830565b5b9060005260206000200160006101000a81548173ffffffffffffffffffffffffffffffffffffffff021916908373ffffffffffffffffffffffffffffffffffffffff16021790555082600360008373ffffffffffffffffffffffffffffffffffffffff1673ffffffffffffffffffffffffffffffffffffffff16815260200190815260200160002081905550505b6000600160008573ffffffffffffffffffffffffffffffffffffffff1673ffffffffffffffffffffffffffffffffffffffff16815260200190815260200160002060006101000a81548160ff0219169083151502179055506000600360008573ffffffffffffffffffffffffffffffffffffffff1673ffffffffffffffffffffffffffffffffffffffff1681526020019081526020016000208190555060008054806111b1576111b061185f565b5b6001900381819060005260206000200160006101000a81549073ffffffffffffffffffffffffffffffffffffffff02191690559055505050565b600082825260208201905092915050565b7f4f6e6c7920454f412063616e2063616c6c2066756e6374696f6e000000000000600082015250565b6000611232601a836111eb565b915061123d826111fc565b602082019050919050565b6000602082019050818103600083015261126181611225565b9050919050565b6000819050919050565b61127b81611268565b82525050565b60006020820190506112966000830184611272565b92915050565b600080fd5b6112aa81611268565b81146112b557600080fd5b50565b6000813590506112c7816112a1565b92915050565b6000602082840312156112e3576112e261129c565b5b60006112f1848285016112b8565b91505092915050565b600073ffffffffffffffffffffffffffffffffffffffff82169050919050565b6000611325826112fa565b9050919050565b6113358161131a565b82525050565b6000602082019050611350600083018461132c565b92915050565b61135f8161131a565b811461136a57600080fd5b50565b60008135905061137c81611356565b92915050565b6000602082840312156113985761139761129c565b5b60006113a68482850161136d565b91505092915050565b60008115159050919050565b6113c4816113af565b82525050565b60006020820190506113df60008301846113bb565b92915050565b600081519050919050565b600082825260208201905092915050565b6000819050602082019050919050565b61141a8161131a565b82525050565b600061142c8383611411565b60208301905092915050565b6000602082019050919050565b6000611450826113e5565b61145a81856113f0565b935061146583611401565b8060005b8381101561149657815161147d8882611420565b975061148883611438565b925050600181019050611469565b5085935050505092915050565b600060208201905081810360008301526114bd8184611445565b905092915050565b60006fffffffffffffffffffffffffffffffff82169050919050565b6114ea816114c5565b82525050565b600060208201905061150560008301846114e1565b92915050565b7f4e487b7100000000000000000000000000000000000000000000000000000000600052601160045260246000fd5b600061154582611268565b915061155083611268565b92508282019050808211156115685761156761150b565b5b92915050565b7f4f6e6c79207374616b65722063616e2063616c6c2066756e6374696f6e000000600082015250565b60006115a4601d836111eb565b91506115af8261156e565b602082019050919050565b600060208201905081810360008301526115d381611597565b9050919050565b7f53657175656e636572207365742068617320726561636865642066756c6c206360008201527f6170616369747900000000000000000000000000000000000000000000000000602082015250565b60006116366027836111eb565b9150611641826115da565b604082019050919050565b6000602082019050818103600083015261166581611629565b9050919050565b7f536c61736820616d6f756e742063616e6e6f742062652067726561746572207460008201527f68616e207374616b656420616d6f756e74000000000000000000000000000000602082015250565b60006116c86031836111eb565b91506116d38261166c565b604082019050919050565b600060208201905081810360008301526116f7816116bb565b9050919050565b600061170982611268565b915061171483611268565b925082820390508181111561172c5761172b61150b565b5b92915050565b7f53657175656e636572732063616e2774206265206c657373207468616e20746860008201527f65206d696e696d756d2072657175697265642073657175656e636572206e756d602082015250565b600061178e6040836111eb565b915061179982611732565b604082019050919050565b600060208201905081810360008301526117bd81611781565b9050919050565b7f696e646578206f7574206f662072616e67650000000000000000000000000000600082015250565b60006117fa6012836111eb565b9150611805826117c4565b602082019050919050565b60006020820190508181036000830152611829816117ed565b9050919050565b7f4e487b7100000000000000000000000000000000000000000000000000000000600052603260045260246000fd5b7f4e487b7100000000000000000000000000000000000000000000000000000000600052603160045260246000fdfea264697066735822122064d27a1732a24d7ba49c62839b3f3c8b99aa01dfee507b7d35d40b560cb7425f64736f6c63430008110033",
  "linkReferences": {},
  "deployedLinkReferences": {}
}